{
  "contractName": "StackingPool",
  "abi": [
    {
      "inputs": [
        {
          "internalType": "address",
          "name": "",
          "type": "address"
        },
        {
          "internalType": "address",
          "name": "",
          "type": "address"
        }
      ],
      "name": "stakers",
      "outputs": [
        {
          "internalType": "uint128",
          "name": "amount",
          "type": "uint128"
        },
        {
          "internalType": "uint256",
          "name": "date",
          "type": "uint256"
        }
      ],
      "stateMutability": "view",
      "type": "function"
    }
  ],
  "bytecode": "0x608060405234801561001057600080fd5b506101f4806100206000396000f3fe608060405234801561001057600080fd5b506004361061002b5760003560e01c8063e8f5063314610030575b600080fd5b61004a60048036038101906100459190610111565b610061565b604051610058929190610195565b60405180910390f35b6000602052816000526040600020602052806000526040600020600091509150508060000160009054906101000a90046fffffffffffffffffffffffffffffffff16908060010154905082565b600080fd5b600073ffffffffffffffffffffffffffffffffffffffff82169050919050565b60006100de826100b3565b9050919050565b6100ee816100d3565b81146100f957600080fd5b50565b60008135905061010b816100e5565b92915050565b60008060408385031215610128576101276100ae565b5b6000610136858286016100fc565b9250506020610147858286016100fc565b9150509250929050565b60006fffffffffffffffffffffffffffffffff82169050919050565b61017681610151565b82525050565b6000819050919050565b61018f8161017c565b82525050565b60006040820190506101aa600083018561016d565b6101b76020830184610186565b939250505056fea26469706673582212207fc36973101acccfe496dc53c82e3107fadfee59fa7ab888757919c3702267c864736f6c634300080e0033",
  "immutableReferences": {},
  "source": "// SPDX-License-Identifier: MIT\npragma solidity 0.8.14;\n\ncontract StackingPool {\n    struct Staker {\n        uint128 amount; // Amount token stake\n        uint256 date; // Date of stake start\n    }\n    // address token => address Staker => Informations Staker\n    mapping(address => mapping(address => Staker)) public stakers;\n\n    // Save total amount with timestamp\n    struct majStackingPool {\n        uint256 blockDate;\n        uint128 stakingTotalPool;\n    }\n    //address token => array majStackingPool\n    mapping(address => majStackingPool[]) stakingTimes;\n\n    /**\n     * @notice Update Staker Struct when he stake\n     * @dev called in function stake\n     * @param _amount is the amount to stake\n     * @param _token is token address\n     */\n    function upAmountStaker(uint128 _amount, address _token) internal {\n        stakers[_token][msg.sender] = Staker(\n            stakers[_token][msg.sender].amount + _amount,\n            block.timestamp\n        );\n    }\n\n    /**\n     * @notice Update Staker Struct when he withdraw\n     * @dev called in function withdraw\n     * @param _amount is the amount to stake\n     * @param _token is token address\n     */\n    function downAmountStaker(uint128 _amount, address _token) internal {\n        stakers[_token][msg.sender] = Staker(\n            stakers[_token][msg.sender].amount - _amount,\n            block.timestamp\n        );\n    }\n\n    /**\n     * @notice Update majStackingPool when there is a stake\n     * @dev called in function stake\n     * @param _amount is the amount to stake\n     * @param _token is token address\n     */\n    function upStackingPool(uint128 _amount, address _token) internal {\n        uint128 lastTotalStake;\n        if (stakingTimes[_token].length == 0) {\n            lastTotalStake = 0;\n        } else {\n            lastTotalStake = stakingTimes[_token][\n                stakingTimes[_token].length - 1\n            ].stakingTotalPool;\n        }\n        majStackingPool memory maj = majStackingPool(\n            block.timestamp,\n            lastTotalStake + _amount\n        );\n        stakingTimes[_token].push(maj);\n    }\n\n    /**\n     * @notice Update majStackingPool when there is a withdraw\n     * @dev called in function withdrawF\n     * @param _amount is the amount to stake\n     * @param _token is token address\n     */\n    function downStackingPool(uint128 _amount, address _token) internal {\n        uint128 lastTotalStake = stakingTimes[_token][\n            stakingTimes[_token].length - 1\n        ].stakingTotalPool;\n        majStackingPool memory maj = majStackingPool(\n            block.timestamp,\n            lastTotalStake - _amount\n        );\n        stakingTimes[_token].push(maj);\n    }\n}\n",
  "sourcePath": "/home/jb/Projets/TP Defi/truffle/contracts/StackingPool.sol",
  "compiler": {
    "name": "solc",
    "version": "0.8.14+commit.80d49f37.Emscripten.clang"
  },
  "schemaVersion": "3.4.8",
  "updatedAt": "2022-08-05T09:04:07.613Z",
  "devdoc": {
    "kind": "dev",
    "methods": {},
    "version": 1
  },
  "userdoc": {
    "kind": "user",
    "methods": {},
    "version": 1
  }
}