{
  "contractName": "StackingPool",
  "abi": [
    {
      "inputs": [
        {
          "internalType": "address",
          "name": "",
          "type": "address"
        },
        {
          "internalType": "address",
          "name": "",
          "type": "address"
        }
      ],
      "name": "stakers",
      "outputs": [
        {
          "internalType": "uint128",
          "name": "amount",
          "type": "uint128"
        },
        {
          "internalType": "uint256",
          "name": "date",
          "type": "uint256"
        }
      ],
      "stateMutability": "view",
      "type": "function"
    }
  ],
  "bytecode": "0x608060405234801561001057600080fd5b506101f4806100206000396000f3fe608060405234801561001057600080fd5b506004361061002b5760003560e01c8063e8f5063314610030575b600080fd5b61004a60048036038101906100459190610111565b610061565b604051610058929190610195565b60405180910390f35b6000602052816000526040600020602052806000526040600020600091509150508060000160009054906101000a90046fffffffffffffffffffffffffffffffff16908060010154905082565b600080fd5b600073ffffffffffffffffffffffffffffffffffffffff82169050919050565b60006100de826100b3565b9050919050565b6100ee816100d3565b81146100f957600080fd5b50565b60008135905061010b816100e5565b92915050565b60008060408385031215610128576101276100ae565b5b6000610136858286016100fc565b9250506020610147858286016100fc565b9150509250929050565b60006fffffffffffffffffffffffffffffffff82169050919050565b61017681610151565b82525050565b6000819050919050565b61018f8161017c565b82525050565b60006040820190506101aa600083018561016d565b6101b76020830184610186565b939250505056fea26469706673582212200bb18930093b3eec35f4e3401bed92b7d57bd43733f4ef2432f55d0aa7255b1964736f6c634300080e0033",
  "immutableReferences": {},
  "source": "// SPDX-License-Identifier: MIT\r\npragma solidity 0.8.14;\r\n\r\ncontract StackingPool {\r\n    struct Staker {\r\n        uint128 amount; // Amount token stake\r\n        uint256 date; // Date of stake start\r\n    }\r\n    // address token => address Staker => Informations Staker\r\n    mapping(address => mapping(address => Staker)) public stakers;\r\n\r\n    // Save total amount with timestamp\r\n    struct majStackingPool {\r\n        uint256 blockDate;\r\n        uint128 stakingTotalPool;\r\n    }\r\n    //address token => array majStackingPool\r\n    mapping(address => majStackingPool[]) stakingTimes;\r\n\r\n    /**\r\n     * @notice Update Staker Struct when he stake\r\n     * @dev called in function stake\r\n     * @param _amount is the amount to stake\r\n     * @param _token is token address\r\n     */\r\n    function upAmountStaker(uint128 _amount, address _token) internal {\r\n        stakers[_token][msg.sender] = Staker(\r\n            stakers[_token][msg.sender].amount + _amount,\r\n            block.timestamp\r\n        );\r\n    }\r\n\r\n    /**\r\n     * @notice Update Staker Struct when he withdraw\r\n     * @dev called in function withdraw\r\n     * @param _amount is the amount to stake\r\n     * @param _token is token address\r\n     */\r\n    function downAmountStaker(uint128 _amount, address _token) internal {\r\n        stakers[_token][msg.sender] = Staker(\r\n            stakers[_token][msg.sender].amount - _amount,\r\n            block.timestamp\r\n        );\r\n    }\r\n\r\n    /**\r\n     * @notice Update majStackingPool when there is a stake\r\n     * @dev called in function stake\r\n     * @param _amount is the amount to stake\r\n     * @param _token is token address\r\n     */\r\n    function upStackingPool(uint128 _amount, address _token) internal {\r\n        uint128 lastTotalStake;\r\n        if (stakingTimes[_token].length == 0) {\r\n            lastTotalStake = 0;\r\n        } else {\r\n            lastTotalStake = stakingTimes[_token][\r\n                stakingTimes[_token].length - 1\r\n            ].stakingTotalPool;\r\n        }\r\n        majStackingPool memory maj = majStackingPool(\r\n            block.timestamp,\r\n            lastTotalStake + _amount\r\n        );\r\n        stakingTimes[_token].push(maj);\r\n    }\r\n\r\n    /**\r\n     * @notice Update majStackingPool when there is a withdraw\r\n     * @dev called in function withdrawF\r\n     * @param _amount is the amount to stake\r\n     * @param _token is token address\r\n     */\r\n    function downStackingPool(uint128 _amount, address _token) internal {\r\n        uint128 lastTotalStake = stakingTimes[_token][\r\n            stakingTimes[_token].length - 1\r\n        ].stakingTotalPool;\r\n        majStackingPool memory maj = majStackingPool(\r\n            block.timestamp,\r\n            lastTotalStake - _amount\r\n        );\r\n        stakingTimes[_token].push(maj);\r\n    }\r\n}\r\n",
  "sourcePath": "/home/etienne/workspace/tp-defi/truffle/contracts/StackingPool.sol",
  "compiler": {
    "name": "solc",
    "version": "0.8.14+commit.80d49f37.Emscripten.clang"
  },
  "schemaVersion": "3.4.7",
  "updatedAt": "2022-08-06T13:31:19.542Z",
  "devdoc": {
    "kind": "dev",
    "methods": {},
    "version": 1
  },
  "userdoc": {
    "kind": "user",
    "methods": {},
    "version": 1
  }
}