{
  "contractName": "Staking",
  "abi": [
    {
      "anonymous": false,
      "inputs": [
        {
          "indexed": true,
          "internalType": "address",
          "name": "owner",
          "type": "address"
        },
        {
          "indexed": true,
          "internalType": "address",
          "name": "spender",
          "type": "address"
        },
        {
          "indexed": false,
          "internalType": "uint256",
          "name": "value",
          "type": "uint256"
        }
      ],
      "name": "Approval",
      "type": "event"
    },
    {
      "anonymous": false,
      "inputs": [
        {
          "indexed": false,
          "internalType": "address",
          "name": "tokenAddress",
          "type": "address"
        },
        {
          "indexed": false,
          "internalType": "uint256",
          "name": "APR",
          "type": "uint256"
        }
      ],
      "name": "NewPool",
      "type": "event"
    },
    {
      "anonymous": false,
      "inputs": [
        {
          "indexed": true,
          "internalType": "address",
          "name": "previousOwner",
          "type": "address"
        },
        {
          "indexed": true,
          "internalType": "address",
          "name": "newOwner",
          "type": "address"
        }
      ],
      "name": "OwnershipTransferred",
      "type": "event"
    },
    {
      "anonymous": false,
      "inputs": [
        {
          "indexed": false,
          "internalType": "address",
          "name": "sender",
          "type": "address"
        },
        {
          "indexed": false,
          "internalType": "address",
          "name": "tokenAddress",
          "type": "address"
        },
        {
          "indexed": false,
          "internalType": "uint128",
          "name": "amount",
          "type": "uint128"
        },
        {
          "indexed": false,
          "internalType": "uint256",
          "name": "date",
          "type": "uint256"
        }
      ],
      "name": "Stake",
      "type": "event"
    },
    {
      "anonymous": false,
      "inputs": [
        {
          "indexed": false,
          "internalType": "address",
          "name": "tokenAddress",
          "type": "address"
        },
        {
          "indexed": false,
          "internalType": "uint256",
          "name": "date",
          "type": "uint256"
        }
      ],
      "name": "StopPool",
      "type": "event"
    },
    {
      "anonymous": false,
      "inputs": [
        {
          "indexed": true,
          "internalType": "address",
          "name": "from",
          "type": "address"
        },
        {
          "indexed": true,
          "internalType": "address",
          "name": "to",
          "type": "address"
        },
        {
          "indexed": false,
          "internalType": "uint256",
          "name": "value",
          "type": "uint256"
        }
      ],
      "name": "Transfer",
      "type": "event"
    },
    {
      "anonymous": false,
      "inputs": [
        {
          "indexed": false,
          "internalType": "address",
          "name": "sender",
          "type": "address"
        },
        {
          "indexed": false,
          "internalType": "address",
          "name": "tokenAddress",
          "type": "address"
        },
        {
          "indexed": false,
          "internalType": "uint128",
          "name": "amount",
          "type": "uint128"
        },
        {
          "indexed": false,
          "internalType": "uint256",
          "name": "date",
          "type": "uint256"
        }
      ],
      "name": "Unstake",
      "type": "event"
    },
    {
      "inputs": [
        {
          "internalType": "address",
          "name": "owner",
          "type": "address"
        },
        {
          "internalType": "address",
          "name": "spender",
          "type": "address"
        }
      ],
      "name": "allowance",
      "outputs": [
        {
          "internalType": "uint256",
          "name": "",
          "type": "uint256"
        }
      ],
      "stateMutability": "view",
      "type": "function",
      "constant": true
    },
    {
      "inputs": [
        {
          "internalType": "address",
          "name": "spender",
          "type": "address"
        },
        {
          "internalType": "uint256",
          "name": "amount",
          "type": "uint256"
        }
      ],
      "name": "approve",
      "outputs": [
        {
          "internalType": "bool",
          "name": "",
          "type": "bool"
        }
      ],
      "stateMutability": "nonpayable",
      "type": "function"
    },
    {
      "inputs": [
        {
          "internalType": "address",
          "name": "account",
          "type": "address"
        }
      ],
      "name": "balanceOf",
      "outputs": [
        {
          "internalType": "uint256",
          "name": "",
          "type": "uint256"
        }
      ],
      "stateMutability": "view",
      "type": "function",
      "constant": true
    },
    {
      "inputs": [],
      "name": "decimals",
      "outputs": [
        {
          "internalType": "uint8",
          "name": "",
          "type": "uint8"
        }
      ],
      "stateMutability": "view",
      "type": "function",
      "constant": true
    },
    {
      "inputs": [
        {
          "internalType": "address",
          "name": "spender",
          "type": "address"
        },
        {
          "internalType": "uint256",
          "name": "subtractedValue",
          "type": "uint256"
        }
      ],
      "name": "decreaseAllowance",
      "outputs": [
        {
          "internalType": "bool",
          "name": "",
          "type": "bool"
        }
      ],
      "stateMutability": "nonpayable",
      "type": "function"
    },
    {
      "inputs": [
        {
          "internalType": "address",
          "name": "spender",
          "type": "address"
        },
        {
          "internalType": "uint256",
          "name": "addedValue",
          "type": "uint256"
        }
      ],
      "name": "increaseAllowance",
      "outputs": [
        {
          "internalType": "bool",
          "name": "",
          "type": "bool"
        }
      ],
      "stateMutability": "nonpayable",
      "type": "function"
    },
    {
      "inputs": [],
      "name": "name",
      "outputs": [
        {
          "internalType": "string",
          "name": "",
          "type": "string"
        }
      ],
      "stateMutability": "view",
      "type": "function",
      "constant": true
    },
    {
      "inputs": [],
      "name": "owner",
      "outputs": [
        {
          "internalType": "address",
          "name": "",
          "type": "address"
        }
      ],
      "stateMutability": "view",
      "type": "function",
      "constant": true
    },
    {
      "inputs": [],
      "name": "renounceOwnership",
      "outputs": [],
      "stateMutability": "nonpayable",
      "type": "function"
    },
    {
      "inputs": [
        {
          "internalType": "address",
          "name": "",
          "type": "address"
        },
        {
          "internalType": "uint256",
          "name": "",
          "type": "uint256"
        }
      ],
      "name": "stakingTimes",
      "outputs": [
        {
          "internalType": "uint256",
          "name": "blockDate",
          "type": "uint256"
        },
        {
          "internalType": "uint128",
          "name": "stakingTotalPool",
          "type": "uint128"
        }
      ],
      "stateMutability": "view",
      "type": "function",
      "constant": true
    },
    {
      "inputs": [],
      "name": "symbol",
      "outputs": [
        {
          "internalType": "string",
          "name": "",
          "type": "string"
        }
      ],
      "stateMutability": "view",
      "type": "function",
      "constant": true
    },
    {
      "inputs": [],
      "name": "totalSupply",
      "outputs": [
        {
          "internalType": "uint256",
          "name": "",
          "type": "uint256"
        }
      ],
      "stateMutability": "view",
      "type": "function",
      "constant": true
    },
    {
      "inputs": [
        {
          "internalType": "address",
          "name": "to",
          "type": "address"
        },
        {
          "internalType": "uint256",
          "name": "amount",
          "type": "uint256"
        }
      ],
      "name": "transfer",
      "outputs": [
        {
          "internalType": "bool",
          "name": "",
          "type": "bool"
        }
      ],
      "stateMutability": "nonpayable",
      "type": "function"
    },
    {
      "inputs": [
        {
          "internalType": "address",
          "name": "from",
          "type": "address"
        },
        {
          "internalType": "address",
          "name": "to",
          "type": "address"
        },
        {
          "internalType": "uint256",
          "name": "amount",
          "type": "uint256"
        }
      ],
      "name": "transferFrom",
      "outputs": [
        {
          "internalType": "bool",
          "name": "",
          "type": "bool"
        }
      ],
      "stateMutability": "nonpayable",
      "type": "function"
    },
    {
      "inputs": [
        {
          "internalType": "address",
          "name": "newOwner",
          "type": "address"
        }
      ],
      "name": "transferOwnership",
      "outputs": [],
      "stateMutability": "nonpayable",
      "type": "function"
    },
    {
      "inputs": [
        {
          "internalType": "address",
          "name": "_token",
          "type": "address"
        },
        {
          "internalType": "uint128",
          "name": "_apr",
          "type": "uint128"
        },
        {
          "internalType": "address",
          "name": "_addressPrice",
          "type": "address"
        }
      ],
      "name": "addPool",
      "outputs": [],
      "stateMutability": "nonpayable",
      "type": "function"
    },
    {
      "inputs": [
        {
          "internalType": "address",
          "name": "_token",
          "type": "address"
        }
      ],
      "name": "stopPool",
      "outputs": [],
      "stateMutability": "nonpayable",
      "type": "function"
    },
    {
      "inputs": [
        {
          "internalType": "uint128",
          "name": "_amount",
          "type": "uint128"
        },
        {
          "internalType": "address",
          "name": "_token",
          "type": "address"
        }
      ],
      "name": "stake",
      "outputs": [],
      "stateMutability": "nonpayable",
      "type": "function"
    },
    {
      "inputs": [
        {
          "internalType": "uint128",
          "name": "_amount",
          "type": "uint128"
        },
        {
          "internalType": "address",
          "name": "_token",
          "type": "address"
        }
      ],
      "name": "addStake",
      "outputs": [],
      "stateMutability": "nonpayable",
      "type": "function"
    },
    {
      "inputs": [
        {
          "internalType": "uint128",
          "name": "_amount",
          "type": "uint128"
        },
        {
          "internalType": "address",
          "name": "_token",
          "type": "address"
        }
      ],
      "name": "withdraw",
      "outputs": [],
      "stateMutability": "nonpayable",
      "type": "function"
    },
    {
      "inputs": [
        {
          "internalType": "address",
          "name": "_token",
          "type": "address"
        }
      ],
      "name": "calculateReward",
      "outputs": [
        {
          "internalType": "uint256",
          "name": "",
          "type": "uint256"
        }
      ],
      "stateMutability": "view",
      "type": "function",
      "constant": true
    },
    {
      "inputs": [
        {
          "internalType": "address",
          "name": "_token",
          "type": "address"
        }
      ],
      "name": "claimRewards",
      "outputs": [],
      "stateMutability": "nonpayable",
      "type": "function"
    },
    {
      "inputs": [
        {
          "internalType": "address",
          "name": "_token",
          "type": "address"
        }
      ],
      "name": "getStaking",
      "outputs": [
        {
          "internalType": "uint256",
          "name": "",
          "type": "uint256"
        }
      ],
      "stateMutability": "view",
      "type": "function",
      "constant": true
    },
    {
      "inputs": [
        {
          "internalType": "address",
          "name": "_token",
          "type": "address"
        }
      ],
      "name": "isStaker",
      "outputs": [
        {
          "internalType": "bool",
          "name": "",
          "type": "bool"
        }
      ],
      "stateMutability": "view",
      "type": "function",
      "constant": true
    },
    {
      "inputs": [
        {
          "internalType": "address",
          "name": "_token",
          "type": "address"
        }
      ],
      "name": "getTotalStaking",
      "outputs": [
        {
          "internalType": "uint256",
          "name": "",
          "type": "uint256"
        }
      ],
      "stateMutability": "view",
      "type": "function",
      "constant": true
    }
  ],
  "bytecode": "0x608060405260016006553480156200001657600080fd5b506040518060400160405280600681526020017f43726f77645600000000000000000000000000000000000000000000000000008152506040518060400160405280600481526020017f4352445600000000000000000000000000000000000000000000000000000000815250620000a362000097620000dd60201b60201c565b620000e560201b60201c565b8160049080519060200190620000bb929190620001a9565b508060059080519060200190620000d4929190620001a9565b505050620002bd565b600033905090565b60008060009054906101000a900473ffffffffffffffffffffffffffffffffffffffff169050816000806101000a81548173ffffffffffffffffffffffffffffffffffffffff021916908373ffffffffffffffffffffffffffffffffffffffff1602179055508173ffffffffffffffffffffffffffffffffffffffff168173ffffffffffffffffffffffffffffffffffffffff167f8be0079c531659141344cd1fd0a4f28419497f9722a3daafe3b4186f6b6457e060405160405180910390a35050565b828054620001b79062000288565b90600052602060002090601f016020900481019282620001db576000855562000227565b82601f10620001f657805160ff191683800117855562000227565b8280016001018555821562000227579182015b828111156200022657825182559160200191906001019062000209565b5b5090506200023691906200023a565b5090565b5b80821115620002555760008160009055506001016200023b565b5090565b7f4e487b7100000000000000000000000000000000000000000000000000000000600052602260045260246000fd5b60006002820490506001821680620002a157607f821691505b602082108103620002b757620002b662000259565b5b50919050565b61487680620002cd6000396000f3fe608060405234801561001057600080fd5b50600436106101735760003560e01c806370a08231116100de578063a457c2d711610097578063d82e396211610071578063d82e396214610485578063dd62ed3e146104b5578063ef5cfb8c146104e5578063f2fde38b1461050157610173565b8063a457c2d714610409578063a9059cbb14610439578063b166dfdd1461046957610173565b806370a0823114610347578063715018a61461037757806377cff6cf146103815780637ae15a731461039d5780638da5cb5b146103cd57806395d89b41146103eb57610173565b806323b872dd1161013057806323b872dd1461024c5780632bf8f7561461027c578063313ce5671461029857806339509351146102b65780636f005df3146102e65780636f1e85331461031757610173565b806306fdde0314610178578063095ea7b31461019657806311c88633146101c6578063156e28b8146101f657806318160ddd146102125780631d9b078314610230575b600080fd5b61018061051d565b60405161018d91906135f4565b60405180910390f35b6101b060048036038101906101ab91906136af565b6105af565b6040516101bd919061370a565b60405180910390f35b6101e060048036038101906101db9190613725565b6105d2565b6040516101ed9190613761565b60405180910390f35b610210600480360381019061020b9190613725565b610689565b005b61021a6107fe565b6040516102279190613761565b60405180910390f35b61024a600480360381019061024591906137c4565b610808565b005b61026660048036038101906102619190613804565b610e0f565b604051610273919061370a565b60405180910390f35b61029660048036038101906102919190613857565b610e3e565b005b6102a0611069565b6040516102ad91906138c6565b60405180910390f35b6102d060048036038101906102cb91906136af565b611072565b6040516102dd919061370a565b60405180910390f35b61030060048036038101906102fb91906136af565b6110a9565b60405161030e9291906138f0565b60405180910390f35b610331600480360381019061032c9190613725565b611106565b60405161033e919061370a565b60405180910390f35b610361600480360381019061035c9190613725565b6111d0565b60405161036e9190613761565b60405180910390f35b61037f611219565b005b61039b600480360381019061039691906137c4565b61122d565b005b6103b760048036038101906103b29190613725565b611734565b6040516103c49190613761565b60405180910390f35b6103d56117ae565b6040516103e29190613928565b60405180910390f35b6103f36117d7565b60405161040091906135f4565b60405180910390f35b610423600480360381019061041e91906136af565b611869565b604051610430919061370a565b60405180910390f35b610453600480360381019061044e91906136af565b6118e0565b604051610460919061370a565b60405180910390f35b610483600480360381019061047e91906137c4565b611903565b005b61049f600480360381019061049a9190613725565b611e11565b6040516104ac9190613761565b60405180910390f35b6104cf60048036038101906104ca9190613943565b612b4b565b6040516104dc9190613761565b60405180910390f35b6104ff60048036038101906104fa9190613725565b612bd2565b005b61051b60048036038101906105169190613725565b612cc6565b005b60606004805461052c906139b2565b80601f0160208091040260200160405190810160405280929190818152602001828054610558906139b2565b80156105a55780601f1061057a576101008083540402835291602001916105a5565b820191906000526020600020905b81548152906001019060200180831161058857829003601f168201915b5050505050905090565b6000806105ba612d49565b90506105c7818585612d51565b600191505092915050565b6000600860008373ffffffffffffffffffffffffffffffffffffffff1673ffffffffffffffffffffffffffffffffffffffff16815260200190815260200160002060003373ffffffffffffffffffffffffffffffffffffffff1673ffffffffffffffffffffffffffffffffffffffff16815260200190815260200160002060000160009054906101000a90046fffffffffffffffffffffffffffffffff166fffffffffffffffffffffffffffffffff169050919050565b610691612f1a565b600760008273ffffffffffffffffffffffffffffffffffffffff1673ffffffffffffffffffffffffffffffffffffffff16815260200190815260200160002060000160009054906101000a900460ff16610720576040517f08c379a000000000000000000000000000000000000000000000000000000000815260040161071790613a55565b60405180910390fd5b6000600760008373ffffffffffffffffffffffffffffffffffffffff1673ffffffffffffffffffffffffffffffffffffffff16815260200190815260200160002060000160006101000a81548160ff02191690831515021790555042600760008373ffffffffffffffffffffffffffffffffffffffff1673ffffffffffffffffffffffffffffffffffffffff168152602001908152602001600020600101819055507f95900bd9ba2e434a9f276313d71b4c06e0ca09327777b54984808188444a14d481426040516107f3929190613a75565b60405180910390a150565b6000600354905090565b61081181611106565b610850576040517f08c379a000000000000000000000000000000000000000000000000000000000815260040161084790613aea565b60405180910390fd5b6000826fffffffffffffffffffffffffffffffff16116108a5576040517f08c379a000000000000000000000000000000000000000000000000000000000815260040161089c90613b7c565b60405180910390fd5b600860008273ffffffffffffffffffffffffffffffffffffffff1673ffffffffffffffffffffffffffffffffffffffff16815260200190815260200160002060003373ffffffffffffffffffffffffffffffffffffffff1673ffffffffffffffffffffffffffffffffffffffff16815260200190815260200160002060000160009054906101000a90046fffffffffffffffffffffffffffffffff166fffffffffffffffffffffffffffffffff16826fffffffffffffffffffffffffffffffff1610156109a7576040517f08c379a000000000000000000000000000000000000000000000000000000000815260040161099e90613c0e565b60405180910390fd5b600760008273ffffffffffffffffffffffffffffffffffffffff1673ffffffffffffffffffffffffffffffffffffffff16815260200190815260200160002060000160009054906101000a900460ff16610a36576040517f08c379a0000000000000000000000000000000000000000000000000000000008152600401610a2d90613c7a565b60405180910390fd5b60008173ffffffffffffffffffffffffffffffffffffffff1663a9059cbb33856040518363ffffffff1660e01b8152600401610a73929190613cd5565b6020604051808303816000875af1158015610a92573d6000803e3d6000fd5b505050506040513d601f19601f82011682018060405250810190610ab69190613d2a565b905080610af8576040517f08c379a0000000000000000000000000000000000000000000000000000000008152600401610aef90613da3565b60405180910390fd5b610b0182612bd2565b82600860008473ffffffffffffffffffffffffffffffffffffffff1673ffffffffffffffffffffffffffffffffffffffff16815260200190815260200160002060003373ffffffffffffffffffffffffffffffffffffffff1673ffffffffffffffffffffffffffffffffffffffff16815260200190815260200160002060000160008282829054906101000a90046fffffffffffffffffffffffffffffffff16610bab9190613df2565b92506101000a8154816fffffffffffffffffffffffffffffffff02191690836fffffffffffffffffffffffffffffffff1602179055506000604051806040016040528042815260200185600760008773ffffffffffffffffffffffffffffffffffffffff1673ffffffffffffffffffffffffffffffffffffffff16815260200190815260200160002060020160109054906101000a90046fffffffffffffffffffffffffffffffff16610c5e9190613df2565b6fffffffffffffffffffffffffffffffff168152509050600960008473ffffffffffffffffffffffffffffffffffffffff1673ffffffffffffffffffffffffffffffffffffffff1681526020019081526020016000208190806001815401808255809150506001900390600052602060002090600202016000909190919091506000820151816000015560208201518160010160006101000a8154816fffffffffffffffffffffffffffffffff02191690836fffffffffffffffffffffffffffffffff160217905550505083600760008573ffffffffffffffffffffffffffffffffffffffff1673ffffffffffffffffffffffffffffffffffffffff16815260200190815260200160002060020160108282829054906101000a90046fffffffffffffffffffffffffffffffff16610d969190613df2565b92506101000a8154816fffffffffffffffffffffffffffffffff02191690836fffffffffffffffffffffffffffffffff1602179055507fbd791e6972e4060b94df68a5b4f17c30ebc1dc2a05086ce163bf93ccf08f41f333848642604051610e019493929190613e26565b60405180910390a150505050565b600080610e1a612d49565b9050610e27858285612f98565b610e32858585613024565b60019150509392505050565b610e46612f1a565b600760008473ffffffffffffffffffffffffffffffffffffffff1673ffffffffffffffffffffffffffffffffffffffff16815260200190815260200160002060000160009054906101000a900460ff1615610ed6576040517f08c379a0000000000000000000000000000000000000000000000000000000008152600401610ecd90613eb7565b60405180910390fd5b6001600760008573ffffffffffffffffffffffffffffffffffffffff1673ffffffffffffffffffffffffffffffffffffffff16815260200190815260200160002060000160006101000a81548160ff02191690831515021790555081600760008573ffffffffffffffffffffffffffffffffffffffff1673ffffffffffffffffffffffffffffffffffffffff16815260200190815260200160002060020160006101000a8154816fffffffffffffffffffffffffffffffff02191690836fffffffffffffffffffffffffffffffff16021790555080600760008573ffffffffffffffffffffffffffffffffffffffff1673ffffffffffffffffffffffffffffffffffffffff16815260200190815260200160002060000160016101000a81548173ffffffffffffffffffffffffffffffffffffffff021916908373ffffffffffffffffffffffffffffffffffffffff1602179055507fbe4222bc407cb12031595fc55b46531e46308d31e4572c9c4360d8ae790e1a31838360405161105c929190613cd5565b60405180910390a1505050565b60006012905090565b60008061107d612d49565b905061109e81858561108f8589612b4b565b6110999190613ed7565b612d51565b600191505092915050565b600960205281600052604060002081815481106110c557600080fd5b9060005260206000209060020201600091509150508060000154908060010160009054906101000a90046fffffffffffffffffffffffffffffffff16905082565b600080600860008473ffffffffffffffffffffffffffffffffffffffff1673ffffffffffffffffffffffffffffffffffffffff16815260200190815260200160002060003373ffffffffffffffffffffffffffffffffffffffff1673ffffffffffffffffffffffffffffffffffffffff16815260200190815260200160002060000160009054906101000a90046fffffffffffffffffffffffffffffffff166fffffffffffffffffffffffffffffffff1611156111c657600190506111cb565b600090505b919050565b6000600160008373ffffffffffffffffffffffffffffffffffffffff1673ffffffffffffffffffffffffffffffffffffffff168152602001908152602001600020549050919050565b611221612f1a565b61122b60006132a6565b565b61123681611106565b611275576040517f08c379a000000000000000000000000000000000000000000000000000000000815260040161126c90613aea565b60405180910390fd5b6000826fffffffffffffffffffffffffffffffff16116112ca576040517f08c379a00000000000000000000000000000000000000000000000000000000081526004016112c190613b7c565b60405180910390fd5b600760008273ffffffffffffffffffffffffffffffffffffffff1673ffffffffffffffffffffffffffffffffffffffff16815260200190815260200160002060000160009054906101000a900460ff16611359576040517f08c379a000000000000000000000000000000000000000000000000000000000815260040161135090613c7a565b60405180910390fd5b60008173ffffffffffffffffffffffffffffffffffffffff166323b872dd3330866040518463ffffffff1660e01b815260040161139893929190613f2d565b6020604051808303816000875af11580156113b7573d6000803e3d6000fd5b505050506040513d601f19601f820116820180604052508101906113db9190613d2a565b90508061141d576040517f08c379a000000000000000000000000000000000000000000000000000000000815260040161141490613da3565b60405180910390fd5b82600860008473ffffffffffffffffffffffffffffffffffffffff1673ffffffffffffffffffffffffffffffffffffffff16815260200190815260200160002060003373ffffffffffffffffffffffffffffffffffffffff1673ffffffffffffffffffffffffffffffffffffffff16815260200190815260200160002060000160008282829054906101000a90046fffffffffffffffffffffffffffffffff166114c79190613f64565b92506101000a8154816fffffffffffffffffffffffffffffffff02191690836fffffffffffffffffffffffffffffffff1602179055506000604051806040016040528042815260200185600760008773ffffffffffffffffffffffffffffffffffffffff1673ffffffffffffffffffffffffffffffffffffffff16815260200190815260200160002060020160109054906101000a90046fffffffffffffffffffffffffffffffff1661157a9190613f64565b6fffffffffffffffffffffffffffffffff168152509050600960008473ffffffffffffffffffffffffffffffffffffffff1673ffffffffffffffffffffffffffffffffffffffff1681526020019081526020016000208190806001815401808255809150506001900390600052602060002090600202016000909190919091506000820151816000015560208201518160010160006101000a8154816fffffffffffffffffffffffffffffffff02191690836fffffffffffffffffffffffffffffffff160217905550505083600760008573ffffffffffffffffffffffffffffffffffffffff1673ffffffffffffffffffffffffffffffffffffffff16815260200190815260200160002060020160108282829054906101000a90046fffffffffffffffffffffffffffffffff166116b29190613f64565b92506101000a8154816fffffffffffffffffffffffffffffffff02191690836fffffffffffffffffffffffffffffffff1602179055506116f183612bd2565b7f1668de67314c72bac0de03c24eeecb3c305dc4cdf055be48782f2c7a09bc39ca338486426040516117269493929190613e26565b60405180910390a150505050565b6000600760008373ffffffffffffffffffffffffffffffffffffffff1673ffffffffffffffffffffffffffffffffffffffff16815260200190815260200160002060020160109054906101000a90046fffffffffffffffffffffffffffffffff166fffffffffffffffffffffffffffffffff169050919050565b60008060009054906101000a900473ffffffffffffffffffffffffffffffffffffffff16905090565b6060600580546117e6906139b2565b80601f0160208091040260200160405190810160405280929190818152602001828054611812906139b2565b801561185f5780601f106118345761010080835404028352916020019161185f565b820191906000526020600020905b81548152906001019060200180831161184257829003601f168201915b5050505050905090565b600080611874612d49565b905060006118828286612b4b565b9050838110156118c7576040517f08c379a00000000000000000000000000000000000000000000000000000000081526004016118be9061401c565b60405180910390fd5b6118d48286868403612d51565b60019250505092915050565b6000806118eb612d49565b90506118f8818585613024565b600191505092915050565b61190c81611106565b1561194c576040517f08c379a000000000000000000000000000000000000000000000000000000000815260040161194390614088565b60405180910390fd5b6000826fffffffffffffffffffffffffffffffff16116119a1576040517f08c379a000000000000000000000000000000000000000000000000000000000815260040161199890613b7c565b60405180910390fd5b600760008273ffffffffffffffffffffffffffffffffffffffff1673ffffffffffffffffffffffffffffffffffffffff16815260200190815260200160002060000160009054906101000a900460ff16611a30576040517f08c379a0000000000000000000000000000000000000000000000000000000008152600401611a2790613c7a565b60405180910390fd5b60008173ffffffffffffffffffffffffffffffffffffffff166323b872dd3330866040518463ffffffff1660e01b8152600401611a6f93929190613f2d565b6020604051808303816000875af1158015611a8e573d6000803e3d6000fd5b505050506040513d601f19601f82011682018060405250810190611ab29190613d2a565b905080611af4576040517f08c379a0000000000000000000000000000000000000000000000000000000008152600401611aeb90613da3565b60405180910390fd5b6040518060400160405280846fffffffffffffffffffffffffffffffff16815260200142815250600860008473ffffffffffffffffffffffffffffffffffffffff1673ffffffffffffffffffffffffffffffffffffffff16815260200190815260200160002060003373ffffffffffffffffffffffffffffffffffffffff1673ffffffffffffffffffffffffffffffffffffffff16815260200190815260200160002060008201518160000160006101000a8154816fffffffffffffffffffffffffffffffff02191690836fffffffffffffffffffffffffffffffff160217905550602082015181600101559050506000604051806040016040528042815260200185600760008773ffffffffffffffffffffffffffffffffffffffff1673ffffffffffffffffffffffffffffffffffffffff16815260200190815260200160002060020160109054906101000a90046fffffffffffffffffffffffffffffffff16611c609190613f64565b6fffffffffffffffffffffffffffffffff168152509050600960008473ffffffffffffffffffffffffffffffffffffffff1673ffffffffffffffffffffffffffffffffffffffff1681526020019081526020016000208190806001815401808255809150506001900390600052602060002090600202016000909190919091506000820151816000015560208201518160010160006101000a8154816fffffffffffffffffffffffffffffffff02191690836fffffffffffffffffffffffffffffffff160217905550505083600760008573ffffffffffffffffffffffffffffffffffffffff1673ffffffffffffffffffffffffffffffffffffffff16815260200190815260200160002060020160108282829054906101000a90046fffffffffffffffffffffffffffffffff16611d989190613f64565b92506101000a8154816fffffffffffffffffffffffffffffffff02191690836fffffffffffffffffffffffffffffffff1602179055507f1668de67314c72bac0de03c24eeecb3c305dc4cdf055be48782f2c7a09bc39ca33848642604051611e039493929190613e26565b60405180910390a150505050565b6000611e1c82611106565b611e5b576040517f08c379a0000000000000000000000000000000000000000000000000000000008152600401611e5290613aea565b60405180910390fd5b6000611ec8600760008573ffffffffffffffffffffffffffffffffffffffff1673ffffffffffffffffffffffffffffffffffffffff16815260200190815260200160002060000160019054906101000a900473ffffffffffffffffffffffffffffffffffffffff1661336a565b905060006301e133806305f5e100600760008773ffffffffffffffffffffffffffffffffffffffff1673ffffffffffffffffffffffffffffffffffffffff16815260200190815260200160002060020160009054906101000a90046fffffffffffffffffffffffffffffffff16611f3f91906140a8565b611f499190614121565b6fffffffffffffffffffffffffffffffff169050600080600960008773ffffffffffffffffffffffffffffffffffffffff1673ffffffffffffffffffffffffffffffffffffffff168152602001908152602001600020805490509050600080600090505b828110156120b457600860008973ffffffffffffffffffffffffffffffffffffffff1673ffffffffffffffffffffffffffffffffffffffff16815260200190815260200160002060003373ffffffffffffffffffffffffffffffffffffffff1673ffffffffffffffffffffffffffffffffffffffff16815260200190815260200160002060010154600960008a73ffffffffffffffffffffffffffffffffffffffff1673ffffffffffffffffffffffffffffffffffffffff168152602001908152602001600020828154811061208657612085614152565b5b906000526020600020906002020160000154036120a1578091505b80806120ac90614181565b915050611fad565b50600760008873ffffffffffffffffffffffffffffffffffffffff1673ffffffffffffffffffffffffffffffffffffffff16815260200190815260200160002060000160009054906101000a900460ff16156125d957600182036121af57600860008873ffffffffffffffffffffffffffffffffffffffff1673ffffffffffffffffffffffffffffffffffffffff16815260200190815260200160002060003373ffffffffffffffffffffffffffffffffffffffff1673ffffffffffffffffffffffffffffffffffffffff168152602001908152602001600020600101544261219d91906141c9565b836121a89190613ed7565b92506125d4565b60008190505b6001836121c291906141c9565b81101561241857600960008973ffffffffffffffffffffffffffffffffffffffff1673ffffffffffffffffffffffffffffffffffffffff168152602001908152602001600020818154811061221a57612219614152565b5b906000526020600020906002020160010160009054906101000a90046fffffffffffffffffffffffffffffffff166fffffffffffffffffffffffffffffffff16600860008a73ffffffffffffffffffffffffffffffffffffffff1673ffffffffffffffffffffffffffffffffffffffff16815260200190815260200160002060003373ffffffffffffffffffffffffffffffffffffffff1673ffffffffffffffffffffffffffffffffffffffff16815260200190815260200160002060000160009054906101000a90046fffffffffffffffffffffffffffffffff166fffffffffffffffffffffffffffffffff16600960008b73ffffffffffffffffffffffffffffffffffffffff1673ffffffffffffffffffffffffffffffffffffffff168152602001908152602001600020838154811061235957612358614152565b5b906000526020600020906002020160000154600960008c73ffffffffffffffffffffffffffffffffffffffff1673ffffffffffffffffffffffffffffffffffffffff1681526020019081526020016000206001856123b79190613ed7565b815481106123c8576123c7614152565b5b9060005260206000209060020201600001546123e491906141c9565b6123ee91906141fd565b6123f89190614257565b846124039190613ed7565b9350808061241090614181565b9150506121b5565b50600760008873ffffffffffffffffffffffffffffffffffffffff1673ffffffffffffffffffffffffffffffffffffffff16815260200190815260200160002060020160109054906101000a90046fffffffffffffffffffffffffffffffff166fffffffffffffffffffffffffffffffff16600860008973ffffffffffffffffffffffffffffffffffffffff1673ffffffffffffffffffffffffffffffffffffffff16815260200190815260200160002060003373ffffffffffffffffffffffffffffffffffffffff1673ffffffffffffffffffffffffffffffffffffffff16815260200190815260200160002060000160009054906101000a90046fffffffffffffffffffffffffffffffff166fffffffffffffffffffffffffffffffff16600960008a73ffffffffffffffffffffffffffffffffffffffff1673ffffffffffffffffffffffffffffffffffffffff16815260200190815260200160002060018561258491906141c9565b8154811061259557612594614152565b5b906000526020600020906002020160000154426125b291906141c9565b6125bc91906141fd565b6125c69190614257565b836125d19190613ed7565b92505b612b28565b600182036126c057600860008873ffffffffffffffffffffffffffffffffffffffff1673ffffffffffffffffffffffffffffffffffffffff16815260200190815260200160002060003373ffffffffffffffffffffffffffffffffffffffff1673ffffffffffffffffffffffffffffffffffffffff16815260200190815260200160002060010154600760008973ffffffffffffffffffffffffffffffffffffffff1673ffffffffffffffffffffffffffffffffffffffff168152602001908152602001600020600101546126ae91906141c9565b836126b99190613ed7565b9250612b27565b60008190505b6001836126d391906141c9565b81101561292957600960008973ffffffffffffffffffffffffffffffffffffffff1673ffffffffffffffffffffffffffffffffffffffff168152602001908152602001600020818154811061272b5761272a614152565b5b906000526020600020906002020160010160009054906101000a90046fffffffffffffffffffffffffffffffff166fffffffffffffffffffffffffffffffff16600860008a73ffffffffffffffffffffffffffffffffffffffff1673ffffffffffffffffffffffffffffffffffffffff16815260200190815260200160002060003373ffffffffffffffffffffffffffffffffffffffff1673ffffffffffffffffffffffffffffffffffffffff16815260200190815260200160002060000160009054906101000a90046fffffffffffffffffffffffffffffffff166fffffffffffffffffffffffffffffffff16600960008b73ffffffffffffffffffffffffffffffffffffffff1673ffffffffffffffffffffffffffffffffffffffff168152602001908152602001600020838154811061286a57612869614152565b5b906000526020600020906002020160000154600960008c73ffffffffffffffffffffffffffffffffffffffff1673ffffffffffffffffffffffffffffffffffffffff1681526020019081526020016000206001856128c89190613ed7565b815481106128d9576128d8614152565b5b9060005260206000209060020201600001546128f591906141c9565b6128ff91906141fd565b6129099190614257565b846129149190613ed7565b9350808061292190614181565b9150506126c6565b50600760008873ffffffffffffffffffffffffffffffffffffffff1673ffffffffffffffffffffffffffffffffffffffff16815260200190815260200160002060020160109054906101000a90046fffffffffffffffffffffffffffffffff166fffffffffffffffffffffffffffffffff16600860008973ffffffffffffffffffffffffffffffffffffffff1673ffffffffffffffffffffffffffffffffffffffff16815260200190815260200160002060003373ffffffffffffffffffffffffffffffffffffffff1673ffffffffffffffffffffffffffffffffffffffff16815260200190815260200160002060000160009054906101000a90046fffffffffffffffffffffffffffffffff166fffffffffffffffffffffffffffffffff16600960008a73ffffffffffffffffffffffffffffffffffffffff1673ffffffffffffffffffffffffffffffffffffffff168152602001908152602001600020600185612a9591906141c9565b81548110612aa657612aa5614152565b5b906000526020600020906002020160000154600760008b73ffffffffffffffffffffffffffffffffffffffff1673ffffffffffffffffffffffffffffffffffffffff16815260200190815260200160002060010154612b0591906141c9565b612b0f91906141fd565b612b199190614257565b83612b249190613ed7565b92505b5b838584612b3591906141fd565b612b3f91906141fd565b95505050505050919050565b6000600260008473ffffffffffffffffffffffffffffffffffffffff1673ffffffffffffffffffffffffffffffffffffffff16815260200190815260200160002060008373ffffffffffffffffffffffffffffffffffffffff1673ffffffffffffffffffffffffffffffffffffffff16815260200190815260200160002054905092915050565b612bdb81611106565b612c1a576040517f08c379a0000000000000000000000000000000000000000000000000000000008152600401612c1190613aea565b60405180910390fd5b6000600654612c2883611e11565b612c329190614257565b905042600860008473ffffffffffffffffffffffffffffffffffffffff1673ffffffffffffffffffffffffffffffffffffffff16815260200190815260200160002060003373ffffffffffffffffffffffffffffffffffffffff1673ffffffffffffffffffffffffffffffffffffffff16815260200190815260200160002060010181905550612cc233826133f1565b5050565b612cce612f1a565b600073ffffffffffffffffffffffffffffffffffffffff168173ffffffffffffffffffffffffffffffffffffffff1603612d3d576040517f08c379a0000000000000000000000000000000000000000000000000000000008152600401612d34906142fa565b60405180910390fd5b612d46816132a6565b50565b600033905090565b600073ffffffffffffffffffffffffffffffffffffffff168373ffffffffffffffffffffffffffffffffffffffff1603612dc0576040517f08c379a0000000000000000000000000000000000000000000000000000000008152600401612db79061438c565b60405180910390fd5b600073ffffffffffffffffffffffffffffffffffffffff168273ffffffffffffffffffffffffffffffffffffffff1603612e2f576040517f08c379a0000000000000000000000000000000000000000000000000000000008152600401612e269061441e565b60405180910390fd5b80600260008573ffffffffffffffffffffffffffffffffffffffff1673ffffffffffffffffffffffffffffffffffffffff16815260200190815260200160002060008473ffffffffffffffffffffffffffffffffffffffff1673ffffffffffffffffffffffffffffffffffffffff168152602001908152602001600020819055508173ffffffffffffffffffffffffffffffffffffffff168373ffffffffffffffffffffffffffffffffffffffff167f8c5be1e5ebec7d5bd14f71427d1e84f3dd0314c0f7b2291e5b200ac8c7c3b92583604051612f0d9190613761565b60405180910390a3505050565b612f22612d49565b73ffffffffffffffffffffffffffffffffffffffff16612f406117ae565b73ffffffffffffffffffffffffffffffffffffffff1614612f96576040517f08c379a0000000000000000000000000000000000000000000000000000000008152600401612f8d9061448a565b60405180910390fd5b565b6000612fa48484612b4b565b90507fffffffffffffffffffffffffffffffffffffffffffffffffffffffffffffffff811461301e5781811015613010576040517f08c379a0000000000000000000000000000000000000000000000000000000008152600401613007906144f6565b60405180910390fd5b61301d8484848403612d51565b5b50505050565b600073ffffffffffffffffffffffffffffffffffffffff168373ffffffffffffffffffffffffffffffffffffffff1603613093576040517f08c379a000000000000000000000000000000000000000000000000000000000815260040161308a90614588565b60405180910390fd5b600073ffffffffffffffffffffffffffffffffffffffff168273ffffffffffffffffffffffffffffffffffffffff1603613102576040517f08c379a00000000000000000000000000000000000000000000000000000000081526004016130f99061461a565b60405180910390fd5b61310d838383613551565b6000600160008573ffffffffffffffffffffffffffffffffffffffff1673ffffffffffffffffffffffffffffffffffffffff16815260200190815260200160002054905081811015613194576040517f08c379a000000000000000000000000000000000000000000000000000000000815260040161318b906146ac565b60405180910390fd5b818103600160008673ffffffffffffffffffffffffffffffffffffffff1673ffffffffffffffffffffffffffffffffffffffff1681526020019081526020016000208190555081600160008573ffffffffffffffffffffffffffffffffffffffff1673ffffffffffffffffffffffffffffffffffffffff16815260200190815260200160002060008282546132299190613ed7565b925050819055508273ffffffffffffffffffffffffffffffffffffffff168473ffffffffffffffffffffffffffffffffffffffff167fddf252ad1be2c89b69c2b068fc378daa952ba7f163c4a11628f55a4df523b3ef8460405161328d9190613761565b60405180910390a36132a0848484613556565b50505050565b60008060009054906101000a900473ffffffffffffffffffffffffffffffffffffffff169050816000806101000a81548173ffffffffffffffffffffffffffffffffffffffff021916908373ffffffffffffffffffffffffffffffffffffffff1602179055508173ffffffffffffffffffffffffffffffffffffffff168173ffffffffffffffffffffffffffffffffffffffff167f8be0079c531659141344cd1fd0a4f28419497f9722a3daafe3b4186f6b6457e060405160405180910390a35050565b60008082905060008173ffffffffffffffffffffffffffffffffffffffff1663feaf968c6040518163ffffffff1660e01b815260040160a060405180830381865afa1580156133bd573d6000803e3d6000fd5b505050506040513d601f19601f820116820180604052508101906133e19190614759565b5050509150508092505050919050565b600073ffffffffffffffffffffffffffffffffffffffff168273ffffffffffffffffffffffffffffffffffffffff1603613460576040517f08c379a000000000000000000000000000000000000000000000000000000000815260040161345790614820565b60405180910390fd5b61346c60008383613551565b806003600082825461347e9190613ed7565b9250508190555080600160008473ffffffffffffffffffffffffffffffffffffffff1673ffffffffffffffffffffffffffffffffffffffff16815260200190815260200160002060008282546134d49190613ed7565b925050819055508173ffffffffffffffffffffffffffffffffffffffff16600073ffffffffffffffffffffffffffffffffffffffff167fddf252ad1be2c89b69c2b068fc378daa952ba7f163c4a11628f55a4df523b3ef836040516135399190613761565b60405180910390a361354d60008383613556565b5050565b505050565b505050565b600081519050919050565b600082825260208201905092915050565b60005b8381101561359557808201518184015260208101905061357a565b838111156135a4576000848401525b50505050565b6000601f19601f8301169050919050565b60006135c68261355b565b6135d08185613566565b93506135e0818560208601613577565b6135e9816135aa565b840191505092915050565b6000602082019050818103600083015261360e81846135bb565b905092915050565b600080fd5b600073ffffffffffffffffffffffffffffffffffffffff82169050919050565b60006136468261361b565b9050919050565b6136568161363b565b811461366157600080fd5b50565b6000813590506136738161364d565b92915050565b6000819050919050565b61368c81613679565b811461369757600080fd5b50565b6000813590506136a981613683565b92915050565b600080604083850312156136c6576136c5613616565b5b60006136d485828601613664565b92505060206136e58582860161369a565b9150509250929050565b60008115159050919050565b613704816136ef565b82525050565b600060208201905061371f60008301846136fb565b92915050565b60006020828403121561373b5761373a613616565b5b600061374984828501613664565b91505092915050565b61375b81613679565b82525050565b60006020820190506137766000830184613752565b92915050565b60006fffffffffffffffffffffffffffffffff82169050919050565b6137a18161377c565b81146137ac57600080fd5b50565b6000813590506137be81613798565b92915050565b600080604083850312156137db576137da613616565b5b60006137e9858286016137af565b92505060206137fa85828601613664565b9150509250929050565b60008060006060848603121561381d5761381c613616565b5b600061382b86828701613664565b935050602061383c86828701613664565b925050604061384d8682870161369a565b9150509250925092565b6000806000606084860312156138705761386f613616565b5b600061387e86828701613664565b935050602061388f868287016137af565b92505060406138a086828701613664565b9150509250925092565b600060ff82169050919050565b6138c0816138aa565b82525050565b60006020820190506138db60008301846138b7565b92915050565b6138ea8161377c565b82525050565b60006040820190506139056000830185613752565b61391260208301846138e1565b9392505050565b6139228161363b565b82525050565b600060208201905061393d6000830184613919565b92915050565b6000806040838503121561395a57613959613616565b5b600061396885828601613664565b925050602061397985828601613664565b9150509250929050565b7f4e487b7100000000000000000000000000000000000000000000000000000000600052602260045260246000fd5b600060028204905060018216806139ca57607f821691505b6020821081036139dd576139dc613983565b5b50919050565b7f506f6f6c206973206e6f7420616374697665206f7220646f65736e277420657860008201527f6973742e00000000000000000000000000000000000000000000000000000000602082015250565b6000613a3f602483613566565b9150613a4a826139e3565b604082019050919050565b60006020820190508181036000830152613a6e81613a32565b9050919050565b6000604082019050613a8a6000830185613919565b613a976020830184613752565b9392505050565b7f596f7520617265206e6f742061207374616b6572000000000000000000000000600082015250565b6000613ad4601483613566565b9150613adf82613a9e565b602082019050919050565b60006020820190508181036000830152613b0381613ac7565b9050919050565b7f54686520616d6f756e74206d7573742062652067726561746572207468616e2060008201527f7a65726f2e000000000000000000000000000000000000000000000000000000602082015250565b6000613b66602583613566565b9150613b7182613b0a565b604082019050919050565b60006020820190508181036000830152613b9581613b59565b9050919050565b7f596f7520646f6e27742068617665207468697320616d6f756e74206f6620746f60008201527f6b656e0000000000000000000000000000000000000000000000000000000000602082015250565b6000613bf8602383613566565b9150613c0382613b9c565b604082019050919050565b60006020820190508181036000830152613c2781613beb565b9050919050565b7f5468697320746f6b656e2069736e277420617661696c61626c652e0000000000600082015250565b6000613c64601b83613566565b9150613c6f82613c2e565b602082019050919050565b60006020820190508181036000830152613c9381613c57565b9050919050565b6000819050919050565b6000613cbf613cba613cb58461377c565b613c9a565b613679565b9050919050565b613ccf81613ca4565b82525050565b6000604082019050613cea6000830185613919565b613cf76020830184613cc6565b9392505050565b613d07816136ef565b8114613d1257600080fd5b50565b600081519050613d2481613cfe565b92915050565b600060208284031215613d4057613d3f613616565b5b6000613d4e84828501613d15565b91505092915050565b7f5472616e736665722066726f6d206572726f7200000000000000000000000000600082015250565b6000613d8d601383613566565b9150613d9882613d57565b602082019050919050565b60006020820190508181036000830152613dbc81613d80565b9050919050565b7f4e487b7100000000000000000000000000000000000000000000000000000000600052601160045260246000fd5b6000613dfd8261377c565b9150613e088361377c565b925082821015613e1b57613e1a613dc3565b5b828203905092915050565b6000608082019050613e3b6000830187613919565b613e486020830186613919565b613e5560408301856138e1565b613e626060830184613752565b95945050505050565b7f5468697320746f6b656e20616c72656164792065786973742e00000000000000600082015250565b6000613ea1601983613566565b9150613eac82613e6b565b602082019050919050565b60006020820190508181036000830152613ed081613e94565b9050919050565b6000613ee282613679565b9150613eed83613679565b9250827fffffffffffffffffffffffffffffffffffffffffffffffffffffffffffffffff03821115613f2257613f21613dc3565b5b828201905092915050565b6000606082019050613f426000830186613919565b613f4f6020830185613919565b613f5c6040830184613cc6565b949350505050565b6000613f6f8261377c565b9150613f7a8361377c565b9250826fffffffffffffffffffffffffffffffff03821115613f9f57613f9e613dc3565b5b828201905092915050565b7f45524332303a2064656372656173656420616c6c6f77616e63652062656c6f7760008201527f207a65726f000000000000000000000000000000000000000000000000000000602082015250565b6000614006602583613566565b915061401182613faa565b604082019050919050565b6000602082019050818103600083015261403581613ff9565b9050919050565b7f596f7520616c7265616479207374616b65207468697320706f6f6c0000000000600082015250565b6000614072601b83613566565b915061407d8261403c565b602082019050919050565b600060208201905081810360008301526140a181614065565b9050919050565b60006140b38261377c565b91506140be8361377c565b9250816fffffffffffffffffffffffffffffffff04831182151516156140e7576140e6613dc3565b5b828202905092915050565b7f4e487b7100000000000000000000000000000000000000000000000000000000600052601260045260246000fd5b600061412c8261377c565b91506141378361377c565b925082614147576141466140f2565b5b828204905092915050565b7f4e487b7100000000000000000000000000000000000000000000000000000000600052603260045260246000fd5b600061418c82613679565b91507fffffffffffffffffffffffffffffffffffffffffffffffffffffffffffffffff82036141be576141bd613dc3565b5b600182019050919050565b60006141d482613679565b91506141df83613679565b9250828210156141f2576141f1613dc3565b5b828203905092915050565b600061420882613679565b915061421383613679565b9250817fffffffffffffffffffffffffffffffffffffffffffffffffffffffffffffffff048311821515161561424c5761424b613dc3565b5b828202905092915050565b600061426282613679565b915061426d83613679565b92508261427d5761427c6140f2565b5b828204905092915050565b7f4f776e61626c653a206e6577206f776e657220697320746865207a65726f206160008201527f6464726573730000000000000000000000000000000000000000000000000000602082015250565b60006142e4602683613566565b91506142ef82614288565b604082019050919050565b60006020820190508181036000830152614313816142d7565b9050919050565b7f45524332303a20617070726f76652066726f6d20746865207a65726f2061646460008201527f7265737300000000000000000000000000000000000000000000000000000000602082015250565b6000614376602483613566565b91506143818261431a565b604082019050919050565b600060208201905081810360008301526143a581614369565b9050919050565b7f45524332303a20617070726f766520746f20746865207a65726f20616464726560008201527f7373000000000000000000000000000000000000000000000000000000000000602082015250565b6000614408602283613566565b9150614413826143ac565b604082019050919050565b60006020820190508181036000830152614437816143fb565b9050919050565b7f4f776e61626c653a2063616c6c6572206973206e6f7420746865206f776e6572600082015250565b6000614474602083613566565b915061447f8261443e565b602082019050919050565b600060208201905081810360008301526144a381614467565b9050919050565b7f45524332303a20696e73756666696369656e7420616c6c6f77616e6365000000600082015250565b60006144e0601d83613566565b91506144eb826144aa565b602082019050919050565b6000602082019050818103600083015261450f816144d3565b9050919050565b7f45524332303a207472616e736665722066726f6d20746865207a65726f20616460008201527f6472657373000000000000000000000000000000000000000000000000000000602082015250565b6000614572602583613566565b915061457d82614516565b604082019050919050565b600060208201905081810360008301526145a181614565565b9050919050565b7f45524332303a207472616e7366657220746f20746865207a65726f206164647260008201527f6573730000000000000000000000000000000000000000000000000000000000602082015250565b6000614604602383613566565b915061460f826145a8565b604082019050919050565b60006020820190508181036000830152614633816145f7565b9050919050565b7f45524332303a207472616e7366657220616d6f756e742065786365656473206260008201527f616c616e63650000000000000000000000000000000000000000000000000000602082015250565b6000614696602683613566565b91506146a18261463a565b604082019050919050565b600060208201905081810360008301526146c581614689565b9050919050565b600069ffffffffffffffffffff82169050919050565b6146eb816146cc565b81146146f657600080fd5b50565b600081519050614708816146e2565b92915050565b6000819050919050565b6147218161470e565b811461472c57600080fd5b50565b60008151905061473e81614718565b92915050565b60008151905061475381613683565b92915050565b600080600080600060a0868803121561477557614774613616565b5b6000614783888289016146f9565b95505060206147948882890161472f565b94505060406147a588828901614744565b93505060606147b688828901614744565b92505060806147c7888289016146f9565b9150509295509295909350565b7f45524332303a206d696e7420746f20746865207a65726f206164647265737300600082015250565b600061480a601f83613566565b9150614815826147d4565b602082019050919050565b60006020820190508181036000830152614839816147fd565b905091905056fea26469706673582212207fa054f1c1a1c39ff53ba766ce72c2da9d8e8b12f7f37386a3962d59a37cfbf764736f6c634300080e0033",
  "immutableReferences": {},
  "source": "// SPDX-License-Identifier: MIT\r\npragma solidity 0.8.14;\r\n\r\nimport \"../node_modules/@openzeppelin/contracts/token/ERC20/IERC20.sol\";\r\nimport \"../node_modules/@openzeppelin/contracts/access/Ownable.sol\";\r\nimport \"../node_modules/@chainlink/contracts/src/v0.8/interfaces/AggregatorV3Interface.sol\";\r\nimport \"./CrowdV.sol\";\r\n\r\n/**\r\n * @title Staking : a Staking Plateform !\r\n * @author Anthony - Etienne - Jean-Baptiste\r\n */\r\n\r\ncontract Staking is Ownable, CrowdV {\r\n    //Price of reward token in $\r\n    uint256 priceTokenRewardInDollar = 1;\r\n\r\n    //Information about the token\r\n    struct Token {\r\n        bool activePool;\r\n        address addressPrice; //Chainlink Pool\r\n        uint256 dateStop;\r\n        uint128 APR;\r\n        uint128 totalStakes;\r\n    }\r\n\r\n    // Token address => active pool\r\n    mapping(address => Token) pools;\r\n\r\n    struct Staker {\r\n        uint128 amount; // Amount token stake\r\n        uint256 date; // Date of stake start\r\n    }\r\n\r\n    // address token => address Staker => Informations Staker\r\n    mapping(address => mapping(address => Staker)) stakers;\r\n\r\n    // Save total amount with timestamp\r\n    struct majStackingPool {\r\n        uint256 blockDate;\r\n        uint128 stakingTotalPool;\r\n    }\r\n    mapping(address => majStackingPool[]) public stakingTimes;\r\n\r\n    // Events\r\n    event NewPool(address tokenAddress, uint256 APR);\r\n    event StopPool(address tokenAddress, uint256 date);\r\n    event Stake(\r\n        address sender,\r\n        address tokenAddress,\r\n        uint128 amount,\r\n        uint256 date\r\n    );\r\n    event Unstake(\r\n        address sender,\r\n        address tokenAddress,\r\n        uint128 amount,\r\n        uint256 date\r\n    );\r\n\r\n    /**\r\n     * @notice Make available token address to add pool\r\n     * @dev Available only for owner\r\n     * @param _token is token address\r\n     * @param _apr is APR of the pool\r\n     * @param _addressPrice is Chainlink pool\r\n     */\r\n    function addPool(\r\n        address _token,\r\n        uint128 _apr,\r\n        address _addressPrice\r\n    ) external onlyOwner {\r\n        require(!pools[_token].activePool, \"This token already exist.\");\r\n\r\n        pools[_token].activePool = true;\r\n        pools[_token].APR = _apr;\r\n        pools[_token].addressPrice = _addressPrice;\r\n\r\n        emit NewPool(_token, _apr);\r\n    }\r\n\r\n    /**\r\n     * @notice disable a pool\r\n     * @dev Available only for owner\r\n     * @param _token is token address\r\n     */\r\n    function stopPool(address _token) external onlyOwner {\r\n        require(\r\n            pools[_token].activePool,\r\n            \"Pool is not active or doesn't exist.\"\r\n        );\r\n        pools[_token].activePool = false;\r\n        pools[_token].dateStop = block.timestamp;\r\n\r\n        emit StopPool(_token, block.timestamp);\r\n    }\r\n\r\n    /**\r\n     * @notice Stake fund into this contract\r\n     * @param _amount to stake\r\n     * @param _token to stake\r\n     * @dev Emit event after stake\r\n     */\r\n    function stake(uint128 _amount, address _token) external {\r\n        require(!isStaker(_token), \"You already stake this pool\"); //msg.sender is already a staker, faire une boucle sur le tableau ?\r\n        require(_amount > 0, \"The amount must be greater than zero.\");\r\n        require(pools[_token].activePool, \"This token isn't available.\");\r\n\r\n        bool result = IERC20(_token).transferFrom(\r\n            msg.sender,\r\n            address(this),\r\n            _amount\r\n        );\r\n        require(result, \"Transfer from error\");\r\n\r\n        stakers[_token][msg.sender] = Staker(_amount, block.timestamp);\r\n\r\n        majStackingPool memory maj = majStackingPool(\r\n            block.timestamp,\r\n            pools[_token].totalStakes + _amount\r\n        );\r\n        stakingTimes[_token].push(maj);\r\n\r\n        pools[_token].totalStakes += _amount;\r\n\r\n        emit Stake(msg.sender, _token, _amount, block.timestamp);\r\n    }\r\n\r\n    /**\r\n     * @notice Add more token to a staking pool\r\n     * @param _amount is the amount of token to add\r\n     * @param _token is address token of the pool\r\n     */\r\n    function addStake(uint128 _amount, address _token) external {\r\n        require(isStaker(_token), \"You are not a staker\");\r\n        require(_amount > 0, \"The amount must be greater than zero.\");\r\n        require(pools[_token].activePool, \"This token isn't available.\");\r\n\r\n        bool result = IERC20(_token).transferFrom(\r\n            msg.sender,\r\n            address(this),\r\n            _amount\r\n        );\r\n        require(result, \"Transfer from error\");\r\n\r\n        stakers[_token][msg.sender].amount += _amount;\r\n\r\n        majStackingPool memory maj = majStackingPool(\r\n            block.timestamp,\r\n            pools[_token].totalStakes + _amount\r\n        );\r\n        stakingTimes[_token].push(maj);\r\n\r\n        pools[_token].totalStakes += _amount;\r\n\r\n        claimRewards(_token);\r\n\r\n        emit Stake(msg.sender, _token, _amount, block.timestamp);\r\n    }\r\n\r\n    /**\r\n     * @notice Withdraw fund into this contract\r\n     * @param _token to unstake\r\n     * @param _amount number of token to unstake\r\n     */\r\n    function withdraw(uint128 _amount, address _token) external {\r\n        require(isStaker(_token), \"You are not a staker\");\r\n        require(_amount > 0, \"The amount must be greater than zero.\");\r\n        require(_amount >= stakers[_token][msg.sender].amount, \"You don't have this amount of token\");\r\n        require(pools[_token].activePool, \"This token isn't available.\"); //pas sr que ce soit ncessaire\r\n\r\n        bool result = IERC20(_token).transfer(msg.sender, _amount);\r\n        require(result, \"Transfer from error\");\r\n\r\n        claimRewards(_token); // Rcuprer les rewards en mme temps\r\n\r\n        stakers[_token][msg.sender].amount -= _amount;\r\n\r\n        majStackingPool memory maj = majStackingPool(\r\n            block.timestamp,\r\n            pools[_token].totalStakes - _amount\r\n        );\r\n        stakingTimes[_token].push(maj);\r\n\r\n        pools[_token].totalStakes -= _amount;\r\n\r\n        emit Unstake(msg.sender, _token, _amount, block.timestamp);\r\n    }\r\n\r\n    /**\r\n     * @notice Get price of token with Chainlink\r\n     * @param _pairChainlinkAddress is the pool adress in $\r\n     */\r\n    function _getLatestPrice(address _pairChainlinkAddress)\r\n        private\r\n        view\r\n        returns (uint256)\r\n    {\r\n        AggregatorV3Interface priceFeed = AggregatorV3Interface(\r\n            _pairChainlinkAddress\r\n        );\r\n        (, int256 price, , , ) = priceFeed.latestRoundData();\r\n\r\n        return uint256(price);\r\n    }\r\n\r\n    /**\r\n     * @notice Calculate rewards\r\n     * @dev tokenPrice use Chainlink Oracle\r\n     * @param _token is the token of pool to calculate rewards\r\n     * @return rewards in dollars\r\n     */\r\n    function calculateReward(address _token) public view returns (uint256) {\r\n        require(isStaker(_token), \"You are not a staker\");\r\n        uint256 tokenPrice = _getLatestPrice(pools[_token].addressPrice);\r\n        uint256 aprPerSeconds = ((pools[_token].APR) * 10**8) /\r\n            (365 * 24 * 3600);\r\n        uint256 rewardspartoOfPool;\r\n        uint256 x = stakingTimes[_token].length;\r\n        uint256 blockIndex;\r\n        for (uint256 i = 0; i < x; i++) {\r\n            if (\r\n                stakingTimes[_token][i].blockDate ==\r\n                stakers[_token][msg.sender].date\r\n            ) {\r\n                blockIndex = i;\r\n            }\r\n        }\r\n\r\n        if (pools[_token].activePool) {\r\n            if (x == 1) {\r\n                rewardspartoOfPool += (block.timestamp -\r\n                    stakers[_token][msg.sender].date);\r\n            } else {\r\n                for (uint256 i = blockIndex; i < x - 1; i++) {\r\n                    rewardspartoOfPool +=\r\n                        ((stakingTimes[_token][i + 1].blockDate -\r\n                            stakingTimes[_token][i].blockDate) *\r\n                            stakers[_token][msg.sender].amount) /\r\n                        stakingTimes[_token][i].stakingTotalPool;\r\n                }\r\n                rewardspartoOfPool +=\r\n                    ((block.timestamp - stakingTimes[_token][x - 1].blockDate) *\r\n                        stakers[_token][msg.sender].amount) /\r\n                    pools[_token].totalStakes;\r\n            }\r\n        } else {\r\n            if (x == 1) {\r\n                rewardspartoOfPool += (pools[_token].dateStop -\r\n                    stakers[_token][msg.sender].date);\r\n            } else {\r\n                for (uint256 i = blockIndex; i < x - 1; i++) {\r\n                    rewardspartoOfPool +=\r\n                        ((stakingTimes[_token][i + 1].blockDate -\r\n                            stakingTimes[_token][i].blockDate) *\r\n                            stakers[_token][msg.sender].amount) /\r\n                        stakingTimes[_token][i].stakingTotalPool;\r\n                }\r\n                rewardspartoOfPool +=\r\n                    ((pools[_token].dateStop -\r\n                        stakingTimes[_token][x - 1].blockDate) *\r\n                        stakers[_token][msg.sender].amount) /\r\n                    pools[_token].totalStakes;\r\n            }\r\n        }\r\n\r\n        return rewardspartoOfPool * tokenPrice * aprPerSeconds;\r\n    }\r\n\r\n    /**\r\n     * @notice Claim your rewards\r\n     * @dev Available only for stakers who have rewards to claim\r\n     * @param _token is token of the pool to claim rewards\r\n     */\r\n    function claimRewards(address _token) public {\r\n        require(isStaker(_token), \"You are not a staker\");\r\n\r\n        uint256 amoutToClaim = calculateReward(_token) /\r\n            priceTokenRewardInDollar;\r\n        stakers[_token][msg.sender].date = block.timestamp; //Remettre  0 le timestamp\r\n        _mint(msg.sender, amoutToClaim);\r\n    }\r\n\r\n    /**\r\n     * @notice Check amount of a stacked pool from msg.sender\r\n     * @param _token is address token of the pool to check\r\n     */\r\n    function getStaking(address _token) external view returns (uint256) {\r\n        return stakers[_token][msg.sender].amount;\r\n    }\r\n\r\n    /**\r\n     * @notice Check if msg.sender is a staker of a pool\r\n     * @dev Can be used to show the staked pools on the Dapp\r\n     * @param _token is address token of a pool\r\n     */\r\n    function isStaker(address _token) public view returns (bool) {\r\n        if (stakers[_token][msg.sender].amount > 0) {\r\n            return true;\r\n        }\r\n        return false;\r\n    }\r\n\r\n    /**\r\n     * @notice Check total amount of a stacked pool\r\n     * @param _token is address token\r\n     */\r\n    function getTotalStaking(address _token) external view returns (uint256) {\r\n        return pools[_token].totalStakes;\r\n    }\r\n\r\n}",
  "sourcePath": "/home/etienne/workspace/tp-defi/truffle/contracts/Staking.sol",
  "compiler": {
    "name": "solc",
    "version": "0.8.14+commit.80d49f37.Emscripten.clang"
  },
  "schemaVersion": "3.4.7",
  "updatedAt": "2022-08-04T18:46:00.182Z",
  "networkType": "ethereum",
  "devdoc": {
    "author": "Anthony - Etienne - Jean-Baptiste",
    "kind": "dev",
    "methods": {
      "addPool(address,uint128,address)": {
        "details": "Available only for owner",
        "params": {
          "_addressPrice": "is Chainlink pool",
          "_apr": "is APR of the pool",
          "_token": "is token address"
        }
      },
      "addStake(uint128,address)": {
        "params": {
          "_amount": "is the amount of token to add",
          "_token": "is address token of the pool"
        }
      },
      "allowance(address,address)": {
        "details": "See {IERC20-allowance}."
      },
      "approve(address,uint256)": {
        "details": "See {IERC20-approve}. NOTE: If `amount` is the maximum `uint256`, the allowance is not updated on `transferFrom`. This is semantically equivalent to an infinite approval. Requirements: - `spender` cannot be the zero address."
      },
      "balanceOf(address)": {
        "details": "See {IERC20-balanceOf}."
      },
      "calculateReward(address)": {
        "details": "tokenPrice use Chainlink Oracle",
        "params": {
          "_token": "is the token of pool to calculate rewards"
        },
        "returns": {
          "_0": "rewards in dollars"
        }
      },
      "claimRewards(address)": {
        "details": "Available only for stakers who have rewards to claim",
        "params": {
          "_token": "is token of the pool to claim rewards"
        }
      },
      "decimals()": {
        "details": "Returns the number of decimals used to get its user representation. For example, if `decimals` equals `2`, a balance of `505` tokens should be displayed to a user as `5.05` (`505 / 10 ** 2`). Tokens usually opt for a value of 18, imitating the relationship between Ether and Wei. This is the value {ERC20} uses, unless this function is overridden; NOTE: This information is only used for _display_ purposes: it in no way affects any of the arithmetic of the contract, including {IERC20-balanceOf} and {IERC20-transfer}."
      },
      "decreaseAllowance(address,uint256)": {
        "details": "Atomically decreases the allowance granted to `spender` by the caller. This is an alternative to {approve} that can be used as a mitigation for problems described in {IERC20-approve}. Emits an {Approval} event indicating the updated allowance. Requirements: - `spender` cannot be the zero address. - `spender` must have allowance for the caller of at least `subtractedValue`."
      },
      "getStaking(address)": {
        "params": {
          "_token": "is address token of the pool to check"
        }
      },
      "getTotalStaking(address)": {
        "params": {
          "_token": "is address token"
        }
      },
      "increaseAllowance(address,uint256)": {
        "details": "Atomically increases the allowance granted to `spender` by the caller. This is an alternative to {approve} that can be used as a mitigation for problems described in {IERC20-approve}. Emits an {Approval} event indicating the updated allowance. Requirements: - `spender` cannot be the zero address."
      },
      "isStaker(address)": {
        "details": "Can be used to show the staked pools on the Dapp",
        "params": {
          "_token": "is address token of a pool"
        }
      },
      "name()": {
        "details": "Returns the name of the token."
      },
      "owner()": {
        "details": "Returns the address of the current owner."
      },
      "renounceOwnership()": {
        "details": "Leaves the contract without owner. It will not be possible to call `onlyOwner` functions anymore. Can only be called by the current owner. NOTE: Renouncing ownership will leave the contract without an owner, thereby removing any functionality that is only available to the owner."
      },
      "stake(uint128,address)": {
        "details": "Emit event after stake",
        "params": {
          "_amount": "to stake",
          "_token": "to stake"
        }
      },
      "stopPool(address)": {
        "details": "Available only for owner",
        "params": {
          "_token": "is token address"
        }
      },
      "symbol()": {
        "details": "Returns the symbol of the token, usually a shorter version of the name."
      },
      "totalSupply()": {
        "details": "See {IERC20-totalSupply}."
      },
      "transfer(address,uint256)": {
        "details": "See {IERC20-transfer}. Requirements: - `to` cannot be the zero address. - the caller must have a balance of at least `amount`."
      },
      "transferFrom(address,address,uint256)": {
        "details": "See {IERC20-transferFrom}. Emits an {Approval} event indicating the updated allowance. This is not required by the EIP. See the note at the beginning of {ERC20}. NOTE: Does not update the allowance if the current allowance is the maximum `uint256`. Requirements: - `from` and `to` cannot be the zero address. - `from` must have a balance of at least `amount`. - the caller must have allowance for ``from``'s tokens of at least `amount`."
      },
      "transferOwnership(address)": {
        "details": "Transfers ownership of the contract to a new account (`newOwner`). Can only be called by the current owner."
      },
      "withdraw(uint128,address)": {
        "params": {
          "_amount": "number of token to unstake",
          "_token": "to unstake"
        }
      }
    },
    "title": "Staking : a Staking Plateform !",
    "version": 1
  },
  "userdoc": {
    "kind": "user",
    "methods": {
      "addPool(address,uint128,address)": {
        "notice": "Make available token address to add pool"
      },
      "addStake(uint128,address)": {
        "notice": "Add more token to a staking pool"
      },
      "calculateReward(address)": {
        "notice": "Calculate rewards"
      },
      "claimRewards(address)": {
        "notice": "Claim your rewards"
      },
      "getStaking(address)": {
        "notice": "Check amount of a stacked pool from msg.sender"
      },
      "getTotalStaking(address)": {
        "notice": "Check total amount of a stacked pool"
      },
      "isStaker(address)": {
        "notice": "Check if msg.sender is a staker of a pool"
      },
      "stake(uint128,address)": {
        "notice": "Stake fund into this contract"
      },
      "stopPool(address)": {
        "notice": "disable a pool"
      },
      "withdraw(uint128,address)": {
        "notice": "Withdraw fund into this contract"
      }
    },
    "version": 1
  }
}