{
  "contractName": "Staking",
  "abi": [
    {
      "anonymous": false,
      "inputs": [
        {
          "indexed": true,
          "internalType": "address",
          "name": "owner",
          "type": "address"
        },
        {
          "indexed": true,
          "internalType": "address",
          "name": "spender",
          "type": "address"
        },
        {
          "indexed": false,
          "internalType": "uint256",
          "name": "value",
          "type": "uint256"
        }
      ],
      "name": "Approval",
      "type": "event"
    },
    {
      "anonymous": false,
      "inputs": [
        {
          "indexed": false,
          "internalType": "address",
          "name": "tokenAddress",
          "type": "address"
        },
        {
          "indexed": false,
          "internalType": "uint256",
          "name": "APR",
          "type": "uint256"
        }
      ],
      "name": "NewPool",
      "type": "event"
    },
    {
      "anonymous": false,
      "inputs": [
        {
          "indexed": true,
          "internalType": "address",
          "name": "previousOwner",
          "type": "address"
        },
        {
          "indexed": true,
          "internalType": "address",
          "name": "newOwner",
          "type": "address"
        }
      ],
      "name": "OwnershipTransferred",
      "type": "event"
    },
    {
      "anonymous": false,
      "inputs": [
        {
          "indexed": false,
          "internalType": "address",
          "name": "sender",
          "type": "address"
        },
        {
          "indexed": false,
          "internalType": "address",
          "name": "tokenAddress",
          "type": "address"
        },
        {
          "indexed": false,
          "internalType": "uint128",
          "name": "amount",
          "type": "uint128"
        },
        {
          "indexed": false,
          "internalType": "uint256",
          "name": "date",
          "type": "uint256"
        }
      ],
      "name": "Stake",
      "type": "event"
    },
    {
      "anonymous": false,
      "inputs": [
        {
          "indexed": false,
          "internalType": "address",
          "name": "tokenAddress",
          "type": "address"
        },
        {
          "indexed": false,
          "internalType": "uint256",
          "name": "date",
          "type": "uint256"
        }
      ],
      "name": "StopPool",
      "type": "event"
    },
    {
      "anonymous": false,
      "inputs": [
        {
          "indexed": true,
          "internalType": "address",
          "name": "from",
          "type": "address"
        },
        {
          "indexed": true,
          "internalType": "address",
          "name": "to",
          "type": "address"
        },
        {
          "indexed": false,
          "internalType": "uint256",
          "name": "value",
          "type": "uint256"
        }
      ],
      "name": "Transfer",
      "type": "event"
    },
    {
      "anonymous": false,
      "inputs": [
        {
          "indexed": false,
          "internalType": "address",
          "name": "sender",
          "type": "address"
        },
        {
          "indexed": false,
          "internalType": "address",
          "name": "tokenAddress",
          "type": "address"
        },
        {
          "indexed": false,
          "internalType": "uint128",
          "name": "amount",
          "type": "uint128"
        },
        {
          "indexed": false,
          "internalType": "uint256",
          "name": "date",
          "type": "uint256"
        }
      ],
      "name": "Unstake",
      "type": "event"
    },
    {
      "inputs": [
        {
          "internalType": "address",
          "name": "owner",
          "type": "address"
        },
        {
          "internalType": "address",
          "name": "spender",
          "type": "address"
        }
      ],
      "name": "allowance",
      "outputs": [
        {
          "internalType": "uint256",
          "name": "",
          "type": "uint256"
        }
      ],
      "stateMutability": "view",
      "type": "function",
      "constant": true
    },
    {
      "inputs": [
        {
          "internalType": "address",
          "name": "spender",
          "type": "address"
        },
        {
          "internalType": "uint256",
          "name": "amount",
          "type": "uint256"
        }
      ],
      "name": "approve",
      "outputs": [
        {
          "internalType": "bool",
          "name": "",
          "type": "bool"
        }
      ],
      "stateMutability": "nonpayable",
      "type": "function"
    },
    {
      "inputs": [
        {
          "internalType": "address",
          "name": "account",
          "type": "address"
        }
      ],
      "name": "balanceOf",
      "outputs": [
        {
          "internalType": "uint256",
          "name": "",
          "type": "uint256"
        }
      ],
      "stateMutability": "view",
      "type": "function",
      "constant": true
    },
    {
      "inputs": [],
      "name": "decimals",
      "outputs": [
        {
          "internalType": "uint8",
          "name": "",
          "type": "uint8"
        }
      ],
      "stateMutability": "view",
      "type": "function",
      "constant": true
    },
    {
      "inputs": [
        {
          "internalType": "address",
          "name": "spender",
          "type": "address"
        },
        {
          "internalType": "uint256",
          "name": "subtractedValue",
          "type": "uint256"
        }
      ],
      "name": "decreaseAllowance",
      "outputs": [
        {
          "internalType": "bool",
          "name": "",
          "type": "bool"
        }
      ],
      "stateMutability": "nonpayable",
      "type": "function"
    },
    {
      "inputs": [
        {
          "internalType": "address",
          "name": "spender",
          "type": "address"
        },
        {
          "internalType": "uint256",
          "name": "addedValue",
          "type": "uint256"
        }
      ],
      "name": "increaseAllowance",
      "outputs": [
        {
          "internalType": "bool",
          "name": "",
          "type": "bool"
        }
      ],
      "stateMutability": "nonpayable",
      "type": "function"
    },
    {
      "inputs": [],
      "name": "name",
      "outputs": [
        {
          "internalType": "string",
          "name": "",
          "type": "string"
        }
      ],
      "stateMutability": "view",
      "type": "function",
      "constant": true
    },
    {
      "inputs": [],
      "name": "owner",
      "outputs": [
        {
          "internalType": "address",
          "name": "",
          "type": "address"
        }
      ],
      "stateMutability": "view",
      "type": "function",
      "constant": true
    },
    {
      "inputs": [],
      "name": "renounceOwnership",
      "outputs": [],
      "stateMutability": "nonpayable",
      "type": "function"
    },
    {
      "inputs": [
        {
          "internalType": "address",
          "name": "",
          "type": "address"
        },
        {
          "internalType": "uint256",
          "name": "",
          "type": "uint256"
        }
      ],
      "name": "stakingTimes",
      "outputs": [
        {
          "internalType": "uint256",
          "name": "blockDate",
          "type": "uint256"
        },
        {
          "internalType": "uint128",
          "name": "stakingTotalPool",
          "type": "uint128"
        }
      ],
      "stateMutability": "view",
      "type": "function",
      "constant": true
    },
    {
      "inputs": [],
      "name": "symbol",
      "outputs": [
        {
          "internalType": "string",
          "name": "",
          "type": "string"
        }
      ],
      "stateMutability": "view",
      "type": "function",
      "constant": true
    },
    {
      "inputs": [],
      "name": "totalSupply",
      "outputs": [
        {
          "internalType": "uint256",
          "name": "",
          "type": "uint256"
        }
      ],
      "stateMutability": "view",
      "type": "function",
      "constant": true
    },
    {
      "inputs": [
        {
          "internalType": "address",
          "name": "to",
          "type": "address"
        },
        {
          "internalType": "uint256",
          "name": "amount",
          "type": "uint256"
        }
      ],
      "name": "transfer",
      "outputs": [
        {
          "internalType": "bool",
          "name": "",
          "type": "bool"
        }
      ],
      "stateMutability": "nonpayable",
      "type": "function"
    },
    {
      "inputs": [
        {
          "internalType": "address",
          "name": "from",
          "type": "address"
        },
        {
          "internalType": "address",
          "name": "to",
          "type": "address"
        },
        {
          "internalType": "uint256",
          "name": "amount",
          "type": "uint256"
        }
      ],
      "name": "transferFrom",
      "outputs": [
        {
          "internalType": "bool",
          "name": "",
          "type": "bool"
        }
      ],
      "stateMutability": "nonpayable",
      "type": "function"
    },
    {
      "inputs": [
        {
          "internalType": "address",
          "name": "newOwner",
          "type": "address"
        }
      ],
      "name": "transferOwnership",
      "outputs": [],
      "stateMutability": "nonpayable",
      "type": "function"
    },
    {
      "inputs": [
        {
          "internalType": "address",
          "name": "_token",
          "type": "address"
        },
        {
          "internalType": "uint128",
          "name": "_apr",
          "type": "uint128"
        },
        {
          "internalType": "address",
          "name": "_addressPrice",
          "type": "address"
        }
      ],
      "name": "addPool",
      "outputs": [],
      "stateMutability": "nonpayable",
      "type": "function"
    },
    {
      "inputs": [
        {
          "internalType": "address",
          "name": "_token",
          "type": "address"
        }
      ],
      "name": "stopPool",
      "outputs": [],
      "stateMutability": "nonpayable",
      "type": "function"
    },
    {
      "inputs": [
        {
          "internalType": "uint128",
          "name": "_amount",
          "type": "uint128"
        },
        {
          "internalType": "address",
          "name": "_token",
          "type": "address"
        }
      ],
      "name": "stake",
      "outputs": [],
      "stateMutability": "nonpayable",
      "type": "function"
    },
    {
      "inputs": [
        {
          "internalType": "uint128",
          "name": "_amount",
          "type": "uint128"
        },
        {
          "internalType": "address",
          "name": "_token",
          "type": "address"
        }
      ],
      "name": "withdraw",
      "outputs": [],
      "stateMutability": "nonpayable",
      "type": "function"
    },
    {
      "inputs": [
        {
          "internalType": "address",
          "name": "_token",
          "type": "address"
        }
      ],
      "name": "calculateReward",
      "outputs": [
        {
          "internalType": "uint256",
          "name": "",
          "type": "uint256"
        }
      ],
      "stateMutability": "view",
      "type": "function",
      "constant": true
    },
    {
      "inputs": [
        {
          "internalType": "address",
          "name": "_token",
          "type": "address"
        }
      ],
      "name": "claimRewards",
      "outputs": [],
      "stateMutability": "nonpayable",
      "type": "function"
    },
    {
      "inputs": [
        {
          "internalType": "address",
          "name": "_token",
          "type": "address"
        }
      ],
      "name": "getStaking",
      "outputs": [
        {
          "internalType": "uint256",
          "name": "",
          "type": "uint256"
        }
      ],
      "stateMutability": "view",
      "type": "function",
      "constant": true
    },
    {
      "inputs": [
        {
          "internalType": "address",
          "name": "_token",
          "type": "address"
        }
      ],
      "name": "isStaker",
      "outputs": [
        {
          "internalType": "bool",
          "name": "",
          "type": "bool"
        }
      ],
      "stateMutability": "view",
      "type": "function",
      "constant": true
    },
    {
      "inputs": [
        {
          "internalType": "address",
          "name": "_token",
          "type": "address"
        }
      ],
      "name": "getTotalStaking",
      "outputs": [
        {
          "internalType": "uint256",
          "name": "",
          "type": "uint256"
        }
      ],
      "stateMutability": "view",
      "type": "function",
      "constant": true
    }
  ],
  "bytecode": "0x608060405260016006553480156200001657600080fd5b506040518060400160405280600681526020017f43726f77645600000000000000000000000000000000000000000000000000008152506040518060400160405280600481526020017f4352445600000000000000000000000000000000000000000000000000000000815250620000a362000097620000dd60201b60201c565b620000e560201b60201c565b8160049080519060200190620000bb929190620001a9565b508060059080519060200190620000d4929190620001a9565b505050620002bd565b600033905090565b60008060009054906101000a900473ffffffffffffffffffffffffffffffffffffffff169050816000806101000a81548173ffffffffffffffffffffffffffffffffffffffff021916908373ffffffffffffffffffffffffffffffffffffffff1602179055508173ffffffffffffffffffffffffffffffffffffffff168173ffffffffffffffffffffffffffffffffffffffff167f8be0079c531659141344cd1fd0a4f28419497f9722a3daafe3b4186f6b6457e060405160405180910390a35050565b828054620001b79062000288565b90600052602060002090601f016020900481019282620001db576000855562000227565b82601f10620001f657805160ff191683800117855562000227565b8280016001018555821562000227579182015b828111156200022657825182559160200191906001019062000209565b5b5090506200023691906200023a565b5090565b5b80821115620002555760008160009055506001016200023b565b5090565b7f4e487b7100000000000000000000000000000000000000000000000000000000600052602260045260246000fd5b60006002820490506001821680620002a157607f821691505b602082108103620002b757620002b662000259565b5b50919050565b61435f80620002cd6000396000f3fe608060405234801561001057600080fd5b50600436106101585760003560e01c806370a08231116100c3578063a9059cbb1161007c578063a9059cbb14610402578063b166dfdd14610432578063d82e39621461044e578063dd62ed3e1461047e578063ef5cfb8c146104ae578063f2fde38b146104ca57610158565b806370a082311461032c578063715018a61461035c5780637ae15a73146103665780638da5cb5b1461039657806395d89b41146103b4578063a457c2d7146103d257610158565b806323b872dd1161011557806323b872dd146102315780632bf8f75614610261578063313ce5671461027d578063395093511461029b5780636f005df3146102cb5780636f1e8533146102fc57610158565b806306fdde031461015d578063095ea7b31461017b57806311c88633146101ab578063156e28b8146101db57806318160ddd146101f75780631d9b078314610215575b600080fd5b6101656104e6565b604051610172919061316f565b60405180910390f35b6101956004803603810190610190919061322a565b610578565b6040516101a29190613285565b60405180910390f35b6101c560048036038101906101c091906132a0565b61059b565b6040516101d291906132dc565b60405180910390f35b6101f560048036038101906101f091906132a0565b610652565b005b6101ff6107c7565b60405161020c91906132dc565b60405180910390f35b61022f600480360381019061022a919061333f565b6107d1565b005b61024b6004803603810190610246919061337f565b610e5c565b6040516102589190613285565b60405180910390f35b61027b600480360381019061027691906133d2565b610e8b565b005b6102856110b6565b6040516102929190613441565b60405180910390f35b6102b560048036038101906102b0919061322a565b6110bf565b6040516102c29190613285565b60405180910390f35b6102e560048036038101906102e0919061322a565b6110f6565b6040516102f392919061346b565b60405180910390f35b610316600480360381019061031191906132a0565b611153565b6040516103239190613285565b60405180910390f35b610346600480360381019061034191906132a0565b61121d565b60405161035391906132dc565b60405180910390f35b610364611266565b005b610380600480360381019061037b91906132a0565b61127a565b60405161038d91906132dc565b60405180910390f35b61039e6112f4565b6040516103ab91906134a3565b60405180910390f35b6103bc61131d565b6040516103c9919061316f565b60405180910390f35b6103ec60048036038101906103e7919061322a565b6113af565b6040516103f99190613285565b60405180910390f35b61041c6004803603810190610417919061322a565b611426565b6040516104299190613285565b60405180910390f35b61044c6004803603810190610447919061333f565b611449565b005b610468600480360381019061046391906132a0565b61198c565b60405161047591906132dc565b60405180910390f35b610498600480360381019061049391906134be565b6126c6565b6040516104a591906132dc565b60405180910390f35b6104c860048036038101906104c391906132a0565b61274d565b005b6104e460048036038101906104df91906132a0565b612841565b005b6060600480546104f59061352d565b80601f01602080910402602001604051908101604052809291908181526020018280546105219061352d565b801561056e5780601f106105435761010080835404028352916020019161056e565b820191906000526020600020905b81548152906001019060200180831161055157829003601f168201915b5050505050905090565b6000806105836128c4565b90506105908185856128cc565b600191505092915050565b6000600860008373ffffffffffffffffffffffffffffffffffffffff1673ffffffffffffffffffffffffffffffffffffffff16815260200190815260200160002060003373ffffffffffffffffffffffffffffffffffffffff1673ffffffffffffffffffffffffffffffffffffffff16815260200190815260200160002060000160009054906101000a90046fffffffffffffffffffffffffffffffff166fffffffffffffffffffffffffffffffff169050919050565b61065a612a95565b600760008273ffffffffffffffffffffffffffffffffffffffff1673ffffffffffffffffffffffffffffffffffffffff16815260200190815260200160002060000160009054906101000a900460ff166106e9576040517f08c379a00000000000000000000000000000000000000000000000000000000081526004016106e0906135aa565b60405180910390fd5b6000600760008373ffffffffffffffffffffffffffffffffffffffff1673ffffffffffffffffffffffffffffffffffffffff16815260200190815260200160002060000160006101000a81548160ff02191690831515021790555042600760008373ffffffffffffffffffffffffffffffffffffffff1673ffffffffffffffffffffffffffffffffffffffff168152602001908152602001600020600101819055507f95900bd9ba2e434a9f276313d71b4c06e0ca09327777b54984808188444a14d481426040516107bc9291906135ca565b60405180910390a150565b6000600354905090565b6107da81611153565b610819576040517f08c379a00000000000000000000000000000000000000000000000000000000081526004016108109061363f565b60405180910390fd5b6000826fffffffffffffffffffffffffffffffff161161086e576040517f08c379a0000000000000000000000000000000000000000000000000000000008152600401610865906136d1565b60405180910390fd5b600860008273ffffffffffffffffffffffffffffffffffffffff1673ffffffffffffffffffffffffffffffffffffffff16815260200190815260200160002060003373ffffffffffffffffffffffffffffffffffffffff1673ffffffffffffffffffffffffffffffffffffffff16815260200190815260200160002060000160009054906101000a90046fffffffffffffffffffffffffffffffff166fffffffffffffffffffffffffffffffff16826fffffffffffffffffffffffffffffffff161015610970576040517f08c379a000000000000000000000000000000000000000000000000000000000815260040161096790613763565b60405180910390fd5b600760008273ffffffffffffffffffffffffffffffffffffffff1673ffffffffffffffffffffffffffffffffffffffff16815260200190815260200160002060000160009054906101000a900460ff166109ff576040517f08c379a00000000000000000000000000000000000000000000000000000000081526004016109f6906137cf565b60405180910390fd5b60008173ffffffffffffffffffffffffffffffffffffffff1663a9059cbb33856040518363ffffffff1660e01b8152600401610a3c92919061382a565b6020604051808303816000875af1158015610a5b573d6000803e3d6000fd5b505050506040513d601f19601f82011682018060405250810190610a7f919061387f565b905080610ac1576040517f08c379a0000000000000000000000000000000000000000000000000000000008152600401610ab8906138f8565b60405180910390fd5b610aca8261274d565b82600860008473ffffffffffffffffffffffffffffffffffffffff1673ffffffffffffffffffffffffffffffffffffffff16815260200190815260200160002060003373ffffffffffffffffffffffffffffffffffffffff1673ffffffffffffffffffffffffffffffffffffffff16815260200190815260200160002060000160008282829054906101000a90046fffffffffffffffffffffffffffffffff16610b749190613947565b92506101000a8154816fffffffffffffffffffffffffffffffff02191690836fffffffffffffffffffffffffffffffff16021790555042600860008473ffffffffffffffffffffffffffffffffffffffff1673ffffffffffffffffffffffffffffffffffffffff16815260200190815260200160002060003373ffffffffffffffffffffffffffffffffffffffff1673ffffffffffffffffffffffffffffffffffffffff168152602001908152602001600020600101819055506000604051806040016040528042815260200185600760008773ffffffffffffffffffffffffffffffffffffffff1673ffffffffffffffffffffffffffffffffffffffff16815260200190815260200160002060020160109054906101000a90046fffffffffffffffffffffffffffffffff16610cab9190613947565b6fffffffffffffffffffffffffffffffff168152509050600960008473ffffffffffffffffffffffffffffffffffffffff1673ffffffffffffffffffffffffffffffffffffffff1681526020019081526020016000208190806001815401808255809150506001900390600052602060002090600202016000909190919091506000820151816000015560208201518160010160006101000a8154816fffffffffffffffffffffffffffffffff02191690836fffffffffffffffffffffffffffffffff160217905550505083600760008573ffffffffffffffffffffffffffffffffffffffff1673ffffffffffffffffffffffffffffffffffffffff16815260200190815260200160002060020160108282829054906101000a90046fffffffffffffffffffffffffffffffff16610de39190613947565b92506101000a8154816fffffffffffffffffffffffffffffffff02191690836fffffffffffffffffffffffffffffffff1602179055507fbd791e6972e4060b94df68a5b4f17c30ebc1dc2a05086ce163bf93ccf08f41f333848642604051610e4e949392919061397b565b60405180910390a150505050565b600080610e676128c4565b9050610e74858285612b13565b610e7f858585612b9f565b60019150509392505050565b610e93612a95565b600760008473ffffffffffffffffffffffffffffffffffffffff1673ffffffffffffffffffffffffffffffffffffffff16815260200190815260200160002060000160009054906101000a900460ff1615610f23576040517f08c379a0000000000000000000000000000000000000000000000000000000008152600401610f1a90613a0c565b60405180910390fd5b6001600760008573ffffffffffffffffffffffffffffffffffffffff1673ffffffffffffffffffffffffffffffffffffffff16815260200190815260200160002060000160006101000a81548160ff02191690831515021790555081600760008573ffffffffffffffffffffffffffffffffffffffff1673ffffffffffffffffffffffffffffffffffffffff16815260200190815260200160002060020160006101000a8154816fffffffffffffffffffffffffffffffff02191690836fffffffffffffffffffffffffffffffff16021790555080600760008573ffffffffffffffffffffffffffffffffffffffff1673ffffffffffffffffffffffffffffffffffffffff16815260200190815260200160002060000160016101000a81548173ffffffffffffffffffffffffffffffffffffffff021916908373ffffffffffffffffffffffffffffffffffffffff1602179055507fbe4222bc407cb12031595fc55b46531e46308d31e4572c9c4360d8ae790e1a3183836040516110a992919061382a565b60405180910390a1505050565b60006012905090565b6000806110ca6128c4565b90506110eb8185856110dc85896126c6565b6110e69190613a2c565b6128cc565b600191505092915050565b6009602052816000526040600020818154811061111257600080fd5b9060005260206000209060020201600091509150508060000154908060010160009054906101000a90046fffffffffffffffffffffffffffffffff16905082565b600080600860008473ffffffffffffffffffffffffffffffffffffffff1673ffffffffffffffffffffffffffffffffffffffff16815260200190815260200160002060003373ffffffffffffffffffffffffffffffffffffffff1673ffffffffffffffffffffffffffffffffffffffff16815260200190815260200160002060000160009054906101000a90046fffffffffffffffffffffffffffffffff166fffffffffffffffffffffffffffffffff1611156112135760019050611218565b600090505b919050565b6000600160008373ffffffffffffffffffffffffffffffffffffffff1673ffffffffffffffffffffffffffffffffffffffff168152602001908152602001600020549050919050565b61126e612a95565b6112786000612e21565b565b6000600760008373ffffffffffffffffffffffffffffffffffffffff1673ffffffffffffffffffffffffffffffffffffffff16815260200190815260200160002060020160109054906101000a90046fffffffffffffffffffffffffffffffff166fffffffffffffffffffffffffffffffff169050919050565b60008060009054906101000a900473ffffffffffffffffffffffffffffffffffffffff16905090565b60606005805461132c9061352d565b80601f01602080910402602001604051908101604052809291908181526020018280546113589061352d565b80156113a55780601f1061137a576101008083540402835291602001916113a5565b820191906000526020600020905b81548152906001019060200180831161138857829003601f168201915b5050505050905090565b6000806113ba6128c4565b905060006113c882866126c6565b90508381101561140d576040517f08c379a000000000000000000000000000000000000000000000000000000000815260040161140490613af4565b60405180910390fd5b61141a82868684036128cc565b60019250505092915050565b6000806114316128c4565b905061143e818585612b9f565b600191505092915050565b6000826fffffffffffffffffffffffffffffffff161161149e576040517f08c379a0000000000000000000000000000000000000000000000000000000008152600401611495906136d1565b60405180910390fd5b600760008273ffffffffffffffffffffffffffffffffffffffff1673ffffffffffffffffffffffffffffffffffffffff16815260200190815260200160002060000160009054906101000a900460ff1661152d576040517f08c379a0000000000000000000000000000000000000000000000000000000008152600401611524906137cf565b60405180910390fd5b60008173ffffffffffffffffffffffffffffffffffffffff166323b872dd3330866040518463ffffffff1660e01b815260040161156c93929190613b14565b6020604051808303816000875af115801561158b573d6000803e3d6000fd5b505050506040513d601f19601f820116820180604052508101906115af919061387f565b9050806115f1576040517f08c379a00000000000000000000000000000000000000000000000000000000081526004016115e8906138f8565b60405180910390fd5b82600860008473ffffffffffffffffffffffffffffffffffffffff1673ffffffffffffffffffffffffffffffffffffffff16815260200190815260200160002060003373ffffffffffffffffffffffffffffffffffffffff1673ffffffffffffffffffffffffffffffffffffffff16815260200190815260200160002060000160008282829054906101000a90046fffffffffffffffffffffffffffffffff1661169b9190613b4b565b92506101000a8154816fffffffffffffffffffffffffffffffff02191690836fffffffffffffffffffffffffffffffff16021790555042600860008473ffffffffffffffffffffffffffffffffffffffff1673ffffffffffffffffffffffffffffffffffffffff16815260200190815260200160002060003373ffffffffffffffffffffffffffffffffffffffff1673ffffffffffffffffffffffffffffffffffffffff168152602001908152602001600020600101819055506000604051806040016040528042815260200185600760008773ffffffffffffffffffffffffffffffffffffffff1673ffffffffffffffffffffffffffffffffffffffff16815260200190815260200160002060020160109054906101000a90046fffffffffffffffffffffffffffffffff166117d29190613b4b565b6fffffffffffffffffffffffffffffffff168152509050600960008473ffffffffffffffffffffffffffffffffffffffff1673ffffffffffffffffffffffffffffffffffffffff1681526020019081526020016000208190806001815401808255809150506001900390600052602060002090600202016000909190919091506000820151816000015560208201518160010160006101000a8154816fffffffffffffffffffffffffffffffff02191690836fffffffffffffffffffffffffffffffff160217905550505083600760008573ffffffffffffffffffffffffffffffffffffffff1673ffffffffffffffffffffffffffffffffffffffff16815260200190815260200160002060020160108282829054906101000a90046fffffffffffffffffffffffffffffffff1661190a9190613b4b565b92506101000a8154816fffffffffffffffffffffffffffffffff02191690836fffffffffffffffffffffffffffffffff1602179055507f1668de67314c72bac0de03c24eeecb3c305dc4cdf055be48782f2c7a09bc39ca33848642604051611975949392919061397b565b60405180910390a16119868361274d565b50505050565b600061199782611153565b6119d6576040517f08c379a00000000000000000000000000000000000000000000000000000000081526004016119cd9061363f565b60405180910390fd5b6000611a43600760008573ffffffffffffffffffffffffffffffffffffffff1673ffffffffffffffffffffffffffffffffffffffff16815260200190815260200160002060000160019054906101000a900473ffffffffffffffffffffffffffffffffffffffff16612ee5565b905060006301e133806305f5e100600760008773ffffffffffffffffffffffffffffffffffffffff1673ffffffffffffffffffffffffffffffffffffffff16815260200190815260200160002060020160009054906101000a90046fffffffffffffffffffffffffffffffff16611aba9190613b91565b611ac49190613c0a565b6fffffffffffffffffffffffffffffffff169050600080600960008773ffffffffffffffffffffffffffffffffffffffff1673ffffffffffffffffffffffffffffffffffffffff168152602001908152602001600020805490509050600080600090505b82811015611c2f57600860008973ffffffffffffffffffffffffffffffffffffffff1673ffffffffffffffffffffffffffffffffffffffff16815260200190815260200160002060003373ffffffffffffffffffffffffffffffffffffffff1673ffffffffffffffffffffffffffffffffffffffff16815260200190815260200160002060010154600960008a73ffffffffffffffffffffffffffffffffffffffff1673ffffffffffffffffffffffffffffffffffffffff1681526020019081526020016000208281548110611c0157611c00613c3b565b5b90600052602060002090600202016000015403611c1c578091505b8080611c2790613c6a565b915050611b28565b50600760008873ffffffffffffffffffffffffffffffffffffffff1673ffffffffffffffffffffffffffffffffffffffff16815260200190815260200160002060000160009054906101000a900460ff16156121545760018203611d2a57600860008873ffffffffffffffffffffffffffffffffffffffff1673ffffffffffffffffffffffffffffffffffffffff16815260200190815260200160002060003373ffffffffffffffffffffffffffffffffffffffff1673ffffffffffffffffffffffffffffffffffffffff1681526020019081526020016000206001015442611d189190613cb2565b83611d239190613a2c565b925061214f565b60008190505b600183611d3d9190613cb2565b811015611f9357600960008973ffffffffffffffffffffffffffffffffffffffff1673ffffffffffffffffffffffffffffffffffffffff1681526020019081526020016000208181548110611d9557611d94613c3b565b5b906000526020600020906002020160010160009054906101000a90046fffffffffffffffffffffffffffffffff166fffffffffffffffffffffffffffffffff16600860008a73ffffffffffffffffffffffffffffffffffffffff1673ffffffffffffffffffffffffffffffffffffffff16815260200190815260200160002060003373ffffffffffffffffffffffffffffffffffffffff1673ffffffffffffffffffffffffffffffffffffffff16815260200190815260200160002060000160009054906101000a90046fffffffffffffffffffffffffffffffff166fffffffffffffffffffffffffffffffff16600960008b73ffffffffffffffffffffffffffffffffffffffff1673ffffffffffffffffffffffffffffffffffffffff1681526020019081526020016000208381548110611ed457611ed3613c3b565b5b906000526020600020906002020160000154600960008c73ffffffffffffffffffffffffffffffffffffffff1673ffffffffffffffffffffffffffffffffffffffff168152602001908152602001600020600185611f329190613a2c565b81548110611f4357611f42613c3b565b5b906000526020600020906002020160000154611f5f9190613cb2565b611f699190613ce6565b611f739190613d40565b84611f7e9190613a2c565b93508080611f8b90613c6a565b915050611d30565b50600760008873ffffffffffffffffffffffffffffffffffffffff1673ffffffffffffffffffffffffffffffffffffffff16815260200190815260200160002060020160109054906101000a90046fffffffffffffffffffffffffffffffff166fffffffffffffffffffffffffffffffff16600860008973ffffffffffffffffffffffffffffffffffffffff1673ffffffffffffffffffffffffffffffffffffffff16815260200190815260200160002060003373ffffffffffffffffffffffffffffffffffffffff1673ffffffffffffffffffffffffffffffffffffffff16815260200190815260200160002060000160009054906101000a90046fffffffffffffffffffffffffffffffff166fffffffffffffffffffffffffffffffff16600960008a73ffffffffffffffffffffffffffffffffffffffff1673ffffffffffffffffffffffffffffffffffffffff1681526020019081526020016000206001856120ff9190613cb2565b815481106121105761210f613c3b565b5b9060005260206000209060020201600001544261212d9190613cb2565b6121379190613ce6565b6121419190613d40565b8361214c9190613a2c565b92505b6126a3565b6001820361223b57600860008873ffffffffffffffffffffffffffffffffffffffff1673ffffffffffffffffffffffffffffffffffffffff16815260200190815260200160002060003373ffffffffffffffffffffffffffffffffffffffff1673ffffffffffffffffffffffffffffffffffffffff16815260200190815260200160002060010154600760008973ffffffffffffffffffffffffffffffffffffffff1673ffffffffffffffffffffffffffffffffffffffff168152602001908152602001600020600101546122299190613cb2565b836122349190613a2c565b92506126a2565b60008190505b60018361224e9190613cb2565b8110156124a457600960008973ffffffffffffffffffffffffffffffffffffffff1673ffffffffffffffffffffffffffffffffffffffff16815260200190815260200160002081815481106122a6576122a5613c3b565b5b906000526020600020906002020160010160009054906101000a90046fffffffffffffffffffffffffffffffff166fffffffffffffffffffffffffffffffff16600860008a73ffffffffffffffffffffffffffffffffffffffff1673ffffffffffffffffffffffffffffffffffffffff16815260200190815260200160002060003373ffffffffffffffffffffffffffffffffffffffff1673ffffffffffffffffffffffffffffffffffffffff16815260200190815260200160002060000160009054906101000a90046fffffffffffffffffffffffffffffffff166fffffffffffffffffffffffffffffffff16600960008b73ffffffffffffffffffffffffffffffffffffffff1673ffffffffffffffffffffffffffffffffffffffff16815260200190815260200160002083815481106123e5576123e4613c3b565b5b906000526020600020906002020160000154600960008c73ffffffffffffffffffffffffffffffffffffffff1673ffffffffffffffffffffffffffffffffffffffff1681526020019081526020016000206001856124439190613a2c565b8154811061245457612453613c3b565b5b9060005260206000209060020201600001546124709190613cb2565b61247a9190613ce6565b6124849190613d40565b8461248f9190613a2c565b9350808061249c90613c6a565b915050612241565b50600760008873ffffffffffffffffffffffffffffffffffffffff1673ffffffffffffffffffffffffffffffffffffffff16815260200190815260200160002060020160109054906101000a90046fffffffffffffffffffffffffffffffff166fffffffffffffffffffffffffffffffff16600860008973ffffffffffffffffffffffffffffffffffffffff1673ffffffffffffffffffffffffffffffffffffffff16815260200190815260200160002060003373ffffffffffffffffffffffffffffffffffffffff1673ffffffffffffffffffffffffffffffffffffffff16815260200190815260200160002060000160009054906101000a90046fffffffffffffffffffffffffffffffff166fffffffffffffffffffffffffffffffff16600960008a73ffffffffffffffffffffffffffffffffffffffff1673ffffffffffffffffffffffffffffffffffffffff1681526020019081526020016000206001856126109190613cb2565b8154811061262157612620613c3b565b5b906000526020600020906002020160000154600760008b73ffffffffffffffffffffffffffffffffffffffff1673ffffffffffffffffffffffffffffffffffffffff168152602001908152602001600020600101546126809190613cb2565b61268a9190613ce6565b6126949190613d40565b8361269f9190613a2c565b92505b5b8385846126b09190613ce6565b6126ba9190613ce6565b95505050505050919050565b6000600260008473ffffffffffffffffffffffffffffffffffffffff1673ffffffffffffffffffffffffffffffffffffffff16815260200190815260200160002060008373ffffffffffffffffffffffffffffffffffffffff1673ffffffffffffffffffffffffffffffffffffffff16815260200190815260200160002054905092915050565b61275681611153565b612795576040517f08c379a000000000000000000000000000000000000000000000000000000000815260040161278c9061363f565b60405180910390fd5b60006006546127a38361198c565b6127ad9190613d40565b905042600860008473ffffffffffffffffffffffffffffffffffffffff1673ffffffffffffffffffffffffffffffffffffffff16815260200190815260200160002060003373ffffffffffffffffffffffffffffffffffffffff1673ffffffffffffffffffffffffffffffffffffffff1681526020019081526020016000206001018190555061283d3382612f6c565b5050565b612849612a95565b600073ffffffffffffffffffffffffffffffffffffffff168173ffffffffffffffffffffffffffffffffffffffff16036128b8576040517f08c379a00000000000000000000000000000000000000000000000000000000081526004016128af90613de3565b60405180910390fd5b6128c181612e21565b50565b600033905090565b600073ffffffffffffffffffffffffffffffffffffffff168373ffffffffffffffffffffffffffffffffffffffff160361293b576040517f08c379a000000000000000000000000000000000000000000000000000000000815260040161293290613e75565b60405180910390fd5b600073ffffffffffffffffffffffffffffffffffffffff168273ffffffffffffffffffffffffffffffffffffffff16036129aa576040517f08c379a00000000000000000000000000000000000000000000000000000000081526004016129a190613f07565b60405180910390fd5b80600260008573ffffffffffffffffffffffffffffffffffffffff1673ffffffffffffffffffffffffffffffffffffffff16815260200190815260200160002060008473ffffffffffffffffffffffffffffffffffffffff1673ffffffffffffffffffffffffffffffffffffffff168152602001908152602001600020819055508173ffffffffffffffffffffffffffffffffffffffff168373ffffffffffffffffffffffffffffffffffffffff167f8c5be1e5ebec7d5bd14f71427d1e84f3dd0314c0f7b2291e5b200ac8c7c3b92583604051612a8891906132dc565b60405180910390a3505050565b612a9d6128c4565b73ffffffffffffffffffffffffffffffffffffffff16612abb6112f4565b73ffffffffffffffffffffffffffffffffffffffff1614612b11576040517f08c379a0000000000000000000000000000000000000000000000000000000008152600401612b0890613f73565b60405180910390fd5b565b6000612b1f84846126c6565b90507fffffffffffffffffffffffffffffffffffffffffffffffffffffffffffffffff8114612b995781811015612b8b576040517f08c379a0000000000000000000000000000000000000000000000000000000008152600401612b8290613fdf565b60405180910390fd5b612b9884848484036128cc565b5b50505050565b600073ffffffffffffffffffffffffffffffffffffffff168373ffffffffffffffffffffffffffffffffffffffff1603612c0e576040517f08c379a0000000000000000000000000000000000000000000000000000000008152600401612c0590614071565b60405180910390fd5b600073ffffffffffffffffffffffffffffffffffffffff168273ffffffffffffffffffffffffffffffffffffffff1603612c7d576040517f08c379a0000000000000000000000000000000000000000000000000000000008152600401612c7490614103565b60405180910390fd5b612c888383836130cc565b6000600160008573ffffffffffffffffffffffffffffffffffffffff1673ffffffffffffffffffffffffffffffffffffffff16815260200190815260200160002054905081811015612d0f576040517f08c379a0000000000000000000000000000000000000000000000000000000008152600401612d0690614195565b60405180910390fd5b818103600160008673ffffffffffffffffffffffffffffffffffffffff1673ffffffffffffffffffffffffffffffffffffffff1681526020019081526020016000208190555081600160008573ffffffffffffffffffffffffffffffffffffffff1673ffffffffffffffffffffffffffffffffffffffff1681526020019081526020016000206000828254612da49190613a2c565b925050819055508273ffffffffffffffffffffffffffffffffffffffff168473ffffffffffffffffffffffffffffffffffffffff167fddf252ad1be2c89b69c2b068fc378daa952ba7f163c4a11628f55a4df523b3ef84604051612e0891906132dc565b60405180910390a3612e1b8484846130d1565b50505050565b60008060009054906101000a900473ffffffffffffffffffffffffffffffffffffffff169050816000806101000a81548173ffffffffffffffffffffffffffffffffffffffff021916908373ffffffffffffffffffffffffffffffffffffffff1602179055508173ffffffffffffffffffffffffffffffffffffffff168173ffffffffffffffffffffffffffffffffffffffff167f8be0079c531659141344cd1fd0a4f28419497f9722a3daafe3b4186f6b6457e060405160405180910390a35050565b60008082905060008173ffffffffffffffffffffffffffffffffffffffff1663feaf968c6040518163ffffffff1660e01b815260040160a060405180830381865afa158015612f38573d6000803e3d6000fd5b505050506040513d601f19601f82011682018060405250810190612f5c9190614242565b5050509150508092505050919050565b600073ffffffffffffffffffffffffffffffffffffffff168273ffffffffffffffffffffffffffffffffffffffff1603612fdb576040517f08c379a0000000000000000000000000000000000000000000000000000000008152600401612fd290614309565b60405180910390fd5b612fe7600083836130cc565b8060036000828254612ff99190613a2c565b9250508190555080600160008473ffffffffffffffffffffffffffffffffffffffff1673ffffffffffffffffffffffffffffffffffffffff168152602001908152602001600020600082825461304f9190613a2c565b925050819055508173ffffffffffffffffffffffffffffffffffffffff16600073ffffffffffffffffffffffffffffffffffffffff167fddf252ad1be2c89b69c2b068fc378daa952ba7f163c4a11628f55a4df523b3ef836040516130b491906132dc565b60405180910390a36130c8600083836130d1565b5050565b505050565b505050565b600081519050919050565b600082825260208201905092915050565b60005b838110156131105780820151818401526020810190506130f5565b8381111561311f576000848401525b50505050565b6000601f19601f8301169050919050565b6000613141826130d6565b61314b81856130e1565b935061315b8185602086016130f2565b61316481613125565b840191505092915050565b600060208201905081810360008301526131898184613136565b905092915050565b600080fd5b600073ffffffffffffffffffffffffffffffffffffffff82169050919050565b60006131c182613196565b9050919050565b6131d1816131b6565b81146131dc57600080fd5b50565b6000813590506131ee816131c8565b92915050565b6000819050919050565b613207816131f4565b811461321257600080fd5b50565b600081359050613224816131fe565b92915050565b6000806040838503121561324157613240613191565b5b600061324f858286016131df565b925050602061326085828601613215565b9150509250929050565b60008115159050919050565b61327f8161326a565b82525050565b600060208201905061329a6000830184613276565b92915050565b6000602082840312156132b6576132b5613191565b5b60006132c4848285016131df565b91505092915050565b6132d6816131f4565b82525050565b60006020820190506132f160008301846132cd565b92915050565b60006fffffffffffffffffffffffffffffffff82169050919050565b61331c816132f7565b811461332757600080fd5b50565b60008135905061333981613313565b92915050565b6000806040838503121561335657613355613191565b5b60006133648582860161332a565b9250506020613375858286016131df565b9150509250929050565b60008060006060848603121561339857613397613191565b5b60006133a6868287016131df565b93505060206133b7868287016131df565b92505060406133c886828701613215565b9150509250925092565b6000806000606084860312156133eb576133ea613191565b5b60006133f9868287016131df565b935050602061340a8682870161332a565b925050604061341b868287016131df565b9150509250925092565b600060ff82169050919050565b61343b81613425565b82525050565b60006020820190506134566000830184613432565b92915050565b613465816132f7565b82525050565b600060408201905061348060008301856132cd565b61348d602083018461345c565b9392505050565b61349d816131b6565b82525050565b60006020820190506134b86000830184613494565b92915050565b600080604083850312156134d5576134d4613191565b5b60006134e3858286016131df565b92505060206134f4858286016131df565b9150509250929050565b7f4e487b7100000000000000000000000000000000000000000000000000000000600052602260045260246000fd5b6000600282049050600182168061354557607f821691505b602082108103613558576135576134fe565b5b50919050565b7f506f6f6c206973206e6f74206163746976650000000000000000000000000000600082015250565b60006135946012836130e1565b915061359f8261355e565b602082019050919050565b600060208201905081810360008301526135c381613587565b9050919050565b60006040820190506135df6000830185613494565b6135ec60208301846132cd565b9392505050565b7f596f7520617265206e6f742061207374616b6572000000000000000000000000600082015250565b60006136296014836130e1565b9150613634826135f3565b602082019050919050565b600060208201905081810360008301526136588161361c565b9050919050565b7f54686520616d6f756e74206d7573742062652067726561746572207468616e2060008201527f7a65726f2e000000000000000000000000000000000000000000000000000000602082015250565b60006136bb6025836130e1565b91506136c68261365f565b604082019050919050565b600060208201905081810360008301526136ea816136ae565b9050919050565b7f596f7520646f6e27742068617665207468697320616d6f756e74206f6620746f60008201527f6b656e0000000000000000000000000000000000000000000000000000000000602082015250565b600061374d6023836130e1565b9150613758826136f1565b604082019050919050565b6000602082019050818103600083015261377c81613740565b9050919050565b7f5468697320746f6b656e2069736e277420617661696c61626c652e0000000000600082015250565b60006137b9601b836130e1565b91506137c482613783565b602082019050919050565b600060208201905081810360008301526137e8816137ac565b9050919050565b6000819050919050565b600061381461380f61380a846132f7565b6137ef565b6131f4565b9050919050565b613824816137f9565b82525050565b600060408201905061383f6000830185613494565b61384c602083018461381b565b9392505050565b61385c8161326a565b811461386757600080fd5b50565b60008151905061387981613853565b92915050565b60006020828403121561389557613894613191565b5b60006138a38482850161386a565b91505092915050565b7f5472616e736665722066726f6d206572726f7200000000000000000000000000600082015250565b60006138e26013836130e1565b91506138ed826138ac565b602082019050919050565b60006020820190508181036000830152613911816138d5565b9050919050565b7f4e487b7100000000000000000000000000000000000000000000000000000000600052601160045260246000fd5b6000613952826132f7565b915061395d836132f7565b9250828210156139705761396f613918565b5b828203905092915050565b60006080820190506139906000830187613494565b61399d6020830186613494565b6139aa604083018561345c565b6139b760608301846132cd565b95945050505050565b7f5468697320746f6b656e20616c72656164792065786973740000000000000000600082015250565b60006139f66018836130e1565b9150613a01826139c0565b602082019050919050565b60006020820190508181036000830152613a25816139e9565b9050919050565b6000613a37826131f4565b9150613a42836131f4565b9250827fffffffffffffffffffffffffffffffffffffffffffffffffffffffffffffffff03821115613a7757613a76613918565b5b828201905092915050565b7f45524332303a2064656372656173656420616c6c6f77616e63652062656c6f7760008201527f207a65726f000000000000000000000000000000000000000000000000000000602082015250565b6000613ade6025836130e1565b9150613ae982613a82565b604082019050919050565b60006020820190508181036000830152613b0d81613ad1565b9050919050565b6000606082019050613b296000830186613494565b613b366020830185613494565b613b43604083018461381b565b949350505050565b6000613b56826132f7565b9150613b61836132f7565b9250826fffffffffffffffffffffffffffffffff03821115613b8657613b85613918565b5b828201905092915050565b6000613b9c826132f7565b9150613ba7836132f7565b9250816fffffffffffffffffffffffffffffffff0483118215151615613bd057613bcf613918565b5b828202905092915050565b7f4e487b7100000000000000000000000000000000000000000000000000000000600052601260045260246000fd5b6000613c15826132f7565b9150613c20836132f7565b925082613c3057613c2f613bdb565b5b828204905092915050565b7f4e487b7100000000000000000000000000000000000000000000000000000000600052603260045260246000fd5b6000613c75826131f4565b91507fffffffffffffffffffffffffffffffffffffffffffffffffffffffffffffffff8203613ca757613ca6613918565b5b600182019050919050565b6000613cbd826131f4565b9150613cc8836131f4565b925082821015613cdb57613cda613918565b5b828203905092915050565b6000613cf1826131f4565b9150613cfc836131f4565b9250817fffffffffffffffffffffffffffffffffffffffffffffffffffffffffffffffff0483118215151615613d3557613d34613918565b5b828202905092915050565b6000613d4b826131f4565b9150613d56836131f4565b925082613d6657613d65613bdb565b5b828204905092915050565b7f4f776e61626c653a206e6577206f776e657220697320746865207a65726f206160008201527f6464726573730000000000000000000000000000000000000000000000000000602082015250565b6000613dcd6026836130e1565b9150613dd882613d71565b604082019050919050565b60006020820190508181036000830152613dfc81613dc0565b9050919050565b7f45524332303a20617070726f76652066726f6d20746865207a65726f2061646460008201527f7265737300000000000000000000000000000000000000000000000000000000602082015250565b6000613e5f6024836130e1565b9150613e6a82613e03565b604082019050919050565b60006020820190508181036000830152613e8e81613e52565b9050919050565b7f45524332303a20617070726f766520746f20746865207a65726f20616464726560008201527f7373000000000000000000000000000000000000000000000000000000000000602082015250565b6000613ef16022836130e1565b9150613efc82613e95565b604082019050919050565b60006020820190508181036000830152613f2081613ee4565b9050919050565b7f4f776e61626c653a2063616c6c6572206973206e6f7420746865206f776e6572600082015250565b6000613f5d6020836130e1565b9150613f6882613f27565b602082019050919050565b60006020820190508181036000830152613f8c81613f50565b9050919050565b7f45524332303a20696e73756666696369656e7420616c6c6f77616e6365000000600082015250565b6000613fc9601d836130e1565b9150613fd482613f93565b602082019050919050565b60006020820190508181036000830152613ff881613fbc565b9050919050565b7f45524332303a207472616e736665722066726f6d20746865207a65726f20616460008201527f6472657373000000000000000000000000000000000000000000000000000000602082015250565b600061405b6025836130e1565b915061406682613fff565b604082019050919050565b6000602082019050818103600083015261408a8161404e565b9050919050565b7f45524332303a207472616e7366657220746f20746865207a65726f206164647260008201527f6573730000000000000000000000000000000000000000000000000000000000602082015250565b60006140ed6023836130e1565b91506140f882614091565b604082019050919050565b6000602082019050818103600083015261411c816140e0565b9050919050565b7f45524332303a207472616e7366657220616d6f756e742065786365656473206260008201527f616c616e63650000000000000000000000000000000000000000000000000000602082015250565b600061417f6026836130e1565b915061418a82614123565b604082019050919050565b600060208201905081810360008301526141ae81614172565b9050919050565b600069ffffffffffffffffffff82169050919050565b6141d4816141b5565b81146141df57600080fd5b50565b6000815190506141f1816141cb565b92915050565b6000819050919050565b61420a816141f7565b811461421557600080fd5b50565b60008151905061422781614201565b92915050565b60008151905061423c816131fe565b92915050565b600080600080600060a0868803121561425e5761425d613191565b5b600061426c888289016141e2565b955050602061427d88828901614218565b945050604061428e8882890161422d565b935050606061429f8882890161422d565b92505060806142b0888289016141e2565b9150509295509295909350565b7f45524332303a206d696e7420746f20746865207a65726f206164647265737300600082015250565b60006142f3601f836130e1565b91506142fe826142bd565b602082019050919050565b60006020820190508181036000830152614322816142e6565b905091905056fea26469706673582212207991c2f4a872d93ea6735e8b9bdf4924c492474c8a64070b8d15784e777e7cf564736f6c634300080e0033",
  "immutableReferences": {},
  "source": "// SPDX-License-Identifier: MIT\r\npragma solidity 0.8.14;\r\n\r\nimport \"../node_modules/@openzeppelin/contracts/token/ERC20/IERC20.sol\";\r\nimport \"../node_modules/@openzeppelin/contracts/access/Ownable.sol\";\r\nimport \"../node_modules/@chainlink/contracts/src/v0.8/interfaces/AggregatorV3Interface.sol\";\r\nimport \"./CrowdV.sol\";\r\n\r\n/**\r\n * @title Staking : a Staking Plateform !\r\n * @author Anthony - Etienne - Jean-Baptiste\r\n */\r\n\r\ncontract Staking is Ownable, CrowdV {\r\n    //Price of reward token in $\r\n    uint256 priceTokenRewardInDollar = 1;\r\n\r\n    //Information about the token\r\n    struct Token {\r\n        bool activePool;\r\n        address addressPrice; //Chainlink Pool\r\n        uint256 dateStop;\r\n        uint128 APR;\r\n        uint128 totalStakes;\r\n    }\r\n\r\n    // Token address => active pool\r\n    mapping(address => Token) pools;\r\n\r\n    struct Staker {\r\n        uint128 amount; // Amount token stake\r\n        uint256 date; // Date of stake start\r\n    }\r\n\r\n    // address token => address Staker => Informations Staker\r\n    mapping(address => mapping(address => Staker)) stakers;\r\n\r\n    // Save total amount with timestamp\r\n    struct majStackingPool {\r\n        uint256 blockDate;\r\n        uint128 stakingTotalPool;\r\n    }\r\n    mapping(address => majStackingPool[]) public stakingTimes;\r\n\r\n    // Events\r\n    event NewPool(address tokenAddress, uint256 APR);\r\n    event StopPool(address tokenAddress, uint256 date);\r\n    event Stake(\r\n        address sender,\r\n        address tokenAddress,\r\n        uint128 amount,\r\n        uint256 date\r\n    );\r\n    event Unstake(\r\n        address sender,\r\n        address tokenAddress,\r\n        uint128 amount,\r\n        uint256 date\r\n    );\r\n\r\n    /**\r\n     * @notice Make available token address to add pool\r\n     * @dev Available only for owner\r\n     * @param _token is token address\r\n     * @param _apr is APR of the pool\r\n     * @param _addressPrice is Chainlink pool\r\n     */\r\n    function addPool(\r\n        address _token,\r\n        uint128 _apr,\r\n        address _addressPrice\r\n    ) external onlyOwner {\r\n        require(!pools[_token].activePool, \"This token already exist\");\r\n\r\n        pools[_token].activePool = true;\r\n        pools[_token].APR = _apr;\r\n        pools[_token].addressPrice = _addressPrice;\r\n\r\n        emit NewPool(_token, _apr);\r\n    }\r\n\r\n    /**\r\n     * @notice disable a pool\r\n     * @dev Available only for owner\r\n     * @param _token is token address\r\n     */\r\n    function stopPool(address _token) external onlyOwner {\r\n        require(\r\n            pools[_token].activePool,\r\n            \"Pool is not active\"\r\n        );\r\n        pools[_token].activePool = false;\r\n        pools[_token].dateStop = block.timestamp;\r\n\r\n        emit StopPool(_token, block.timestamp);\r\n    }\r\n\r\n    /**\r\n     * @notice Stake fund into this contract\r\n     * @param _amount to stake\r\n     * @param _token to stake\r\n     * @dev Emit event after stake\r\n     */\r\n    function stake(uint128 _amount, address _token) external {\r\n        require(_amount > 0, \"The amount must be greater than zero.\");\r\n        require(pools[_token].activePool, \"This token isn't available.\");\r\n\r\n        bool result = IERC20(_token).transferFrom(\r\n            msg.sender,\r\n            address(this),\r\n            _amount\r\n        );\r\n        require(result, \"Transfer from error\");\r\n\r\n        stakers[_token][msg.sender].amount += _amount;\r\n        stakers[_token][msg.sender].date = block.timestamp;\r\n\r\n        majStackingPool memory maj = majStackingPool(\r\n            block.timestamp,\r\n            pools[_token].totalStakes + _amount\r\n        );\r\n        stakingTimes[_token].push(maj);\r\n\r\n        pools[_token].totalStakes += _amount;\r\n\r\n        emit Stake(msg.sender, _token, _amount, block.timestamp);\r\n\r\n        claimRewards(_token); // Rcuprer les rewards en mme temps\r\n    }\r\n\r\n    /**\r\n     * @notice Withdraw fund into this contract\r\n     * @param _token to unstake\r\n     * @param _amount number of token to unstake\r\n     */\r\n    function withdraw(uint128 _amount, address _token) external {\r\n        require(isStaker(_token), \"You are not a staker\");\r\n        require(_amount > 0, \"The amount must be greater than zero.\");\r\n        require(_amount >= stakers[_token][msg.sender].amount, \"You don't have this amount of token\");\r\n        require(pools[_token].activePool, \"This token isn't available.\"); //pas sr que ce soit ncessaire\r\n\r\n        bool result = IERC20(_token).transfer(msg.sender, _amount);\r\n        require(result, \"Transfer from error\");\r\n\r\n        claimRewards(_token); // Rcuprer les rewards en mme temps\r\n\r\n        stakers[_token][msg.sender].amount -= _amount;\r\n        stakers[_token][msg.sender].date = block.timestamp;\r\n\r\n        majStackingPool memory maj = majStackingPool(\r\n            block.timestamp,\r\n            pools[_token].totalStakes - _amount\r\n        );\r\n        stakingTimes[_token].push(maj);\r\n\r\n        pools[_token].totalStakes -= _amount;\r\n\r\n        emit Unstake(msg.sender, _token, _amount, block.timestamp);\r\n    }\r\n\r\n    /**\r\n     * @notice Get price of token with Chainlink\r\n     * @param _pairChainlinkAddress is the pool adress in $\r\n     */\r\n    function _getLatestPrice(address _pairChainlinkAddress)\r\n        private\r\n        view\r\n        returns (uint256)\r\n    {\r\n        AggregatorV3Interface priceFeed = AggregatorV3Interface(\r\n            _pairChainlinkAddress\r\n        );\r\n        (, int256 price, , , ) = priceFeed.latestRoundData();\r\n\r\n        return uint256(price);\r\n    }\r\n\r\n    /**\r\n     * @notice Calculate rewards\r\n     * @dev tokenPrice use Chainlink Oracle\r\n     * @param _token is the token of pool to calculate rewards\r\n     * @return rewards in dollars\r\n     */\r\n    function calculateReward(address _token) public view returns (uint256) {\r\n        require(isStaker(_token), \"You are not a staker\");\r\n        uint256 tokenPrice = _getLatestPrice(pools[_token].addressPrice);\r\n        uint256 aprPerSeconds = ((pools[_token].APR) * 10**8) /\r\n            (365 * 24 * 3600);\r\n        uint256 rewardspartoOfPool;\r\n        uint256 x = stakingTimes[_token].length;\r\n        uint256 blockIndex;\r\n        for (uint256 i = 0; i < x; i++) {\r\n            if (\r\n                stakingTimes[_token][i].blockDate ==\r\n                stakers[_token][msg.sender].date\r\n            ) {\r\n                blockIndex = i;\r\n            }\r\n        }\r\n\r\n        if (pools[_token].activePool) {\r\n            if (x == 1) {\r\n                rewardspartoOfPool += (block.timestamp -\r\n                    stakers[_token][msg.sender].date);\r\n            } else {\r\n                for (uint256 i = blockIndex; i < x - 1; i++) {\r\n                    rewardspartoOfPool +=\r\n                        ((stakingTimes[_token][i + 1].blockDate -\r\n                            stakingTimes[_token][i].blockDate) *\r\n                            stakers[_token][msg.sender].amount) /\r\n                        stakingTimes[_token][i].stakingTotalPool;\r\n                }\r\n                rewardspartoOfPool +=\r\n                    ((block.timestamp - stakingTimes[_token][x - 1].blockDate) *\r\n                        stakers[_token][msg.sender].amount) /\r\n                    pools[_token].totalStakes;\r\n            }\r\n        } else {\r\n            if (x == 1) {\r\n                rewardspartoOfPool += (pools[_token].dateStop -\r\n                    stakers[_token][msg.sender].date);\r\n            } else {\r\n                for (uint256 i = blockIndex; i < x - 1; i++) {\r\n                    rewardspartoOfPool +=\r\n                        ((stakingTimes[_token][i + 1].blockDate -\r\n                            stakingTimes[_token][i].blockDate) *\r\n                            stakers[_token][msg.sender].amount) /\r\n                        stakingTimes[_token][i].stakingTotalPool;\r\n                }\r\n                rewardspartoOfPool +=\r\n                    ((pools[_token].dateStop -\r\n                        stakingTimes[_token][x - 1].blockDate) *\r\n                        stakers[_token][msg.sender].amount) /\r\n                    pools[_token].totalStakes;\r\n            }\r\n        }\r\n\r\n        return rewardspartoOfPool * tokenPrice * aprPerSeconds;\r\n    }\r\n\r\n    /**\r\n     * @notice Claim your rewards\r\n     * @dev Available only for stakers who have rewards to claim\r\n     * @param _token is token of the pool to claim rewards\r\n     */\r\n    function claimRewards(address _token) public {\r\n        require(isStaker(_token), \"You are not a staker\");\r\n\r\n        uint256 amoutToClaim = calculateReward(_token) /\r\n            priceTokenRewardInDollar;\r\n        stakers[_token][msg.sender].date = block.timestamp; //Remettre  0 le timestamp\r\n        _mint(msg.sender, amoutToClaim);\r\n    }\r\n\r\n    /**\r\n     * @notice Check amount of a stacked pool from msg.sender\r\n     * @param _token is address token of the pool to check\r\n     */\r\n    function getStaking(address _token) external view returns (uint256) {\r\n        return stakers[_token][msg.sender].amount;\r\n    }\r\n\r\n    /**\r\n     * @notice Check if msg.sender is a staker of a pool\r\n     * @dev Can be used to show the staked pools on the Dapp\r\n     * @param _token is address token of a pool\r\n     */\r\n    function isStaker(address _token) public view returns (bool) {\r\n        if (stakers[_token][msg.sender].amount > 0) {\r\n            return true;\r\n        }\r\n        return false;\r\n    }\r\n\r\n    /**\r\n     * @notice Check total amount of a stacked pool\r\n     * @param _token is address token\r\n     */\r\n    function getTotalStaking(address _token) external view returns (uint256) {\r\n        return pools[_token].totalStakes;\r\n    }\r\n\r\n}",
  "sourcePath": "/home/etienne/workspace/tp-defi/truffle/contracts/Staking.sol",
  "compiler": {
    "name": "solc",
    "version": "0.8.14+commit.80d49f37.Emscripten.clang"
  },
  "schemaVersion": "3.4.7",
  "updatedAt": "2022-08-04T19:51:29.758Z",
  "networkType": "ethereum",
  "devdoc": {
    "author": "Anthony - Etienne - Jean-Baptiste",
    "kind": "dev",
    "methods": {
      "addPool(address,uint128,address)": {
        "details": "Available only for owner",
        "params": {
          "_addressPrice": "is Chainlink pool",
          "_apr": "is APR of the pool",
          "_token": "is token address"
        }
      },
      "allowance(address,address)": {
        "details": "See {IERC20-allowance}."
      },
      "approve(address,uint256)": {
        "details": "See {IERC20-approve}. NOTE: If `amount` is the maximum `uint256`, the allowance is not updated on `transferFrom`. This is semantically equivalent to an infinite approval. Requirements: - `spender` cannot be the zero address."
      },
      "balanceOf(address)": {
        "details": "See {IERC20-balanceOf}."
      },
      "calculateReward(address)": {
        "details": "tokenPrice use Chainlink Oracle",
        "params": {
          "_token": "is the token of pool to calculate rewards"
        },
        "returns": {
          "_0": "rewards in dollars"
        }
      },
      "claimRewards(address)": {
        "details": "Available only for stakers who have rewards to claim",
        "params": {
          "_token": "is token of the pool to claim rewards"
        }
      },
      "decimals()": {
        "details": "Returns the number of decimals used to get its user representation. For example, if `decimals` equals `2`, a balance of `505` tokens should be displayed to a user as `5.05` (`505 / 10 ** 2`). Tokens usually opt for a value of 18, imitating the relationship between Ether and Wei. This is the value {ERC20} uses, unless this function is overridden; NOTE: This information is only used for _display_ purposes: it in no way affects any of the arithmetic of the contract, including {IERC20-balanceOf} and {IERC20-transfer}."
      },
      "decreaseAllowance(address,uint256)": {
        "details": "Atomically decreases the allowance granted to `spender` by the caller. This is an alternative to {approve} that can be used as a mitigation for problems described in {IERC20-approve}. Emits an {Approval} event indicating the updated allowance. Requirements: - `spender` cannot be the zero address. - `spender` must have allowance for the caller of at least `subtractedValue`."
      },
      "getStaking(address)": {
        "params": {
          "_token": "is address token of the pool to check"
        }
      },
      "getTotalStaking(address)": {
        "params": {
          "_token": "is address token"
        }
      },
      "increaseAllowance(address,uint256)": {
        "details": "Atomically increases the allowance granted to `spender` by the caller. This is an alternative to {approve} that can be used as a mitigation for problems described in {IERC20-approve}. Emits an {Approval} event indicating the updated allowance. Requirements: - `spender` cannot be the zero address."
      },
      "isStaker(address)": {
        "details": "Can be used to show the staked pools on the Dapp",
        "params": {
          "_token": "is address token of a pool"
        }
      },
      "name()": {
        "details": "Returns the name of the token."
      },
      "owner()": {
        "details": "Returns the address of the current owner."
      },
      "renounceOwnership()": {
        "details": "Leaves the contract without owner. It will not be possible to call `onlyOwner` functions anymore. Can only be called by the current owner. NOTE: Renouncing ownership will leave the contract without an owner, thereby removing any functionality that is only available to the owner."
      },
      "stake(uint128,address)": {
        "details": "Emit event after stake",
        "params": {
          "_amount": "to stake",
          "_token": "to stake"
        }
      },
      "stopPool(address)": {
        "details": "Available only for owner",
        "params": {
          "_token": "is token address"
        }
      },
      "symbol()": {
        "details": "Returns the symbol of the token, usually a shorter version of the name."
      },
      "totalSupply()": {
        "details": "See {IERC20-totalSupply}."
      },
      "transfer(address,uint256)": {
        "details": "See {IERC20-transfer}. Requirements: - `to` cannot be the zero address. - the caller must have a balance of at least `amount`."
      },
      "transferFrom(address,address,uint256)": {
        "details": "See {IERC20-transferFrom}. Emits an {Approval} event indicating the updated allowance. This is not required by the EIP. See the note at the beginning of {ERC20}. NOTE: Does not update the allowance if the current allowance is the maximum `uint256`. Requirements: - `from` and `to` cannot be the zero address. - `from` must have a balance of at least `amount`. - the caller must have allowance for ``from``'s tokens of at least `amount`."
      },
      "transferOwnership(address)": {
        "details": "Transfers ownership of the contract to a new account (`newOwner`). Can only be called by the current owner."
      },
      "withdraw(uint128,address)": {
        "params": {
          "_amount": "number of token to unstake",
          "_token": "to unstake"
        }
      }
    },
    "title": "Staking : a Staking Plateform !",
    "version": 1
  },
  "userdoc": {
    "kind": "user",
    "methods": {
      "addPool(address,uint128,address)": {
        "notice": "Make available token address to add pool"
      },
      "calculateReward(address)": {
        "notice": "Calculate rewards"
      },
      "claimRewards(address)": {
        "notice": "Claim your rewards"
      },
      "getStaking(address)": {
        "notice": "Check amount of a stacked pool from msg.sender"
      },
      "getTotalStaking(address)": {
        "notice": "Check total amount of a stacked pool"
      },
      "isStaker(address)": {
        "notice": "Check if msg.sender is a staker of a pool"
      },
      "stake(uint128,address)": {
        "notice": "Stake fund into this contract"
      },
      "stopPool(address)": {
        "notice": "disable a pool"
      },
      "withdraw(uint128,address)": {
        "notice": "Withdraw fund into this contract"
      }
    },
    "version": 1
  }
}