{
  "contractName": "Staking",
  "abi": [
    {
      "anonymous": false,
      "inputs": [
        {
          "indexed": true,
          "internalType": "address",
          "name": "owner",
          "type": "address"
        },
        {
          "indexed": true,
          "internalType": "address",
          "name": "spender",
          "type": "address"
        },
        {
          "indexed": false,
          "internalType": "uint256",
          "name": "value",
          "type": "uint256"
        }
      ],
      "name": "Approval",
      "type": "event"
    },
    {
      "anonymous": false,
      "inputs": [
        {
          "indexed": false,
          "internalType": "address",
          "name": "tokenAddress",
          "type": "address"
        },
        {
          "indexed": false,
          "internalType": "uint256",
          "name": "APR",
          "type": "uint256"
        }
      ],
      "name": "NewPool",
      "type": "event"
    },
    {
      "anonymous": false,
      "inputs": [
        {
          "indexed": true,
          "internalType": "address",
          "name": "previousOwner",
          "type": "address"
        },
        {
          "indexed": true,
          "internalType": "address",
          "name": "newOwner",
          "type": "address"
        }
      ],
      "name": "OwnershipTransferred",
      "type": "event"
    },
    {
      "anonymous": false,
      "inputs": [
        {
          "indexed": false,
          "internalType": "address",
          "name": "sender",
          "type": "address"
        },
        {
          "indexed": false,
          "internalType": "address",
          "name": "tokenAddress",
          "type": "address"
        },
        {
          "indexed": false,
          "internalType": "uint128",
          "name": "amount",
          "type": "uint128"
        },
        {
          "indexed": false,
          "internalType": "uint256",
          "name": "date",
          "type": "uint256"
        }
      ],
      "name": "Stake",
      "type": "event"
    },
    {
      "anonymous": false,
      "inputs": [
        {
          "indexed": false,
          "internalType": "address",
          "name": "tokenAddress",
          "type": "address"
        },
        {
          "indexed": false,
          "internalType": "uint256",
          "name": "date",
          "type": "uint256"
        }
      ],
      "name": "StopPool",
      "type": "event"
    },
    {
      "anonymous": false,
      "inputs": [
        {
          "indexed": true,
          "internalType": "address",
          "name": "from",
          "type": "address"
        },
        {
          "indexed": true,
          "internalType": "address",
          "name": "to",
          "type": "address"
        },
        {
          "indexed": false,
          "internalType": "uint256",
          "name": "value",
          "type": "uint256"
        }
      ],
      "name": "Transfer",
      "type": "event"
    },
    {
      "anonymous": false,
      "inputs": [
        {
          "indexed": false,
          "internalType": "address",
          "name": "sender",
          "type": "address"
        },
        {
          "indexed": false,
          "internalType": "address",
          "name": "tokenAddress",
          "type": "address"
        },
        {
          "indexed": false,
          "internalType": "uint128",
          "name": "amount",
          "type": "uint128"
        },
        {
          "indexed": false,
          "internalType": "uint256",
          "name": "date",
          "type": "uint256"
        }
      ],
      "name": "Unstake",
      "type": "event"
    },
    {
      "inputs": [
        {
          "internalType": "address",
          "name": "owner",
          "type": "address"
        },
        {
          "internalType": "address",
          "name": "spender",
          "type": "address"
        }
      ],
      "name": "allowance",
      "outputs": [
        {
          "internalType": "uint256",
          "name": "",
          "type": "uint256"
        }
      ],
      "stateMutability": "view",
      "type": "function",
      "constant": true
    },
    {
      "inputs": [
        {
          "internalType": "address",
          "name": "spender",
          "type": "address"
        },
        {
          "internalType": "uint256",
          "name": "amount",
          "type": "uint256"
        }
      ],
      "name": "approve",
      "outputs": [
        {
          "internalType": "bool",
          "name": "",
          "type": "bool"
        }
      ],
      "stateMutability": "nonpayable",
      "type": "function"
    },
    {
      "inputs": [
        {
          "internalType": "address",
          "name": "account",
          "type": "address"
        }
      ],
      "name": "balanceOf",
      "outputs": [
        {
          "internalType": "uint256",
          "name": "",
          "type": "uint256"
        }
      ],
      "stateMutability": "view",
      "type": "function",
      "constant": true
    },
    {
      "inputs": [],
      "name": "decimals",
      "outputs": [
        {
          "internalType": "uint8",
          "name": "",
          "type": "uint8"
        }
      ],
      "stateMutability": "view",
      "type": "function",
      "constant": true
    },
    {
      "inputs": [
        {
          "internalType": "address",
          "name": "spender",
          "type": "address"
        },
        {
          "internalType": "uint256",
          "name": "subtractedValue",
          "type": "uint256"
        }
      ],
      "name": "decreaseAllowance",
      "outputs": [
        {
          "internalType": "bool",
          "name": "",
          "type": "bool"
        }
      ],
      "stateMutability": "nonpayable",
      "type": "function"
    },
    {
      "inputs": [
        {
          "internalType": "address",
          "name": "spender",
          "type": "address"
        },
        {
          "internalType": "uint256",
          "name": "addedValue",
          "type": "uint256"
        }
      ],
      "name": "increaseAllowance",
      "outputs": [
        {
          "internalType": "bool",
          "name": "",
          "type": "bool"
        }
      ],
      "stateMutability": "nonpayable",
      "type": "function"
    },
    {
      "inputs": [],
      "name": "name",
      "outputs": [
        {
          "internalType": "string",
          "name": "",
          "type": "string"
        }
      ],
      "stateMutability": "view",
      "type": "function",
      "constant": true
    },
    {
      "inputs": [],
      "name": "owner",
      "outputs": [
        {
          "internalType": "address",
          "name": "",
          "type": "address"
        }
      ],
      "stateMutability": "view",
      "type": "function",
      "constant": true
    },
    {
      "inputs": [],
      "name": "renounceOwnership",
      "outputs": [],
      "stateMutability": "nonpayable",
      "type": "function"
    },
    {
      "inputs": [
        {
          "internalType": "address",
          "name": "",
          "type": "address"
        },
        {
          "internalType": "address",
          "name": "",
          "type": "address"
        }
      ],
      "name": "stakers",
      "outputs": [
        {
          "internalType": "uint128",
          "name": "amount",
          "type": "uint128"
        },
        {
          "internalType": "uint256",
          "name": "date",
          "type": "uint256"
        }
      ],
      "stateMutability": "view",
      "type": "function",
      "constant": true
    },
    {
      "inputs": [],
      "name": "symbol",
      "outputs": [
        {
          "internalType": "string",
          "name": "",
          "type": "string"
        }
      ],
      "stateMutability": "view",
      "type": "function",
      "constant": true
    },
    {
      "inputs": [],
      "name": "totalSupply",
      "outputs": [
        {
          "internalType": "uint256",
          "name": "",
          "type": "uint256"
        }
      ],
      "stateMutability": "view",
      "type": "function",
      "constant": true
    },
    {
      "inputs": [
        {
          "internalType": "address",
          "name": "to",
          "type": "address"
        },
        {
          "internalType": "uint256",
          "name": "amount",
          "type": "uint256"
        }
      ],
      "name": "transfer",
      "outputs": [
        {
          "internalType": "bool",
          "name": "",
          "type": "bool"
        }
      ],
      "stateMutability": "nonpayable",
      "type": "function"
    },
    {
      "inputs": [
        {
          "internalType": "address",
          "name": "from",
          "type": "address"
        },
        {
          "internalType": "address",
          "name": "to",
          "type": "address"
        },
        {
          "internalType": "uint256",
          "name": "amount",
          "type": "uint256"
        }
      ],
      "name": "transferFrom",
      "outputs": [
        {
          "internalType": "bool",
          "name": "",
          "type": "bool"
        }
      ],
      "stateMutability": "nonpayable",
      "type": "function"
    },
    {
      "inputs": [
        {
          "internalType": "address",
          "name": "newOwner",
          "type": "address"
        }
      ],
      "name": "transferOwnership",
      "outputs": [],
      "stateMutability": "nonpayable",
      "type": "function"
    },
    {
      "inputs": [
        {
          "internalType": "address",
          "name": "_token",
          "type": "address"
        },
        {
          "internalType": "uint128",
          "name": "_apr",
          "type": "uint128"
        },
        {
          "internalType": "address",
          "name": "_addressPrice",
          "type": "address"
        }
      ],
      "name": "addPool",
      "outputs": [],
      "stateMutability": "nonpayable",
      "type": "function"
    },
    {
      "inputs": [
        {
          "internalType": "address",
          "name": "_token",
          "type": "address"
        }
      ],
      "name": "stopPool",
      "outputs": [],
      "stateMutability": "nonpayable",
      "type": "function"
    },
    {
      "inputs": [
        {
          "internalType": "uint128",
          "name": "_amount",
          "type": "uint128"
        },
        {
          "internalType": "address",
          "name": "_token",
          "type": "address"
        }
      ],
      "name": "stake",
      "outputs": [],
      "stateMutability": "nonpayable",
      "type": "function"
    },
    {
      "inputs": [
        {
          "internalType": "uint128",
          "name": "_amount",
          "type": "uint128"
        },
        {
          "internalType": "address",
          "name": "_token",
          "type": "address"
        }
      ],
      "name": "withdraw",
      "outputs": [],
      "stateMutability": "nonpayable",
      "type": "function"
    },
    {
      "inputs": [
        {
          "internalType": "address",
          "name": "_token",
          "type": "address"
        }
      ],
      "name": "calculateReward",
      "outputs": [
        {
          "internalType": "uint256",
          "name": "",
          "type": "uint256"
        }
      ],
      "stateMutability": "view",
      "type": "function",
      "constant": true
    },
    {
      "inputs": [
        {
          "internalType": "address",
          "name": "_token",
          "type": "address"
        }
      ],
      "name": "claimRewards",
      "outputs": [],
      "stateMutability": "nonpayable",
      "type": "function"
    },
    {
      "inputs": [
        {
          "internalType": "address",
          "name": "_token",
          "type": "address"
        }
      ],
      "name": "getStaking",
      "outputs": [
        {
          "internalType": "uint256",
          "name": "",
          "type": "uint256"
        }
      ],
      "stateMutability": "view",
      "type": "function",
      "constant": true
    },
    {
      "inputs": [
        {
          "internalType": "address",
          "name": "_token",
          "type": "address"
        }
      ],
      "name": "isStaker",
      "outputs": [
        {
          "internalType": "bool",
          "name": "",
          "type": "bool"
        }
      ],
      "stateMutability": "view",
      "type": "function",
      "constant": true
    },
    {
      "inputs": [
        {
          "internalType": "address",
          "name": "_token",
          "type": "address"
        }
      ],
      "name": "getTotalStaking",
      "outputs": [
        {
          "internalType": "uint256",
          "name": "",
          "type": "uint256"
        }
      ],
      "stateMutability": "view",
      "type": "function",
      "constant": true
    }
  ],
  "bytecode": "0x60806040523480156200001157600080fd5b506040518060400160405280600681526020017f43726f77645600000000000000000000000000000000000000000000000000008152506040518060400160405280600481526020017f43524456000000000000000000000000000000000000000000000000000000008152506200009e62000092620000d860201b60201c565b620000e060201b60201c565b8160049080519060200190620000b6929190620001a4565b508060059080519060200190620000cf929190620001a4565b505050620002b8565b600033905090565b60008060009054906101000a900473ffffffffffffffffffffffffffffffffffffffff169050816000806101000a81548173ffffffffffffffffffffffffffffffffffffffff021916908373ffffffffffffffffffffffffffffffffffffffff1602179055508173ffffffffffffffffffffffffffffffffffffffff168173ffffffffffffffffffffffffffffffffffffffff167f8be0079c531659141344cd1fd0a4f28419497f9722a3daafe3b4186f6b6457e060405160405180910390a35050565b828054620001b29062000283565b90600052602060002090601f016020900481019282620001d6576000855562000222565b82601f10620001f157805160ff191683800117855562000222565b8280016001018555821562000222579182015b828111156200022157825182559160200191906001019062000204565b5b50905062000231919062000235565b5090565b5b808211156200025057600081600090555060010162000236565b5090565b7f4e487b7100000000000000000000000000000000000000000000000000000000600052602260045260246000fd5b600060028204905060018216806200029c57607f821691505b602082108103620002b257620002b162000254565b5b50919050565b61432880620002c86000396000f3fe608060405234801561001057600080fd5b50600436106101585760003560e01c8063715018a6116100c3578063b166dfdd1161007c578063b166dfdd14610401578063d82e39621461041d578063dd62ed3e1461044d578063e8f506331461047d578063ef5cfb8c146104ae578063f2fde38b146104ca57610158565b8063715018a61461032b5780637ae15a73146103355780638da5cb5b1461036557806395d89b4114610383578063a457c2d7146103a1578063a9059cbb146103d157610158565b806323b872dd1161011557806323b872dd146102315780632bf8f75614610261578063313ce5671461027d578063395093511461029b5780636f1e8533146102cb57806370a08231146102fb57610158565b806306fdde031461015d578063095ea7b31461017b57806311c88633146101ab578063156e28b8146101db57806318160ddd146101f75780631d9b078314610215575b600080fd5b6101656104e6565b60405161017291906132f8565b60405180910390f35b610195600480360381019061019091906133b3565b610578565b6040516101a2919061340e565b60405180910390f35b6101c560048036038101906101c09190613429565b61059b565b6040516101d29190613465565b60405180910390f35b6101f560048036038101906101f09190613429565b610652565b005b6101ff6107c7565b60405161020c9190613465565b60405180910390f35b61022f600480360381019061022a91906134c8565b6107d1565b005b61024b60048036038101906102469190613508565b610b42565b604051610258919061340e565b60405180910390f35b61027b6004803603810190610276919061355b565b610b71565b005b610285610dde565b60405161029291906135ca565b60405180910390f35b6102b560048036038101906102b091906133b3565b610de7565b6040516102c2919061340e565b60405180910390f35b6102e560048036038101906102e09190613429565b610e1e565b6040516102f2919061340e565b60405180910390f35b61031560048036038101906103109190613429565b610ee8565b6040516103229190613465565b60405180910390f35b610333610f31565b005b61034f600480360381019061034a9190613429565b610f45565b60405161035c9190613465565b60405180910390f35b61036d610fbf565b60405161037a91906135f4565b60405180910390f35b61038b610fe8565b60405161039891906132f8565b60405180910390f35b6103bb60048036038101906103b691906133b3565b61107a565b6040516103c8919061340e565b60405180910390f35b6103eb60048036038101906103e691906133b3565b6110f1565b6040516103f8919061340e565b60405180910390f35b61041b600480360381019061041691906134c8565b611114565b005b61043760048036038101906104329190613429565b611494565b6040516104449190613465565b60405180910390f35b6104676004803603810190610462919061360f565b612177565b6040516104749190613465565b60405180910390f35b6104976004803603810190610492919061360f565b6121fe565b6040516104a592919061365e565b60405180910390f35b6104c860048036038101906104c39190613429565b61224b565b005b6104e460048036038101906104df9190613429565b61233d565b005b6060600480546104f5906136b6565b80601f0160208091040260200160405190810160405280929190818152602001828054610521906136b6565b801561056e5780601f106105435761010080835404028352916020019161056e565b820191906000526020600020905b81548152906001019060200180831161055157829003601f168201915b5050505050905090565b6000806105836123c0565b90506105908185856123c8565b600191505092915050565b6000600660008373ffffffffffffffffffffffffffffffffffffffff1673ffffffffffffffffffffffffffffffffffffffff16815260200190815260200160002060003373ffffffffffffffffffffffffffffffffffffffff1673ffffffffffffffffffffffffffffffffffffffff16815260200190815260200160002060000160009054906101000a90046fffffffffffffffffffffffffffffffff166fffffffffffffffffffffffffffffffff169050919050565b61065a612591565b600860008273ffffffffffffffffffffffffffffffffffffffff1673ffffffffffffffffffffffffffffffffffffffff16815260200190815260200160002060000160009054906101000a900460ff166106e9576040517f08c379a00000000000000000000000000000000000000000000000000000000081526004016106e090613733565b60405180910390fd5b6000600860008373ffffffffffffffffffffffffffffffffffffffff1673ffffffffffffffffffffffffffffffffffffffff16815260200190815260200160002060000160006101000a81548160ff02191690831515021790555042600860008373ffffffffffffffffffffffffffffffffffffffff1673ffffffffffffffffffffffffffffffffffffffff168152602001908152602001600020600101819055507f95900bd9ba2e434a9f276313d71b4c06e0ca09327777b54984808188444a14d481426040516107bc929190613753565b60405180910390a150565b6000600354905090565b6107da81610e1e565b610819576040517f08c379a0000000000000000000000000000000000000000000000000000000008152600401610810906137c8565b60405180910390fd5b6000826fffffffffffffffffffffffffffffffff161161086e576040517f08c379a000000000000000000000000000000000000000000000000000000000815260040161086590613834565b60405180910390fd5b600660008273ffffffffffffffffffffffffffffffffffffffff1673ffffffffffffffffffffffffffffffffffffffff16815260200190815260200160002060003373ffffffffffffffffffffffffffffffffffffffff1673ffffffffffffffffffffffffffffffffffffffff16815260200190815260200160002060000160009054906101000a90046fffffffffffffffffffffffffffffffff166fffffffffffffffffffffffffffffffff16826fffffffffffffffffffffffffffffffff161115610970576040517f08c379a0000000000000000000000000000000000000000000000000000000008152600401610967906138a0565b60405180910390fd5b600061097b82611494565b905060008273ffffffffffffffffffffffffffffffffffffffff1663a9059cbb33866040518363ffffffff1660e01b81526004016109ba9291906138fb565b6020604051808303816000875af11580156109d9573d6000803e3d6000fd5b505050506040513d601f19601f820116820180604052508101906109fd9190613950565b905080610a3f576040517f08c379a0000000000000000000000000000000000000000000000000000000008152600401610a36906139c9565b60405180910390fd5b610a49848461260f565b610a5384846127d0565b83600860008573ffffffffffffffffffffffffffffffffffffffff1673ffffffffffffffffffffffffffffffffffffffff16815260200190815260200160002060020160108282829054906101000a90046fffffffffffffffffffffffffffffffff16610ac09190613a18565b92506101000a8154816fffffffffffffffffffffffffffffffff02191690836fffffffffffffffffffffffffffffffff160217905550610aff82612969565b7fbd791e6972e4060b94df68a5b4f17c30ebc1dc2a05086ce163bf93ccf08f41f333848642604051610b349493929190613a4c565b60405180910390a150505050565b600080610b4d6123c0565b9050610b5a858285612976565b610b65858585612a02565b60019150509392505050565b610b79612591565b600860008473ffffffffffffffffffffffffffffffffffffffff1673ffffffffffffffffffffffffffffffffffffffff16815260200190815260200160002060000160009054906101000a900460ff1615610c09576040517f08c379a0000000000000000000000000000000000000000000000000000000008152600401610c0090613add565b60405180910390fd5b6040518060a001604052806001151581526020018273ffffffffffffffffffffffffffffffffffffffff16815260200160008152602001836fffffffffffffffffffffffffffffffff16815260200160006fffffffffffffffffffffffffffffffff16815250600860008573ffffffffffffffffffffffffffffffffffffffff1673ffffffffffffffffffffffffffffffffffffffff16815260200190815260200160002060008201518160000160006101000a81548160ff02191690831515021790555060208201518160000160016101000a81548173ffffffffffffffffffffffffffffffffffffffff021916908373ffffffffffffffffffffffffffffffffffffffff1602179055506040820151816001015560608201518160020160006101000a8154816fffffffffffffffffffffffffffffffff02191690836fffffffffffffffffffffffffffffffff16021790555060808201518160020160106101000a8154816fffffffffffffffffffffffffffffffff02191690836fffffffffffffffffffffffffffffffff1602179055509050507fbe4222bc407cb12031595fc55b46531e46308d31e4572c9c4360d8ae790e1a318383604051610dd19291906138fb565b60405180910390a1505050565b60006012905090565b600080610df26123c0565b9050610e13818585610e048589612177565b610e0e9190613afd565b6123c8565b600191505092915050565b600080600660008473ffffffffffffffffffffffffffffffffffffffff1673ffffffffffffffffffffffffffffffffffffffff16815260200190815260200160002060003373ffffffffffffffffffffffffffffffffffffffff1673ffffffffffffffffffffffffffffffffffffffff16815260200190815260200160002060000160009054906101000a90046fffffffffffffffffffffffffffffffff166fffffffffffffffffffffffffffffffff161115610ede5760019050610ee3565b600090505b919050565b6000600160008373ffffffffffffffffffffffffffffffffffffffff1673ffffffffffffffffffffffffffffffffffffffff168152602001908152602001600020549050919050565b610f39612591565b610f436000612c84565b565b6000600860008373ffffffffffffffffffffffffffffffffffffffff1673ffffffffffffffffffffffffffffffffffffffff16815260200190815260200160002060020160109054906101000a90046fffffffffffffffffffffffffffffffff166fffffffffffffffffffffffffffffffff169050919050565b60008060009054906101000a900473ffffffffffffffffffffffffffffffffffffffff16905090565b606060058054610ff7906136b6565b80601f0160208091040260200160405190810160405280929190818152602001828054611023906136b6565b80156110705780601f1061104557610100808354040283529160200191611070565b820191906000526020600020905b81548152906001019060200180831161105357829003601f168201915b5050505050905090565b6000806110856123c0565b905060006110938286612177565b9050838110156110d8576040517f08c379a00000000000000000000000000000000000000000000000000000000081526004016110cf90613bc5565b60405180910390fd5b6110e582868684036123c8565b60019250505092915050565b6000806110fc6123c0565b9050611109818585612a02565b600191505092915050565b6000826fffffffffffffffffffffffffffffffff1611611169576040517f08c379a000000000000000000000000000000000000000000000000000000000815260040161116090613834565b60405180910390fd5b600860008273ffffffffffffffffffffffffffffffffffffffff1673ffffffffffffffffffffffffffffffffffffffff16815260200190815260200160002060000160009054906101000a900460ff166111f8576040517f08c379a00000000000000000000000000000000000000000000000000000000081526004016111ef90613733565b60405180910390fd5b600080600660008473ffffffffffffffffffffffffffffffffffffffff1673ffffffffffffffffffffffffffffffffffffffff16815260200190815260200160002060003373ffffffffffffffffffffffffffffffffffffffff1673ffffffffffffffffffffffffffffffffffffffff16815260200190815260200160002060000160009054906101000a90046fffffffffffffffffffffffffffffffff166fffffffffffffffffffffffffffffffff16036112b757600090506112c3565b6112c082611494565b90505b60008273ffffffffffffffffffffffffffffffffffffffff166323b872dd3330876040518463ffffffff1660e01b815260040161130293929190613be5565b6020604051808303816000875af1158015611321573d6000803e3d6000fd5b505050506040513d601f19601f820116820180604052508101906113459190613950565b905080611387576040517f08c379a000000000000000000000000000000000000000000000000000000000815260040161137e906139c9565b60405180910390fd5b6113918484612d48565b61139b8484612ee1565b83600860008573ffffffffffffffffffffffffffffffffffffffff1673ffffffffffffffffffffffffffffffffffffffff16815260200190815260200160002060020160108282829054906101000a90046fffffffffffffffffffffffffffffffff166114089190613c1c565b92506101000a8154816fffffffffffffffffffffffffffffffff02191690836fffffffffffffffffffffffffffffffff16021790555060008211156114515761145082612969565b5b7f1668de67314c72bac0de03c24eeecb3c305dc4cdf055be48782f2c7a09bc39ca338486426040516114869493929190613a4c565b60405180910390a150505050565b600061149f82610e1e565b6114de576040517f08c379a00000000000000000000000000000000000000000000000000000000081526004016114d5906137c8565b60405180910390fd5b60006001905060006001905060006301e133806305f5e100600860008873ffffffffffffffffffffffffffffffffffffffff1673ffffffffffffffffffffffffffffffffffffffff16815260200190815260200160002060020160009054906101000a90046fffffffffffffffffffffffffffffffff1661155f9190613c62565b6115699190613cdb565b6fffffffffffffffffffffffffffffffff169050600080600760008873ffffffffffffffffffffffffffffffffffffffff1673ffffffffffffffffffffffffffffffffffffffff168152602001908152602001600020805490509050600080600090505b828110156116d457600660008a73ffffffffffffffffffffffffffffffffffffffff1673ffffffffffffffffffffffffffffffffffffffff16815260200190815260200160002060003373ffffffffffffffffffffffffffffffffffffffff1673ffffffffffffffffffffffffffffffffffffffff16815260200190815260200160002060010154600760008b73ffffffffffffffffffffffffffffffffffffffff1673ffffffffffffffffffffffffffffffffffffffff16815260200190815260200160002082815481106116a6576116a5613d0c565b5b906000526020600020906002020160000154036116c1578091505b80806116cc90613d3b565b9150506115cd565b50600860008973ffffffffffffffffffffffffffffffffffffffff1673ffffffffffffffffffffffffffffffffffffffff16815260200190815260200160002060000160009054906101000a900460ff1615611bf957600182036117cf57600660008973ffffffffffffffffffffffffffffffffffffffff1673ffffffffffffffffffffffffffffffffffffffff16815260200190815260200160002060003373ffffffffffffffffffffffffffffffffffffffff1673ffffffffffffffffffffffffffffffffffffffff16815260200190815260200160002060010154426117bd9190613d83565b836117c89190613afd565b9250611bf4565b60008190505b6001836117e29190613d83565b811015611a3857600760008a73ffffffffffffffffffffffffffffffffffffffff1673ffffffffffffffffffffffffffffffffffffffff168152602001908152602001600020818154811061183a57611839613d0c565b5b906000526020600020906002020160010160009054906101000a90046fffffffffffffffffffffffffffffffff166fffffffffffffffffffffffffffffffff16600660008b73ffffffffffffffffffffffffffffffffffffffff1673ffffffffffffffffffffffffffffffffffffffff16815260200190815260200160002060003373ffffffffffffffffffffffffffffffffffffffff1673ffffffffffffffffffffffffffffffffffffffff16815260200190815260200160002060000160009054906101000a90046fffffffffffffffffffffffffffffffff166fffffffffffffffffffffffffffffffff16600760008c73ffffffffffffffffffffffffffffffffffffffff1673ffffffffffffffffffffffffffffffffffffffff168152602001908152602001600020838154811061197957611978613d0c565b5b906000526020600020906002020160000154600760008d73ffffffffffffffffffffffffffffffffffffffff1673ffffffffffffffffffffffffffffffffffffffff1681526020019081526020016000206001856119d79190613afd565b815481106119e8576119e7613d0c565b5b906000526020600020906002020160000154611a049190613d83565b611a0e9190613db7565b611a189190613e11565b84611a239190613afd565b93508080611a3090613d3b565b9150506117d5565b50600860008973ffffffffffffffffffffffffffffffffffffffff1673ffffffffffffffffffffffffffffffffffffffff16815260200190815260200160002060020160109054906101000a90046fffffffffffffffffffffffffffffffff166fffffffffffffffffffffffffffffffff16600660008a73ffffffffffffffffffffffffffffffffffffffff1673ffffffffffffffffffffffffffffffffffffffff16815260200190815260200160002060003373ffffffffffffffffffffffffffffffffffffffff1673ffffffffffffffffffffffffffffffffffffffff16815260200190815260200160002060000160009054906101000a90046fffffffffffffffffffffffffffffffff166fffffffffffffffffffffffffffffffff16600760008b73ffffffffffffffffffffffffffffffffffffffff1673ffffffffffffffffffffffffffffffffffffffff168152602001908152602001600020600185611ba49190613d83565b81548110611bb557611bb4613d0c565b5b90600052602060002090600202016000015442611bd29190613d83565b611bdc9190613db7565b611be69190613e11565b83611bf19190613afd565b92505b612148565b60018203611ce057600660008973ffffffffffffffffffffffffffffffffffffffff1673ffffffffffffffffffffffffffffffffffffffff16815260200190815260200160002060003373ffffffffffffffffffffffffffffffffffffffff1673ffffffffffffffffffffffffffffffffffffffff16815260200190815260200160002060010154600860008a73ffffffffffffffffffffffffffffffffffffffff1673ffffffffffffffffffffffffffffffffffffffff16815260200190815260200160002060010154611cce9190613d83565b83611cd99190613afd565b9250612147565b60008190505b600183611cf39190613d83565b811015611f4957600760008a73ffffffffffffffffffffffffffffffffffffffff1673ffffffffffffffffffffffffffffffffffffffff1681526020019081526020016000208181548110611d4b57611d4a613d0c565b5b906000526020600020906002020160010160009054906101000a90046fffffffffffffffffffffffffffffffff166fffffffffffffffffffffffffffffffff16600660008b73ffffffffffffffffffffffffffffffffffffffff1673ffffffffffffffffffffffffffffffffffffffff16815260200190815260200160002060003373ffffffffffffffffffffffffffffffffffffffff1673ffffffffffffffffffffffffffffffffffffffff16815260200190815260200160002060000160009054906101000a90046fffffffffffffffffffffffffffffffff166fffffffffffffffffffffffffffffffff16600760008c73ffffffffffffffffffffffffffffffffffffffff1673ffffffffffffffffffffffffffffffffffffffff1681526020019081526020016000208381548110611e8a57611e89613d0c565b5b906000526020600020906002020160000154600760008d73ffffffffffffffffffffffffffffffffffffffff1673ffffffffffffffffffffffffffffffffffffffff168152602001908152602001600020600185611ee89190613afd565b81548110611ef957611ef8613d0c565b5b906000526020600020906002020160000154611f159190613d83565b611f1f9190613db7565b611f299190613e11565b84611f349190613afd565b93508080611f4190613d3b565b915050611ce6565b50600860008973ffffffffffffffffffffffffffffffffffffffff1673ffffffffffffffffffffffffffffffffffffffff16815260200190815260200160002060020160109054906101000a90046fffffffffffffffffffffffffffffffff166fffffffffffffffffffffffffffffffff16600660008a73ffffffffffffffffffffffffffffffffffffffff1673ffffffffffffffffffffffffffffffffffffffff16815260200190815260200160002060003373ffffffffffffffffffffffffffffffffffffffff1673ffffffffffffffffffffffffffffffffffffffff16815260200190815260200160002060000160009054906101000a90046fffffffffffffffffffffffffffffffff166fffffffffffffffffffffffffffffffff16600760008b73ffffffffffffffffffffffffffffffffffffffff1673ffffffffffffffffffffffffffffffffffffffff1681526020019081526020016000206001856120b59190613d83565b815481106120c6576120c5613d0c565b5b906000526020600020906002020160000154600860008c73ffffffffffffffffffffffffffffffffffffffff1673ffffffffffffffffffffffffffffffffffffffff168152602001908152602001600020600101546121259190613d83565b61212f9190613db7565b6121399190613e11565b836121449190613afd565b92505b5b858486856121569190613db7565b6121609190613db7565b61216a9190613e11565b9650505050505050919050565b6000600260008473ffffffffffffffffffffffffffffffffffffffff1673ffffffffffffffffffffffffffffffffffffffff16815260200190815260200160002060008373ffffffffffffffffffffffffffffffffffffffff1673ffffffffffffffffffffffffffffffffffffffff16815260200190815260200160002054905092915050565b6006602052816000526040600020602052806000526040600020600091509150508060000160009054906101000a90046fffffffffffffffffffffffffffffffff16908060010154905082565b61225481610e1e565b612293576040517f08c379a000000000000000000000000000000000000000000000000000000000815260040161228a906137c8565b60405180910390fd5b600061229e82611494565b90506122ab600083612ee1565b42600660008473ffffffffffffffffffffffffffffffffffffffff1673ffffffffffffffffffffffffffffffffffffffff16815260200190815260200160002060003373ffffffffffffffffffffffffffffffffffffffff1673ffffffffffffffffffffffffffffffffffffffff1681526020019081526020016000206001018190555061233933826130f5565b5050565b612345612591565b600073ffffffffffffffffffffffffffffffffffffffff168173ffffffffffffffffffffffffffffffffffffffff16036123b4576040517f08c379a00000000000000000000000000000000000000000000000000000000081526004016123ab90613eb4565b60405180910390fd5b6123bd81612c84565b50565b600033905090565b600073ffffffffffffffffffffffffffffffffffffffff168373ffffffffffffffffffffffffffffffffffffffff1603612437576040517f08c379a000000000000000000000000000000000000000000000000000000000815260040161242e90613f46565b60405180910390fd5b600073ffffffffffffffffffffffffffffffffffffffff168273ffffffffffffffffffffffffffffffffffffffff16036124a6576040517f08c379a000000000000000000000000000000000000000000000000000000000815260040161249d90613fd8565b60405180910390fd5b80600260008573ffffffffffffffffffffffffffffffffffffffff1673ffffffffffffffffffffffffffffffffffffffff16815260200190815260200160002060008473ffffffffffffffffffffffffffffffffffffffff1673ffffffffffffffffffffffffffffffffffffffff168152602001908152602001600020819055508173ffffffffffffffffffffffffffffffffffffffff168373ffffffffffffffffffffffffffffffffffffffff167f8c5be1e5ebec7d5bd14f71427d1e84f3dd0314c0f7b2291e5b200ac8c7c3b925836040516125849190613465565b60405180910390a3505050565b6125996123c0565b73ffffffffffffffffffffffffffffffffffffffff166125b7610fbf565b73ffffffffffffffffffffffffffffffffffffffff161461260d576040517f08c379a000000000000000000000000000000000000000000000000000000000815260040161260490614044565b60405180910390fd5b565b6000600760008373ffffffffffffffffffffffffffffffffffffffff1673ffffffffffffffffffffffffffffffffffffffff1681526020019081526020016000206001600760008573ffffffffffffffffffffffffffffffffffffffff1673ffffffffffffffffffffffffffffffffffffffff1681526020019081526020016000208054905061269f9190613d83565b815481106126b0576126af613d0c565b5b906000526020600020906002020160010160009054906101000a90046fffffffffffffffffffffffffffffffff1690506000604051806040016040528042815260200185846126ff9190613a18565b6fffffffffffffffffffffffffffffffff168152509050600760008473ffffffffffffffffffffffffffffffffffffffff1673ffffffffffffffffffffffffffffffffffffffff1681526020019081526020016000208190806001815401808255809150506001900390600052602060002090600202016000909190919091506000820151816000015560208201518160010160006101000a8154816fffffffffffffffffffffffffffffffff02191690836fffffffffffffffffffffffffffffffff160217905550505050505050565b604051806040016040528083600660008573ffffffffffffffffffffffffffffffffffffffff1673ffffffffffffffffffffffffffffffffffffffff16815260200190815260200160002060003373ffffffffffffffffffffffffffffffffffffffff1673ffffffffffffffffffffffffffffffffffffffff16815260200190815260200160002060000160009054906101000a90046fffffffffffffffffffffffffffffffff166128829190613a18565b6fffffffffffffffffffffffffffffffff16815260200142815250600660008373ffffffffffffffffffffffffffffffffffffffff1673ffffffffffffffffffffffffffffffffffffffff16815260200190815260200160002060003373ffffffffffffffffffffffffffffffffffffffff1673ffffffffffffffffffffffffffffffffffffffff16815260200190815260200160002060008201518160000160006101000a8154816fffffffffffffffffffffffffffffffff02191690836fffffffffffffffffffffffffffffffff160217905550602082015181600101559050505050565b61297333826130f5565b50565b60006129828484612177565b90507fffffffffffffffffffffffffffffffffffffffffffffffffffffffffffffffff81146129fc57818110156129ee576040517f08c379a00000000000000000000000000000000000000000000000000000000081526004016129e5906140b0565b60405180910390fd5b6129fb84848484036123c8565b5b50505050565b600073ffffffffffffffffffffffffffffffffffffffff168373ffffffffffffffffffffffffffffffffffffffff1603612a71576040517f08c379a0000000000000000000000000000000000000000000000000000000008152600401612a6890614142565b60405180910390fd5b600073ffffffffffffffffffffffffffffffffffffffff168273ffffffffffffffffffffffffffffffffffffffff1603612ae0576040517f08c379a0000000000000000000000000000000000000000000000000000000008152600401612ad7906141d4565b60405180910390fd5b612aeb838383613255565b6000600160008573ffffffffffffffffffffffffffffffffffffffff1673ffffffffffffffffffffffffffffffffffffffff16815260200190815260200160002054905081811015612b72576040517f08c379a0000000000000000000000000000000000000000000000000000000008152600401612b6990614266565b60405180910390fd5b818103600160008673ffffffffffffffffffffffffffffffffffffffff1673ffffffffffffffffffffffffffffffffffffffff1681526020019081526020016000208190555081600160008573ffffffffffffffffffffffffffffffffffffffff1673ffffffffffffffffffffffffffffffffffffffff1681526020019081526020016000206000828254612c079190613afd565b925050819055508273ffffffffffffffffffffffffffffffffffffffff168473ffffffffffffffffffffffffffffffffffffffff167fddf252ad1be2c89b69c2b068fc378daa952ba7f163c4a11628f55a4df523b3ef84604051612c6b9190613465565b60405180910390a3612c7e84848461325a565b50505050565b60008060009054906101000a900473ffffffffffffffffffffffffffffffffffffffff169050816000806101000a81548173ffffffffffffffffffffffffffffffffffffffff021916908373ffffffffffffffffffffffffffffffffffffffff1602179055508173ffffffffffffffffffffffffffffffffffffffff168173ffffffffffffffffffffffffffffffffffffffff167f8be0079c531659141344cd1fd0a4f28419497f9722a3daafe3b4186f6b6457e060405160405180910390a35050565b604051806040016040528083600660008573ffffffffffffffffffffffffffffffffffffffff1673ffffffffffffffffffffffffffffffffffffffff16815260200190815260200160002060003373ffffffffffffffffffffffffffffffffffffffff1673ffffffffffffffffffffffffffffffffffffffff16815260200190815260200160002060000160009054906101000a90046fffffffffffffffffffffffffffffffff16612dfa9190613c1c565b6fffffffffffffffffffffffffffffffff16815260200142815250600660008373ffffffffffffffffffffffffffffffffffffffff1673ffffffffffffffffffffffffffffffffffffffff16815260200190815260200160002060003373ffffffffffffffffffffffffffffffffffffffff1673ffffffffffffffffffffffffffffffffffffffff16815260200190815260200160002060008201518160000160006101000a8154816fffffffffffffffffffffffffffffffff02191690836fffffffffffffffffffffffffffffffff160217905550602082015181600101559050505050565b600080600760008473ffffffffffffffffffffffffffffffffffffffff1673ffffffffffffffffffffffffffffffffffffffff1681526020019081526020016000208054905003612f355760009050613005565b600760008373ffffffffffffffffffffffffffffffffffffffff1673ffffffffffffffffffffffffffffffffffffffff1681526020019081526020016000206001600760008573ffffffffffffffffffffffffffffffffffffffff1673ffffffffffffffffffffffffffffffffffffffff16815260200190815260200160002080549050612fc39190613d83565b81548110612fd457612fd3613d0c565b5b906000526020600020906002020160010160009054906101000a90046fffffffffffffffffffffffffffffffff1690505b6000604051806040016040528042815260200185846130249190613c1c565b6fffffffffffffffffffffffffffffffff168152509050600760008473ffffffffffffffffffffffffffffffffffffffff1673ffffffffffffffffffffffffffffffffffffffff1681526020019081526020016000208190806001815401808255809150506001900390600052602060002090600202016000909190919091506000820151816000015560208201518160010160006101000a8154816fffffffffffffffffffffffffffffffff02191690836fffffffffffffffffffffffffffffffff160217905550505050505050565b600073ffffffffffffffffffffffffffffffffffffffff168273ffffffffffffffffffffffffffffffffffffffff1603613164576040517f08c379a000000000000000000000000000000000000000000000000000000000815260040161315b906142d2565b60405180910390fd5b61317060008383613255565b80600360008282546131829190613afd565b9250508190555080600160008473ffffffffffffffffffffffffffffffffffffffff1673ffffffffffffffffffffffffffffffffffffffff16815260200190815260200160002060008282546131d89190613afd565b925050819055508173ffffffffffffffffffffffffffffffffffffffff16600073ffffffffffffffffffffffffffffffffffffffff167fddf252ad1be2c89b69c2b068fc378daa952ba7f163c4a11628f55a4df523b3ef8360405161323d9190613465565b60405180910390a36132516000838361325a565b5050565b505050565b505050565b600081519050919050565b600082825260208201905092915050565b60005b8381101561329957808201518184015260208101905061327e565b838111156132a8576000848401525b50505050565b6000601f19601f8301169050919050565b60006132ca8261325f565b6132d4818561326a565b93506132e481856020860161327b565b6132ed816132ae565b840191505092915050565b6000602082019050818103600083015261331281846132bf565b905092915050565b600080fd5b600073ffffffffffffffffffffffffffffffffffffffff82169050919050565b600061334a8261331f565b9050919050565b61335a8161333f565b811461336557600080fd5b50565b60008135905061337781613351565b92915050565b6000819050919050565b6133908161337d565b811461339b57600080fd5b50565b6000813590506133ad81613387565b92915050565b600080604083850312156133ca576133c961331a565b5b60006133d885828601613368565b92505060206133e98582860161339e565b9150509250929050565b60008115159050919050565b613408816133f3565b82525050565b600060208201905061342360008301846133ff565b92915050565b60006020828403121561343f5761343e61331a565b5b600061344d84828501613368565b91505092915050565b61345f8161337d565b82525050565b600060208201905061347a6000830184613456565b92915050565b60006fffffffffffffffffffffffffffffffff82169050919050565b6134a581613480565b81146134b057600080fd5b50565b6000813590506134c28161349c565b92915050565b600080604083850312156134df576134de61331a565b5b60006134ed858286016134b3565b92505060206134fe85828601613368565b9150509250929050565b6000806000606084860312156135215761352061331a565b5b600061352f86828701613368565b935050602061354086828701613368565b92505060406135518682870161339e565b9150509250925092565b6000806000606084860312156135745761357361331a565b5b600061358286828701613368565b9350506020613593868287016134b3565b92505060406135a486828701613368565b9150509250925092565b600060ff82169050919050565b6135c4816135ae565b82525050565b60006020820190506135df60008301846135bb565b92915050565b6135ee8161333f565b82525050565b600060208201905061360960008301846135e5565b92915050565b600080604083850312156136265761362561331a565b5b600061363485828601613368565b925050602061364585828601613368565b9150509250929050565b61365881613480565b82525050565b6000604082019050613673600083018561364f565b6136806020830184613456565b9392505050565b7f4e487b7100000000000000000000000000000000000000000000000000000000600052602260045260246000fd5b600060028204905060018216806136ce57607f821691505b6020821081036136e1576136e0613687565b5b50919050565b7f506f6f6c206e6f74206163746976650000000000000000000000000000000000600082015250565b600061371d600f8361326a565b9150613728826136e7565b602082019050919050565b6000602082019050818103600083015261374c81613710565b9050919050565b600060408201905061376860008301856135e5565b6137756020830184613456565b9392505050565b7f4e6f742061207374616b65720000000000000000000000000000000000000000600082015250565b60006137b2600c8361326a565b91506137bd8261377c565b602082019050919050565b600060208201905081810360008301526137e1816137a5565b9050919050565b7f416d6f756e742063616e2774206265207a65726f000000000000000000000000600082015250565b600061381e60148361326a565b9150613829826137e8565b602082019050919050565b6000602082019050818103600083015261384d81613811565b9050919050565b7f446f6e2774206861766520736f206d616e7920746f6b656e7300000000000000600082015250565b600061388a60198361326a565b915061389582613854565b602082019050919050565b600060208201905081810360008301526138b98161387d565b9050919050565b6000819050919050565b60006138e56138e06138db84613480565b6138c0565b61337d565b9050919050565b6138f5816138ca565b82525050565b600060408201905061391060008301856135e5565b61391d60208301846138ec565b9392505050565b61392d816133f3565b811461393857600080fd5b50565b60008151905061394a81613924565b92915050565b6000602082840312156139665761396561331a565b5b60006139748482850161393b565b91505092915050565b7f5472616e736665722066726f6d206572726f7200000000000000000000000000600082015250565b60006139b360138361326a565b91506139be8261397d565b602082019050919050565b600060208201905081810360008301526139e2816139a6565b9050919050565b7f4e487b7100000000000000000000000000000000000000000000000000000000600052601160045260246000fd5b6000613a2382613480565b9150613a2e83613480565b925082821015613a4157613a406139e9565b5b828203905092915050565b6000608082019050613a6160008301876135e5565b613a6e60208301866135e5565b613a7b604083018561364f565b613a886060830184613456565b95945050505050565b7f506f6f6c20616374697665000000000000000000000000000000000000000000600082015250565b6000613ac7600b8361326a565b9150613ad282613a91565b602082019050919050565b60006020820190508181036000830152613af681613aba565b9050919050565b6000613b088261337d565b9150613b138361337d565b9250827fffffffffffffffffffffffffffffffffffffffffffffffffffffffffffffffff03821115613b4857613b476139e9565b5b828201905092915050565b7f45524332303a2064656372656173656420616c6c6f77616e63652062656c6f7760008201527f207a65726f000000000000000000000000000000000000000000000000000000602082015250565b6000613baf60258361326a565b9150613bba82613b53565b604082019050919050565b60006020820190508181036000830152613bde81613ba2565b9050919050565b6000606082019050613bfa60008301866135e5565b613c0760208301856135e5565b613c1460408301846138ec565b949350505050565b6000613c2782613480565b9150613c3283613480565b9250826fffffffffffffffffffffffffffffffff03821115613c5757613c566139e9565b5b828201905092915050565b6000613c6d82613480565b9150613c7883613480565b9250816fffffffffffffffffffffffffffffffff0483118215151615613ca157613ca06139e9565b5b828202905092915050565b7f4e487b7100000000000000000000000000000000000000000000000000000000600052601260045260246000fd5b6000613ce682613480565b9150613cf183613480565b925082613d0157613d00613cac565b5b828204905092915050565b7f4e487b7100000000000000000000000000000000000000000000000000000000600052603260045260246000fd5b6000613d468261337d565b91507fffffffffffffffffffffffffffffffffffffffffffffffffffffffffffffffff8203613d7857613d776139e9565b5b600182019050919050565b6000613d8e8261337d565b9150613d998361337d565b925082821015613dac57613dab6139e9565b5b828203905092915050565b6000613dc28261337d565b9150613dcd8361337d565b9250817fffffffffffffffffffffffffffffffffffffffffffffffffffffffffffffffff0483118215151615613e0657613e056139e9565b5b828202905092915050565b6000613e1c8261337d565b9150613e278361337d565b925082613e3757613e36613cac565b5b828204905092915050565b7f4f776e61626c653a206e6577206f776e657220697320746865207a65726f206160008201527f6464726573730000000000000000000000000000000000000000000000000000602082015250565b6000613e9e60268361326a565b9150613ea982613e42565b604082019050919050565b60006020820190508181036000830152613ecd81613e91565b9050919050565b7f45524332303a20617070726f76652066726f6d20746865207a65726f2061646460008201527f7265737300000000000000000000000000000000000000000000000000000000602082015250565b6000613f3060248361326a565b9150613f3b82613ed4565b604082019050919050565b60006020820190508181036000830152613f5f81613f23565b9050919050565b7f45524332303a20617070726f766520746f20746865207a65726f20616464726560008201527f7373000000000000000000000000000000000000000000000000000000000000602082015250565b6000613fc260228361326a565b9150613fcd82613f66565b604082019050919050565b60006020820190508181036000830152613ff181613fb5565b9050919050565b7f4f776e61626c653a2063616c6c6572206973206e6f7420746865206f776e6572600082015250565b600061402e60208361326a565b915061403982613ff8565b602082019050919050565b6000602082019050818103600083015261405d81614021565b9050919050565b7f45524332303a20696e73756666696369656e7420616c6c6f77616e6365000000600082015250565b600061409a601d8361326a565b91506140a582614064565b602082019050919050565b600060208201905081810360008301526140c98161408d565b9050919050565b7f45524332303a207472616e736665722066726f6d20746865207a65726f20616460008201527f6472657373000000000000000000000000000000000000000000000000000000602082015250565b600061412c60258361326a565b9150614137826140d0565b604082019050919050565b6000602082019050818103600083015261415b8161411f565b9050919050565b7f45524332303a207472616e7366657220746f20746865207a65726f206164647260008201527f6573730000000000000000000000000000000000000000000000000000000000602082015250565b60006141be60238361326a565b91506141c982614162565b604082019050919050565b600060208201905081810360008301526141ed816141b1565b9050919050565b7f45524332303a207472616e7366657220616d6f756e742065786365656473206260008201527f616c616e63650000000000000000000000000000000000000000000000000000602082015250565b600061425060268361326a565b915061425b826141f4565b604082019050919050565b6000602082019050818103600083015261427f81614243565b9050919050565b7f45524332303a206d696e7420746f20746865207a65726f206164647265737300600082015250565b60006142bc601f8361326a565b91506142c782614286565b602082019050919050565b600060208201905081810360008301526142eb816142af565b905091905056fea2646970667358221220622c4509f5499b93cef278b9dad3b8c666544c330c45a8cecd4b3aa6e46dcd2864736f6c634300080e0033",
  "immutableReferences": {},
  "source": "// SPDX-License-Identifier: MIT\r\npragma solidity 0.8.14;\r\n\r\nimport \"../node_modules/@openzeppelin/contracts/token/ERC20/IERC20.sol\";\r\nimport \"../node_modules/@openzeppelin/contracts/access/Ownable.sol\";\r\nimport \"../node_modules/@chainlink/contracts/src/v0.8/interfaces/AggregatorV3Interface.sol\";\r\nimport \"./CrowdV.sol\";\r\nimport \"./StackingPool.sol\";\r\n\r\n/**\r\n * @title Staking : a Staking Plateform !\r\n * @author Anthony - Etienne - Jean-Baptiste\r\n */\r\n\r\ncontract Staking is Ownable, CrowdV, StackingPool {\r\n    //Information about the token\r\n    struct Token {\r\n        bool activePool;\r\n        address addressPrice; //Chainlink Pool\r\n        uint256 dateStop;\r\n        uint128 APR;\r\n        uint128 totalStakes;\r\n    }\r\n\r\n    // Token address => active pool\r\n    mapping(address => Token) pools;\r\n\r\n    // Events\r\n    event NewPool(address tokenAddress, uint256 APR);\r\n    event StopPool(address tokenAddress, uint256 date);\r\n    event Stake(\r\n        address sender,\r\n        address tokenAddress,\r\n        uint128 amount,\r\n        uint256 date\r\n    );\r\n    event Unstake(\r\n        address sender,\r\n        address tokenAddress,\r\n        uint128 amount,\r\n        uint256 date\r\n    );\r\n\r\n    /**\r\n     * @notice Make available token address to add pool\r\n     * @dev Available only for owner\r\n     * @param _token is token address\r\n     * @param _apr is APR of the pool\r\n     * @param _addressPrice is Chainlink pool\r\n     */\r\n    function addPool(\r\n        address _token,\r\n        uint128 _apr,\r\n        address _addressPrice\r\n    ) external onlyOwner {\r\n        require(!pools[_token].activePool, \"Pool active\");\r\n\r\n        pools[_token] = Token(true, _addressPrice, 0, _apr, 0);\r\n\r\n        emit NewPool(_token, _apr);\r\n    }\r\n\r\n    /**\r\n     * @notice disable a pool\r\n     * @dev Available only for owner\r\n     * @param _token is token address\r\n     */\r\n    function stopPool(address _token) external onlyOwner {\r\n        require(pools[_token].activePool, \"Pool not active\");\r\n        pools[_token].activePool = false;\r\n        pools[_token].dateStop = block.timestamp;\r\n\r\n        emit StopPool(_token, block.timestamp);\r\n    }\r\n\r\n    /**\r\n     * @notice Stake fund into this contract\r\n     * @param _amount to stake\r\n     * @param _token to stake\r\n     * @dev Emit event after stake\r\n     */\r\n    function stake(uint128 _amount, address _token) external {\r\n        require(_amount > 0, \"Amount can't be zero\");\r\n        require(pools[_token].activePool, \"Pool not active\");\r\n\r\n        uint256 rewards;\r\n        if(stakers[_token][msg.sender].amount==0){rewards=0;}\r\n        else{rewards=calculateReward(_token);}\r\n        \r\n        bool result = IERC20(_token).transferFrom(\r\n            msg.sender,\r\n            address(this),\r\n            _amount\r\n        );\r\n        require(result, \"Transfer from error\");\r\n\r\n        upAmountStaker(_amount, _token);\r\n        upStackingPool(_amount, _token);\r\n        pools[_token].totalStakes += _amount;\r\n\r\n        if (rewards>0){_getRewards(rewards);} // Rcuprer les rewards en mme temps\r\n\r\n        emit Stake(msg.sender, _token, _amount, block.timestamp);\r\n    }\r\n\r\n    /**\r\n     * @notice Withdraw fund into this contract\r\n     * @param _token to unstake\r\n     * @param _amount number of token to unstake\r\n     */\r\n    function withdraw(uint128 _amount, address _token) external {\r\n        require(isStaker(_token), \"Not a staker\");\r\n        require(_amount > 0, \"Amount can't be zero\");\r\n        require(\r\n            _amount <= stakers[_token][msg.sender].amount,\r\n            \"Don't have so many tokens\"\r\n        );\r\n        uint256 rewards = calculateReward(_token);\r\n        bool result = IERC20(_token).transfer(msg.sender, _amount);\r\n        require(result, \"Transfer from error\");\r\n\r\n        downStackingPool( _amount, _token);\r\n        downAmountStaker( _amount, _token);\r\n        pools[_token].totalStakes -= _amount;\r\n\r\n        _getRewards(rewards); // Rcuprer les rewards en mme temps\r\n\r\n        emit Unstake(msg.sender, _token, _amount, block.timestamp);\r\n    }\r\n\r\n    /**\r\n     * @notice Calculate rewards\r\n     * @dev tokenPrice use Chainlink Oracle\r\n     * @param _token is the token of pool to calculate rewards\r\n     * @return rewards in dollars\r\n     */\r\n    function calculateReward(address _token) public view returns (uint256) {\r\n        require(isStaker(_token), \"Not a staker\");\r\n        uint256 priceCRVD = 1; //prix du token de reward fix pour l'exercice\r\n        uint256 tokenPrice = 1; //_getLatestPrice(pools[_token].addressPrice);\r\n        uint256 aprPerSeconds = ((pools[_token].APR) * 10**8) /\r\n            (365 * 24 * 3600);\r\n        uint256 rewardspartoOfPool;\r\n        uint256 x = stakingTimes[_token].length;\r\n        uint256 blockIndex;\r\n        for (uint256 i = 0; i < x; i++) {\r\n            if (\r\n                stakingTimes[_token][i].blockDate ==\r\n                stakers[_token][msg.sender].date\r\n            ) {\r\n                blockIndex = i;\r\n            }\r\n        }\r\n\r\n        if (pools[_token].activePool) {\r\n            if (x == 1) {\r\n                rewardspartoOfPool += (block.timestamp -\r\n                    stakers[_token][msg.sender].date);\r\n            } else {\r\n                for (uint256 i = blockIndex; i < x - 1; i++) {\r\n                    rewardspartoOfPool +=\r\n                        ((stakingTimes[_token][i + 1].blockDate -\r\n                            stakingTimes[_token][i].blockDate) *\r\n                            stakers[_token][msg.sender].amount) /\r\n                        stakingTimes[_token][i].stakingTotalPool;\r\n                }\r\n                rewardspartoOfPool +=\r\n                    ((block.timestamp - stakingTimes[_token][x - 1].blockDate) *\r\n                        stakers[_token][msg.sender].amount) /\r\n                    pools[_token].totalStakes;\r\n            }\r\n        } else {\r\n            if (x == 1) {\r\n                rewardspartoOfPool += (pools[_token].dateStop -\r\n                    stakers[_token][msg.sender].date);\r\n            } else {\r\n                for (uint256 i = blockIndex; i < x - 1; i++) {\r\n                    rewardspartoOfPool +=\r\n                        ((stakingTimes[_token][i + 1].blockDate -\r\n                            stakingTimes[_token][i].blockDate) *\r\n                            stakers[_token][msg.sender].amount) /\r\n                        stakingTimes[_token][i].stakingTotalPool;\r\n                }\r\n                rewardspartoOfPool +=\r\n                    ((pools[_token].dateStop -\r\n                        stakingTimes[_token][x - 1].blockDate) *\r\n                        stakers[_token][msg.sender].amount) /\r\n                    pools[_token].totalStakes;\r\n            }\r\n        }\r\n\r\n        return rewardspartoOfPool * tokenPrice * aprPerSeconds / priceCRVD;\r\n    }\r\n\r\n    /**\r\n     * @notice Claim your rewards\r\n     * @dev Available only for stakers who have rewards to claim\r\n     * @param _token is token of the pool to claim rewards\r\n     */\r\n    function claimRewards(address _token) external {\r\n        require(isStaker(_token), \"Not a staker\");\r\n        uint256 rewards = calculateReward(_token);\r\n        upStackingPool(0, _token);\r\n        stakers[_token][msg.sender].date = block.timestamp; //Remettre  0 le timestamp\r\n        _mint(msg.sender, rewards);\r\n    }\r\n\r\n    /**\r\n     * @notice Autoclaim rewards when add staking or withdraw\r\n     * @dev Available only for function stake and withdraw\r\n     * @param _amount is amount in $ of the rewards to claim\r\n     */\r\n    function _getRewards(uint256 _amount) private {\r\n        _mint(msg.sender, _amount);\r\n    }\r\n\r\n    /**\r\n     * @notice Check amount of a stacked pool from msg.sender\r\n     * @param _token is address token of the pool to check\r\n     */\r\n    function getStaking(address _token) external view returns (uint256) {\r\n        return stakers[_token][msg.sender].amount;\r\n    }\r\n\r\n    /**\r\n     * @notice Check if msg.sender is a staker of a pool\r\n     * @dev Can be used to show the staked pools on the Dapp\r\n     * @param _token is address token of a pool\r\n     */\r\n    function isStaker(address _token) public view returns (bool) {\r\n        if (stakers[_token][msg.sender].amount > 0) {\r\n            return true;\r\n        }\r\n        return false;\r\n    }\r\n\r\n    /**\r\n     * @notice Check total amount of a stacked pool\r\n     * @param _token is address token\r\n     */\r\n    function getTotalStaking(address _token) external view returns (uint256) {\r\n        return pools[_token].totalStakes;\r\n    }\r\n}\r\n",
  "sourcePath": "/home/etienne/workspace/tp-defi/truffle/contracts/Staking.sol",
  "compiler": {
    "name": "solc",
    "version": "0.8.14+commit.80d49f37.Emscripten.clang"
  },
  "schemaVersion": "3.4.7",
  "updatedAt": "2022-08-06T13:32:03.057Z",
  "networkType": "ethereum",
  "devdoc": {
    "author": "Anthony - Etienne - Jean-Baptiste",
    "kind": "dev",
    "methods": {
      "addPool(address,uint128,address)": {
        "details": "Available only for owner",
        "params": {
          "_addressPrice": "is Chainlink pool",
          "_apr": "is APR of the pool",
          "_token": "is token address"
        }
      },
      "allowance(address,address)": {
        "details": "See {IERC20-allowance}."
      },
      "approve(address,uint256)": {
        "details": "See {IERC20-approve}. NOTE: If `amount` is the maximum `uint256`, the allowance is not updated on `transferFrom`. This is semantically equivalent to an infinite approval. Requirements: - `spender` cannot be the zero address."
      },
      "balanceOf(address)": {
        "details": "See {IERC20-balanceOf}."
      },
      "calculateReward(address)": {
        "details": "tokenPrice use Chainlink Oracle",
        "params": {
          "_token": "is the token of pool to calculate rewards"
        },
        "returns": {
          "_0": "rewards in dollars"
        }
      },
      "claimRewards(address)": {
        "details": "Available only for stakers who have rewards to claim",
        "params": {
          "_token": "is token of the pool to claim rewards"
        }
      },
      "decimals()": {
        "details": "Returns the number of decimals used to get its user representation. For example, if `decimals` equals `2`, a balance of `505` tokens should be displayed to a user as `5.05` (`505 / 10 ** 2`). Tokens usually opt for a value of 18, imitating the relationship between Ether and Wei. This is the value {ERC20} uses, unless this function is overridden; NOTE: This information is only used for _display_ purposes: it in no way affects any of the arithmetic of the contract, including {IERC20-balanceOf} and {IERC20-transfer}."
      },
      "decreaseAllowance(address,uint256)": {
        "details": "Atomically decreases the allowance granted to `spender` by the caller. This is an alternative to {approve} that can be used as a mitigation for problems described in {IERC20-approve}. Emits an {Approval} event indicating the updated allowance. Requirements: - `spender` cannot be the zero address. - `spender` must have allowance for the caller of at least `subtractedValue`."
      },
      "getStaking(address)": {
        "params": {
          "_token": "is address token of the pool to check"
        }
      },
      "getTotalStaking(address)": {
        "params": {
          "_token": "is address token"
        }
      },
      "increaseAllowance(address,uint256)": {
        "details": "Atomically increases the allowance granted to `spender` by the caller. This is an alternative to {approve} that can be used as a mitigation for problems described in {IERC20-approve}. Emits an {Approval} event indicating the updated allowance. Requirements: - `spender` cannot be the zero address."
      },
      "isStaker(address)": {
        "details": "Can be used to show the staked pools on the Dapp",
        "params": {
          "_token": "is address token of a pool"
        }
      },
      "name()": {
        "details": "Returns the name of the token."
      },
      "owner()": {
        "details": "Returns the address of the current owner."
      },
      "renounceOwnership()": {
        "details": "Leaves the contract without owner. It will not be possible to call `onlyOwner` functions anymore. Can only be called by the current owner. NOTE: Renouncing ownership will leave the contract without an owner, thereby removing any functionality that is only available to the owner."
      },
      "stake(uint128,address)": {
        "details": "Emit event after stake",
        "params": {
          "_amount": "to stake",
          "_token": "to stake"
        }
      },
      "stopPool(address)": {
        "details": "Available only for owner",
        "params": {
          "_token": "is token address"
        }
      },
      "symbol()": {
        "details": "Returns the symbol of the token, usually a shorter version of the name."
      },
      "totalSupply()": {
        "details": "See {IERC20-totalSupply}."
      },
      "transfer(address,uint256)": {
        "details": "See {IERC20-transfer}. Requirements: - `to` cannot be the zero address. - the caller must have a balance of at least `amount`."
      },
      "transferFrom(address,address,uint256)": {
        "details": "See {IERC20-transferFrom}. Emits an {Approval} event indicating the updated allowance. This is not required by the EIP. See the note at the beginning of {ERC20}. NOTE: Does not update the allowance if the current allowance is the maximum `uint256`. Requirements: - `from` and `to` cannot be the zero address. - `from` must have a balance of at least `amount`. - the caller must have allowance for ``from``'s tokens of at least `amount`."
      },
      "transferOwnership(address)": {
        "details": "Transfers ownership of the contract to a new account (`newOwner`). Can only be called by the current owner."
      },
      "withdraw(uint128,address)": {
        "params": {
          "_amount": "number of token to unstake",
          "_token": "to unstake"
        }
      }
    },
    "title": "Staking : a Staking Plateform !",
    "version": 1
  },
  "userdoc": {
    "kind": "user",
    "methods": {
      "addPool(address,uint128,address)": {
        "notice": "Make available token address to add pool"
      },
      "calculateReward(address)": {
        "notice": "Calculate rewards"
      },
      "claimRewards(address)": {
        "notice": "Claim your rewards"
      },
      "getStaking(address)": {
        "notice": "Check amount of a stacked pool from msg.sender"
      },
      "getTotalStaking(address)": {
        "notice": "Check total amount of a stacked pool"
      },
      "isStaker(address)": {
        "notice": "Check if msg.sender is a staker of a pool"
      },
      "stake(uint128,address)": {
        "notice": "Stake fund into this contract"
      },
      "stopPool(address)": {
        "notice": "disable a pool"
      },
      "withdraw(uint128,address)": {
        "notice": "Withdraw fund into this contract"
      }
    },
    "version": 1
  }
}