{
  "contractName": "Staking",
  "abi": [
    {
      "anonymous": false,
      "inputs": [
        {
          "indexed": true,
          "internalType": "address",
          "name": "owner",
          "type": "address"
        },
        {
          "indexed": true,
          "internalType": "address",
          "name": "spender",
          "type": "address"
        },
        {
          "indexed": false,
          "internalType": "uint256",
          "name": "value",
          "type": "uint256"
        }
      ],
      "name": "Approval",
      "type": "event"
    },
    {
      "anonymous": false,
      "inputs": [
        {
          "indexed": false,
          "internalType": "address",
          "name": "tokenAddress",
          "type": "address"
        },
        {
          "indexed": false,
          "internalType": "uint256",
          "name": "APR",
          "type": "uint256"
        }
      ],
      "name": "NewPool",
      "type": "event"
    },
    {
      "anonymous": false,
      "inputs": [
        {
          "indexed": true,
          "internalType": "address",
          "name": "previousOwner",
          "type": "address"
        },
        {
          "indexed": true,
          "internalType": "address",
          "name": "newOwner",
          "type": "address"
        }
      ],
      "name": "OwnershipTransferred",
      "type": "event"
    },
    {
      "anonymous": false,
      "inputs": [
        {
          "indexed": false,
          "internalType": "address",
          "name": "sender",
          "type": "address"
        },
        {
          "indexed": false,
          "internalType": "address",
          "name": "tokenAddress",
          "type": "address"
        },
        {
          "indexed": false,
          "internalType": "uint128",
          "name": "amount",
          "type": "uint128"
        },
        {
          "indexed": false,
          "internalType": "uint256",
          "name": "date",
          "type": "uint256"
        }
      ],
      "name": "Stake",
      "type": "event"
    },
    {
      "anonymous": false,
      "inputs": [
        {
          "indexed": false,
          "internalType": "address",
          "name": "tokenAddress",
          "type": "address"
        },
        {
          "indexed": false,
          "internalType": "uint256",
          "name": "date",
          "type": "uint256"
        }
      ],
      "name": "StopPool",
      "type": "event"
    },
    {
      "anonymous": false,
      "inputs": [
        {
          "indexed": true,
          "internalType": "address",
          "name": "from",
          "type": "address"
        },
        {
          "indexed": true,
          "internalType": "address",
          "name": "to",
          "type": "address"
        },
        {
          "indexed": false,
          "internalType": "uint256",
          "name": "value",
          "type": "uint256"
        }
      ],
      "name": "Transfer",
      "type": "event"
    },
    {
      "anonymous": false,
      "inputs": [
        {
          "indexed": false,
          "internalType": "address",
          "name": "sender",
          "type": "address"
        },
        {
          "indexed": false,
          "internalType": "address",
          "name": "tokenAddress",
          "type": "address"
        },
        {
          "indexed": false,
          "internalType": "uint128",
          "name": "amount",
          "type": "uint128"
        },
        {
          "indexed": false,
          "internalType": "uint256",
          "name": "date",
          "type": "uint256"
        }
      ],
      "name": "Unstake",
      "type": "event"
    },
    {
      "inputs": [
        {
          "internalType": "address",
          "name": "owner",
          "type": "address"
        },
        {
          "internalType": "address",
          "name": "spender",
          "type": "address"
        }
      ],
      "name": "allowance",
      "outputs": [
        {
          "internalType": "uint256",
          "name": "",
          "type": "uint256"
        }
      ],
      "stateMutability": "view",
      "type": "function",
      "constant": true
    },
    {
      "inputs": [
        {
          "internalType": "address",
          "name": "spender",
          "type": "address"
        },
        {
          "internalType": "uint256",
          "name": "amount",
          "type": "uint256"
        }
      ],
      "name": "approve",
      "outputs": [
        {
          "internalType": "bool",
          "name": "",
          "type": "bool"
        }
      ],
      "stateMutability": "nonpayable",
      "type": "function"
    },
    {
      "inputs": [
        {
          "internalType": "address",
          "name": "account",
          "type": "address"
        }
      ],
      "name": "balanceOf",
      "outputs": [
        {
          "internalType": "uint256",
          "name": "",
          "type": "uint256"
        }
      ],
      "stateMutability": "view",
      "type": "function",
      "constant": true
    },
    {
      "inputs": [],
      "name": "decimals",
      "outputs": [
        {
          "internalType": "uint8",
          "name": "",
          "type": "uint8"
        }
      ],
      "stateMutability": "view",
      "type": "function",
      "constant": true
    },
    {
      "inputs": [
        {
          "internalType": "address",
          "name": "spender",
          "type": "address"
        },
        {
          "internalType": "uint256",
          "name": "subtractedValue",
          "type": "uint256"
        }
      ],
      "name": "decreaseAllowance",
      "outputs": [
        {
          "internalType": "bool",
          "name": "",
          "type": "bool"
        }
      ],
      "stateMutability": "nonpayable",
      "type": "function"
    },
    {
      "inputs": [
        {
          "internalType": "address",
          "name": "spender",
          "type": "address"
        },
        {
          "internalType": "uint256",
          "name": "addedValue",
          "type": "uint256"
        }
      ],
      "name": "increaseAllowance",
      "outputs": [
        {
          "internalType": "bool",
          "name": "",
          "type": "bool"
        }
      ],
      "stateMutability": "nonpayable",
      "type": "function"
    },
    {
      "inputs": [],
      "name": "name",
      "outputs": [
        {
          "internalType": "string",
          "name": "",
          "type": "string"
        }
      ],
      "stateMutability": "view",
      "type": "function",
      "constant": true
    },
    {
      "inputs": [],
      "name": "owner",
      "outputs": [
        {
          "internalType": "address",
          "name": "",
          "type": "address"
        }
      ],
      "stateMutability": "view",
      "type": "function",
      "constant": true
    },
    {
      "inputs": [],
      "name": "renounceOwnership",
      "outputs": [],
      "stateMutability": "nonpayable",
      "type": "function"
    },
    {
      "inputs": [],
      "name": "symbol",
      "outputs": [
        {
          "internalType": "string",
          "name": "",
          "type": "string"
        }
      ],
      "stateMutability": "view",
      "type": "function",
      "constant": true
    },
    {
      "inputs": [],
      "name": "totalSupply",
      "outputs": [
        {
          "internalType": "uint256",
          "name": "",
          "type": "uint256"
        }
      ],
      "stateMutability": "view",
      "type": "function",
      "constant": true
    },
    {
      "inputs": [
        {
          "internalType": "address",
          "name": "to",
          "type": "address"
        },
        {
          "internalType": "uint256",
          "name": "amount",
          "type": "uint256"
        }
      ],
      "name": "transfer",
      "outputs": [
        {
          "internalType": "bool",
          "name": "",
          "type": "bool"
        }
      ],
      "stateMutability": "nonpayable",
      "type": "function"
    },
    {
      "inputs": [
        {
          "internalType": "address",
          "name": "from",
          "type": "address"
        },
        {
          "internalType": "address",
          "name": "to",
          "type": "address"
        },
        {
          "internalType": "uint256",
          "name": "amount",
          "type": "uint256"
        }
      ],
      "name": "transferFrom",
      "outputs": [
        {
          "internalType": "bool",
          "name": "",
          "type": "bool"
        }
      ],
      "stateMutability": "nonpayable",
      "type": "function"
    },
    {
      "inputs": [
        {
          "internalType": "address",
          "name": "newOwner",
          "type": "address"
        }
      ],
      "name": "transferOwnership",
      "outputs": [],
      "stateMutability": "nonpayable",
      "type": "function"
    },
    {
      "inputs": [
        {
          "internalType": "address",
          "name": "_token",
          "type": "address"
        },
        {
          "internalType": "uint128",
          "name": "_apr",
          "type": "uint128"
        },
        {
          "internalType": "address",
          "name": "_addressPrice",
          "type": "address"
        }
      ],
      "name": "addPool",
      "outputs": [],
      "stateMutability": "nonpayable",
      "type": "function"
    },
    {
      "inputs": [
        {
          "internalType": "address",
          "name": "_token",
          "type": "address"
        }
      ],
      "name": "stopPool",
      "outputs": [],
      "stateMutability": "nonpayable",
      "type": "function"
    },
    {
      "inputs": [
        {
          "internalType": "uint128",
          "name": "_amount",
          "type": "uint128"
        },
        {
          "internalType": "address",
          "name": "_token",
          "type": "address"
        }
      ],
      "name": "stake",
      "outputs": [],
      "stateMutability": "nonpayable",
      "type": "function"
    },
    {
      "inputs": [
        {
          "internalType": "uint128",
          "name": "_amount",
          "type": "uint128"
        },
        {
          "internalType": "address",
          "name": "_token",
          "type": "address"
        }
      ],
      "name": "withdraw",
      "outputs": [],
      "stateMutability": "nonpayable",
      "type": "function"
    },
    {
      "inputs": [
        {
          "internalType": "address",
          "name": "_token",
          "type": "address"
        }
      ],
      "name": "calculateReward",
      "outputs": [
        {
          "internalType": "uint256",
          "name": "",
          "type": "uint256"
        }
      ],
      "stateMutability": "view",
      "type": "function",
      "constant": true
    },
    {
      "inputs": [
        {
          "internalType": "address",
          "name": "_token",
          "type": "address"
        }
      ],
      "name": "claimRewards",
      "outputs": [],
      "stateMutability": "nonpayable",
      "type": "function"
    },
    {
      "inputs": [
        {
          "internalType": "address",
          "name": "_token",
          "type": "address"
        }
      ],
      "name": "getStaking",
      "outputs": [
        {
          "internalType": "uint256",
          "name": "",
          "type": "uint256"
        }
      ],
      "stateMutability": "view",
      "type": "function",
      "constant": true
    },
    {
      "inputs": [
        {
          "internalType": "address",
          "name": "_token",
          "type": "address"
        }
      ],
      "name": "isStaker",
      "outputs": [
        {
          "internalType": "bool",
          "name": "",
          "type": "bool"
        }
      ],
      "stateMutability": "view",
      "type": "function",
      "constant": true
    },
    {
      "inputs": [
        {
          "internalType": "address",
          "name": "_token",
          "type": "address"
        }
      ],
      "name": "getTotalStaking",
      "outputs": [
        {
          "internalType": "uint256",
          "name": "",
          "type": "uint256"
        }
      ],
      "stateMutability": "view",
      "type": "function",
      "constant": true
    }
  ],
  "bytecode": "0x60806040523480156200001157600080fd5b506040518060400160405280600681526020017f43726f77645600000000000000000000000000000000000000000000000000008152506040518060400160405280600481526020017f43524456000000000000000000000000000000000000000000000000000000008152506200009e62000092620000d860201b60201c565b620000e060201b60201c565b8160049080519060200190620000b6929190620001a4565b508060059080519060200190620000cf929190620001a4565b505050620002b8565b600033905090565b60008060009054906101000a900473ffffffffffffffffffffffffffffffffffffffff169050816000806101000a81548173ffffffffffffffffffffffffffffffffffffffff021916908373ffffffffffffffffffffffffffffffffffffffff1602179055508173ffffffffffffffffffffffffffffffffffffffff168173ffffffffffffffffffffffffffffffffffffffff167f8be0079c531659141344cd1fd0a4f28419497f9722a3daafe3b4186f6b6457e060405160405180910390a35050565b828054620001b29062000283565b90600052602060002090601f016020900481019282620001d6576000855562000222565b82601f10620001f157805160ff191683800117855562000222565b8280016001018555821562000222579182015b828111156200022157825182559160200191906001019062000204565b5b50905062000231919062000235565b5090565b5b808211156200025057600081600090555060010162000236565b5090565b7f4e487b7100000000000000000000000000000000000000000000000000000000600052602260045260246000fd5b600060028204905060018216806200029c57607f821691505b602082108103620002b257620002b162000254565b5b50919050565b61446e80620002c86000396000f3fe608060405234801561001057600080fd5b506004361061014d5760003560e01c806370a08231116100c3578063a9059cbb1161007c578063a9059cbb146103c6578063b166dfdd146103f6578063d82e396214610412578063dd62ed3e14610442578063ef5cfb8c14610472578063f2fde38b1461048e5761014d565b806370a08231146102f0578063715018a6146103205780637ae15a731461032a5780638da5cb5b1461035a57806395d89b4114610378578063a457c2d7146103965761014d565b80631d9b0783116101155780631d9b07831461020a57806323b872dd146102265780632bf8f75614610256578063313ce5671461027257806339509351146102905780636f1e8533146102c05761014d565b806306fdde0314610152578063095ea7b31461017057806311c88633146101a0578063156e28b8146101d057806318160ddd146101ec575b600080fd5b61015a6104aa565b604051610167919061335f565b60405180910390f35b61018a6004803603810190610185919061341a565b61053c565b6040516101979190613475565b60405180910390f35b6101ba60048036038101906101b59190613490565b61055f565b6040516101c791906134cc565b60405180910390f35b6101ea60048036038101906101e59190613490565b610616565b005b6101f461078b565b60405161020191906134cc565b60405180910390f35b610224600480360381019061021f919061352f565b610795565b005b610240600480360381019061023b919061356f565b610b06565b60405161024d9190613475565b60405180910390f35b610270600480360381019061026b91906135c2565b610b35565b005b61027a610da2565b6040516102879190613631565b60405180910390f35b6102aa60048036038101906102a5919061341a565b610dab565b6040516102b79190613475565b60405180910390f35b6102da60048036038101906102d59190613490565b610de2565b6040516102e79190613475565b60405180910390f35b61030a60048036038101906103059190613490565b610eac565b60405161031791906134cc565b60405180910390f35b610328610ef5565b005b610344600480360381019061033f9190613490565b610f09565b60405161035191906134cc565b60405180910390f35b610362610f83565b60405161036f919061365b565b60405180910390f35b610380610fac565b60405161038d919061335f565b60405180910390f35b6103b060048036038101906103ab919061341a565b61103e565b6040516103bd9190613475565b60405180910390f35b6103e060048036038101906103db919061341a565b6110b5565b6040516103ed9190613475565b60405180910390f35b610410600480360381019061040b919061352f565b6110d8565b005b61042c60048036038101906104279190613490565b611458565b60405161043991906134cc565b60405180910390f35b61045c60048036038101906104579190613676565b6121a4565b60405161046991906134cc565b60405180910390f35b61048c60048036038101906104879190613490565b61222b565b005b6104a860048036038101906104a39190613490565b61231d565b005b6060600480546104b9906136e5565b80601f01602080910402602001604051908101604052809291908181526020018280546104e5906136e5565b80156105325780601f1061050757610100808354040283529160200191610532565b820191906000526020600020905b81548152906001019060200180831161051557829003601f168201915b5050505050905090565b6000806105476123a0565b90506105548185856123a8565b600191505092915050565b6000600660008373ffffffffffffffffffffffffffffffffffffffff1673ffffffffffffffffffffffffffffffffffffffff16815260200190815260200160002060003373ffffffffffffffffffffffffffffffffffffffff1673ffffffffffffffffffffffffffffffffffffffff16815260200190815260200160002060000160009054906101000a90046fffffffffffffffffffffffffffffffff166fffffffffffffffffffffffffffffffff169050919050565b61061e612571565b600860008273ffffffffffffffffffffffffffffffffffffffff1673ffffffffffffffffffffffffffffffffffffffff16815260200190815260200160002060000160009054906101000a900460ff166106ad576040517f08c379a00000000000000000000000000000000000000000000000000000000081526004016106a490613762565b60405180910390fd5b6000600860008373ffffffffffffffffffffffffffffffffffffffff1673ffffffffffffffffffffffffffffffffffffffff16815260200190815260200160002060000160006101000a81548160ff02191690831515021790555042600860008373ffffffffffffffffffffffffffffffffffffffff1673ffffffffffffffffffffffffffffffffffffffff168152602001908152602001600020600101819055507f95900bd9ba2e434a9f276313d71b4c06e0ca09327777b54984808188444a14d48142604051610780929190613782565b60405180910390a150565b6000600354905090565b61079e81610de2565b6107dd576040517f08c379a00000000000000000000000000000000000000000000000000000000081526004016107d4906137f7565b60405180910390fd5b6000826fffffffffffffffffffffffffffffffff1611610832576040517f08c379a000000000000000000000000000000000000000000000000000000000815260040161082990613863565b60405180910390fd5b600660008273ffffffffffffffffffffffffffffffffffffffff1673ffffffffffffffffffffffffffffffffffffffff16815260200190815260200160002060003373ffffffffffffffffffffffffffffffffffffffff1673ffffffffffffffffffffffffffffffffffffffff16815260200190815260200160002060000160009054906101000a90046fffffffffffffffffffffffffffffffff166fffffffffffffffffffffffffffffffff16826fffffffffffffffffffffffffffffffff161115610934576040517f08c379a000000000000000000000000000000000000000000000000000000000815260040161092b906138cf565b60405180910390fd5b600061093f82611458565b905060008273ffffffffffffffffffffffffffffffffffffffff1663a9059cbb33866040518363ffffffff1660e01b815260040161097e92919061392a565b6020604051808303816000875af115801561099d573d6000803e3d6000fd5b505050506040513d601f19601f820116820180604052508101906109c1919061397f565b905080610a03576040517f08c379a00000000000000000000000000000000000000000000000000000000081526004016109fa906139f8565b60405180910390fd5b610a0d84846125ef565b610a1784846127b0565b83600860008573ffffffffffffffffffffffffffffffffffffffff1673ffffffffffffffffffffffffffffffffffffffff16815260200190815260200160002060020160108282829054906101000a90046fffffffffffffffffffffffffffffffff16610a849190613a47565b92506101000a8154816fffffffffffffffffffffffffffffffff02191690836fffffffffffffffffffffffffffffffff160217905550610ac382612949565b7fbd791e6972e4060b94df68a5b4f17c30ebc1dc2a05086ce163bf93ccf08f41f333848642604051610af89493929190613a8a565b60405180910390a150505050565b600080610b116123a0565b9050610b1e858285612956565b610b298585856129e2565b60019150509392505050565b610b3d612571565b600860008473ffffffffffffffffffffffffffffffffffffffff1673ffffffffffffffffffffffffffffffffffffffff16815260200190815260200160002060000160009054906101000a900460ff1615610bcd576040517f08c379a0000000000000000000000000000000000000000000000000000000008152600401610bc490613b1b565b60405180910390fd5b6040518060a001604052806001151581526020018273ffffffffffffffffffffffffffffffffffffffff16815260200160008152602001836fffffffffffffffffffffffffffffffff16815260200160006fffffffffffffffffffffffffffffffff16815250600860008573ffffffffffffffffffffffffffffffffffffffff1673ffffffffffffffffffffffffffffffffffffffff16815260200190815260200160002060008201518160000160006101000a81548160ff02191690831515021790555060208201518160000160016101000a81548173ffffffffffffffffffffffffffffffffffffffff021916908373ffffffffffffffffffffffffffffffffffffffff1602179055506040820151816001015560608201518160020160006101000a8154816fffffffffffffffffffffffffffffffff02191690836fffffffffffffffffffffffffffffffff16021790555060808201518160020160106101000a8154816fffffffffffffffffffffffffffffffff02191690836fffffffffffffffffffffffffffffffff1602179055509050507fbe4222bc407cb12031595fc55b46531e46308d31e4572c9c4360d8ae790e1a318383604051610d9592919061392a565b60405180910390a1505050565b60006012905090565b600080610db66123a0565b9050610dd7818585610dc885896121a4565b610dd29190613b3b565b6123a8565b600191505092915050565b600080600660008473ffffffffffffffffffffffffffffffffffffffff1673ffffffffffffffffffffffffffffffffffffffff16815260200190815260200160002060003373ffffffffffffffffffffffffffffffffffffffff1673ffffffffffffffffffffffffffffffffffffffff16815260200190815260200160002060000160009054906101000a90046fffffffffffffffffffffffffffffffff166fffffffffffffffffffffffffffffffff161115610ea25760019050610ea7565b600090505b919050565b6000600160008373ffffffffffffffffffffffffffffffffffffffff1673ffffffffffffffffffffffffffffffffffffffff168152602001908152602001600020549050919050565b610efd612571565b610f076000612c64565b565b6000600860008373ffffffffffffffffffffffffffffffffffffffff1673ffffffffffffffffffffffffffffffffffffffff16815260200190815260200160002060020160109054906101000a90046fffffffffffffffffffffffffffffffff166fffffffffffffffffffffffffffffffff169050919050565b60008060009054906101000a900473ffffffffffffffffffffffffffffffffffffffff16905090565b606060058054610fbb906136e5565b80601f0160208091040260200160405190810160405280929190818152602001828054610fe7906136e5565b80156110345780601f1061100957610100808354040283529160200191611034565b820191906000526020600020905b81548152906001019060200180831161101757829003601f168201915b5050505050905090565b6000806110496123a0565b9050600061105782866121a4565b90508381101561109c576040517f08c379a000000000000000000000000000000000000000000000000000000000815260040161109390613c03565b60405180910390fd5b6110a982868684036123a8565b60019250505092915050565b6000806110c06123a0565b90506110cd8185856129e2565b600191505092915050565b6000826fffffffffffffffffffffffffffffffff161161112d576040517f08c379a000000000000000000000000000000000000000000000000000000000815260040161112490613863565b60405180910390fd5b600860008273ffffffffffffffffffffffffffffffffffffffff1673ffffffffffffffffffffffffffffffffffffffff16815260200190815260200160002060000160009054906101000a900460ff166111bc576040517f08c379a00000000000000000000000000000000000000000000000000000000081526004016111b390613762565b60405180910390fd5b600080600660008473ffffffffffffffffffffffffffffffffffffffff1673ffffffffffffffffffffffffffffffffffffffff16815260200190815260200160002060003373ffffffffffffffffffffffffffffffffffffffff1673ffffffffffffffffffffffffffffffffffffffff16815260200190815260200160002060000160009054906101000a90046fffffffffffffffffffffffffffffffff166fffffffffffffffffffffffffffffffff160361127b5760009050611287565b61128482611458565b90505b60008273ffffffffffffffffffffffffffffffffffffffff166323b872dd3330876040518463ffffffff1660e01b81526004016112c693929190613c23565b6020604051808303816000875af11580156112e5573d6000803e3d6000fd5b505050506040513d601f19601f82011682018060405250810190611309919061397f565b90508061134b576040517f08c379a0000000000000000000000000000000000000000000000000000000008152600401611342906139f8565b60405180910390fd5b6113558484612d28565b61135f8484612ec1565b83600860008573ffffffffffffffffffffffffffffffffffffffff1673ffffffffffffffffffffffffffffffffffffffff16815260200190815260200160002060020160108282829054906101000a90046fffffffffffffffffffffffffffffffff166113cc9190613c5a565b92506101000a8154816fffffffffffffffffffffffffffffffff02191690836fffffffffffffffffffffffffffffffff16021790555060008211156114155761141482612949565b5b7f1668de67314c72bac0de03c24eeecb3c305dc4cdf055be48782f2c7a09bc39ca3384864260405161144a9493929190613a8a565b60405180910390a150505050565b600061146382610de2565b6114a2576040517f08c379a0000000000000000000000000000000000000000000000000000000008152600401611499906137f7565b60405180910390fd5b6000600190506000611515600860008673ffffffffffffffffffffffffffffffffffffffff1673ffffffffffffffffffffffffffffffffffffffff16815260200190815260200160002060000160019054906101000a900473ffffffffffffffffffffffffffffffffffffffff166130d5565b905060006301e133806305f5e100600860008873ffffffffffffffffffffffffffffffffffffffff1673ffffffffffffffffffffffffffffffffffffffff16815260200190815260200160002060020160009054906101000a90046fffffffffffffffffffffffffffffffff1661158c9190613ca0565b6115969190613d19565b6fffffffffffffffffffffffffffffffff169050600080600760008873ffffffffffffffffffffffffffffffffffffffff1673ffffffffffffffffffffffffffffffffffffffff168152602001908152602001600020805490509050600080600090505b8281101561170157600660008a73ffffffffffffffffffffffffffffffffffffffff1673ffffffffffffffffffffffffffffffffffffffff16815260200190815260200160002060003373ffffffffffffffffffffffffffffffffffffffff1673ffffffffffffffffffffffffffffffffffffffff16815260200190815260200160002060010154600760008b73ffffffffffffffffffffffffffffffffffffffff1673ffffffffffffffffffffffffffffffffffffffff16815260200190815260200160002082815481106116d3576116d2613d4a565b5b906000526020600020906002020160000154036116ee578091505b80806116f990613d79565b9150506115fa565b50600860008973ffffffffffffffffffffffffffffffffffffffff1673ffffffffffffffffffffffffffffffffffffffff16815260200190815260200160002060000160009054906101000a900460ff1615611c2657600182036117fc57600660008973ffffffffffffffffffffffffffffffffffffffff1673ffffffffffffffffffffffffffffffffffffffff16815260200190815260200160002060003373ffffffffffffffffffffffffffffffffffffffff1673ffffffffffffffffffffffffffffffffffffffff16815260200190815260200160002060010154426117ea9190613dc1565b836117f59190613b3b565b9250611c21565b60008190505b60018361180f9190613dc1565b811015611a6557600760008a73ffffffffffffffffffffffffffffffffffffffff1673ffffffffffffffffffffffffffffffffffffffff168152602001908152602001600020818154811061186757611866613d4a565b5b906000526020600020906002020160010160009054906101000a90046fffffffffffffffffffffffffffffffff166fffffffffffffffffffffffffffffffff16600660008b73ffffffffffffffffffffffffffffffffffffffff1673ffffffffffffffffffffffffffffffffffffffff16815260200190815260200160002060003373ffffffffffffffffffffffffffffffffffffffff1673ffffffffffffffffffffffffffffffffffffffff16815260200190815260200160002060000160009054906101000a90046fffffffffffffffffffffffffffffffff166fffffffffffffffffffffffffffffffff16600760008c73ffffffffffffffffffffffffffffffffffffffff1673ffffffffffffffffffffffffffffffffffffffff16815260200190815260200160002083815481106119a6576119a5613d4a565b5b906000526020600020906002020160000154600760008d73ffffffffffffffffffffffffffffffffffffffff1673ffffffffffffffffffffffffffffffffffffffff168152602001908152602001600020600185611a049190613b3b565b81548110611a1557611a14613d4a565b5b906000526020600020906002020160000154611a319190613dc1565b611a3b9190613df5565b611a459190613e4f565b84611a509190613b3b565b93508080611a5d90613d79565b915050611802565b50600860008973ffffffffffffffffffffffffffffffffffffffff1673ffffffffffffffffffffffffffffffffffffffff16815260200190815260200160002060020160109054906101000a90046fffffffffffffffffffffffffffffffff166fffffffffffffffffffffffffffffffff16600660008a73ffffffffffffffffffffffffffffffffffffffff1673ffffffffffffffffffffffffffffffffffffffff16815260200190815260200160002060003373ffffffffffffffffffffffffffffffffffffffff1673ffffffffffffffffffffffffffffffffffffffff16815260200190815260200160002060000160009054906101000a90046fffffffffffffffffffffffffffffffff166fffffffffffffffffffffffffffffffff16600760008b73ffffffffffffffffffffffffffffffffffffffff1673ffffffffffffffffffffffffffffffffffffffff168152602001908152602001600020600185611bd19190613dc1565b81548110611be257611be1613d4a565b5b90600052602060002090600202016000015442611bff9190613dc1565b611c099190613df5565b611c139190613e4f565b83611c1e9190613b3b565b92505b612175565b60018203611d0d57600660008973ffffffffffffffffffffffffffffffffffffffff1673ffffffffffffffffffffffffffffffffffffffff16815260200190815260200160002060003373ffffffffffffffffffffffffffffffffffffffff1673ffffffffffffffffffffffffffffffffffffffff16815260200190815260200160002060010154600860008a73ffffffffffffffffffffffffffffffffffffffff1673ffffffffffffffffffffffffffffffffffffffff16815260200190815260200160002060010154611cfb9190613dc1565b83611d069190613b3b565b9250612174565b60008190505b600183611d209190613dc1565b811015611f7657600760008a73ffffffffffffffffffffffffffffffffffffffff1673ffffffffffffffffffffffffffffffffffffffff1681526020019081526020016000208181548110611d7857611d77613d4a565b5b906000526020600020906002020160010160009054906101000a90046fffffffffffffffffffffffffffffffff166fffffffffffffffffffffffffffffffff16600660008b73ffffffffffffffffffffffffffffffffffffffff1673ffffffffffffffffffffffffffffffffffffffff16815260200190815260200160002060003373ffffffffffffffffffffffffffffffffffffffff1673ffffffffffffffffffffffffffffffffffffffff16815260200190815260200160002060000160009054906101000a90046fffffffffffffffffffffffffffffffff166fffffffffffffffffffffffffffffffff16600760008c73ffffffffffffffffffffffffffffffffffffffff1673ffffffffffffffffffffffffffffffffffffffff1681526020019081526020016000208381548110611eb757611eb6613d4a565b5b906000526020600020906002020160000154600760008d73ffffffffffffffffffffffffffffffffffffffff1673ffffffffffffffffffffffffffffffffffffffff168152602001908152602001600020600185611f159190613b3b565b81548110611f2657611f25613d4a565b5b906000526020600020906002020160000154611f429190613dc1565b611f4c9190613df5565b611f569190613e4f565b84611f619190613b3b565b93508080611f6e90613d79565b915050611d13565b50600860008973ffffffffffffffffffffffffffffffffffffffff1673ffffffffffffffffffffffffffffffffffffffff16815260200190815260200160002060020160109054906101000a90046fffffffffffffffffffffffffffffffff166fffffffffffffffffffffffffffffffff16600660008a73ffffffffffffffffffffffffffffffffffffffff1673ffffffffffffffffffffffffffffffffffffffff16815260200190815260200160002060003373ffffffffffffffffffffffffffffffffffffffff1673ffffffffffffffffffffffffffffffffffffffff16815260200190815260200160002060000160009054906101000a90046fffffffffffffffffffffffffffffffff166fffffffffffffffffffffffffffffffff16600760008b73ffffffffffffffffffffffffffffffffffffffff1673ffffffffffffffffffffffffffffffffffffffff1681526020019081526020016000206001856120e29190613dc1565b815481106120f3576120f2613d4a565b5b906000526020600020906002020160000154600860008c73ffffffffffffffffffffffffffffffffffffffff1673ffffffffffffffffffffffffffffffffffffffff168152602001908152602001600020600101546121529190613dc1565b61215c9190613df5565b6121669190613e4f565b836121719190613b3b565b92505b5b858486856121839190613df5565b61218d9190613df5565b6121979190613e4f565b9650505050505050919050565b6000600260008473ffffffffffffffffffffffffffffffffffffffff1673ffffffffffffffffffffffffffffffffffffffff16815260200190815260200160002060008373ffffffffffffffffffffffffffffffffffffffff1673ffffffffffffffffffffffffffffffffffffffff16815260200190815260200160002054905092915050565b61223481610de2565b612273576040517f08c379a000000000000000000000000000000000000000000000000000000000815260040161226a906137f7565b60405180910390fd5b600061227e82611458565b905061228b600083612ec1565b42600660008473ffffffffffffffffffffffffffffffffffffffff1673ffffffffffffffffffffffffffffffffffffffff16815260200190815260200160002060003373ffffffffffffffffffffffffffffffffffffffff1673ffffffffffffffffffffffffffffffffffffffff16815260200190815260200160002060010181905550612319338261315c565b5050565b612325612571565b600073ffffffffffffffffffffffffffffffffffffffff168173ffffffffffffffffffffffffffffffffffffffff1603612394576040517f08c379a000000000000000000000000000000000000000000000000000000000815260040161238b90613ef2565b60405180910390fd5b61239d81612c64565b50565b600033905090565b600073ffffffffffffffffffffffffffffffffffffffff168373ffffffffffffffffffffffffffffffffffffffff1603612417576040517f08c379a000000000000000000000000000000000000000000000000000000000815260040161240e90613f84565b60405180910390fd5b600073ffffffffffffffffffffffffffffffffffffffff168273ffffffffffffffffffffffffffffffffffffffff1603612486576040517f08c379a000000000000000000000000000000000000000000000000000000000815260040161247d90614016565b60405180910390fd5b80600260008573ffffffffffffffffffffffffffffffffffffffff1673ffffffffffffffffffffffffffffffffffffffff16815260200190815260200160002060008473ffffffffffffffffffffffffffffffffffffffff1673ffffffffffffffffffffffffffffffffffffffff168152602001908152602001600020819055508173ffffffffffffffffffffffffffffffffffffffff168373ffffffffffffffffffffffffffffffffffffffff167f8c5be1e5ebec7d5bd14f71427d1e84f3dd0314c0f7b2291e5b200ac8c7c3b9258360405161256491906134cc565b60405180910390a3505050565b6125796123a0565b73ffffffffffffffffffffffffffffffffffffffff16612597610f83565b73ffffffffffffffffffffffffffffffffffffffff16146125ed576040517f08c379a00000000000000000000000000000000000000000000000000000000081526004016125e490614082565b60405180910390fd5b565b6000600760008373ffffffffffffffffffffffffffffffffffffffff1673ffffffffffffffffffffffffffffffffffffffff1681526020019081526020016000206001600760008573ffffffffffffffffffffffffffffffffffffffff1673ffffffffffffffffffffffffffffffffffffffff1681526020019081526020016000208054905061267f9190613dc1565b815481106126905761268f613d4a565b5b906000526020600020906002020160010160009054906101000a90046fffffffffffffffffffffffffffffffff1690506000604051806040016040528042815260200185846126df9190613a47565b6fffffffffffffffffffffffffffffffff168152509050600760008473ffffffffffffffffffffffffffffffffffffffff1673ffffffffffffffffffffffffffffffffffffffff1681526020019081526020016000208190806001815401808255809150506001900390600052602060002090600202016000909190919091506000820151816000015560208201518160010160006101000a8154816fffffffffffffffffffffffffffffffff02191690836fffffffffffffffffffffffffffffffff160217905550505050505050565b604051806040016040528083600660008573ffffffffffffffffffffffffffffffffffffffff1673ffffffffffffffffffffffffffffffffffffffff16815260200190815260200160002060003373ffffffffffffffffffffffffffffffffffffffff1673ffffffffffffffffffffffffffffffffffffffff16815260200190815260200160002060000160009054906101000a90046fffffffffffffffffffffffffffffffff166128629190613a47565b6fffffffffffffffffffffffffffffffff16815260200142815250600660008373ffffffffffffffffffffffffffffffffffffffff1673ffffffffffffffffffffffffffffffffffffffff16815260200190815260200160002060003373ffffffffffffffffffffffffffffffffffffffff1673ffffffffffffffffffffffffffffffffffffffff16815260200190815260200160002060008201518160000160006101000a8154816fffffffffffffffffffffffffffffffff02191690836fffffffffffffffffffffffffffffffff160217905550602082015181600101559050505050565b612953338261315c565b50565b600061296284846121a4565b90507fffffffffffffffffffffffffffffffffffffffffffffffffffffffffffffffff81146129dc57818110156129ce576040517f08c379a00000000000000000000000000000000000000000000000000000000081526004016129c5906140ee565b60405180910390fd5b6129db84848484036123a8565b5b50505050565b600073ffffffffffffffffffffffffffffffffffffffff168373ffffffffffffffffffffffffffffffffffffffff1603612a51576040517f08c379a0000000000000000000000000000000000000000000000000000000008152600401612a4890614180565b60405180910390fd5b600073ffffffffffffffffffffffffffffffffffffffff168273ffffffffffffffffffffffffffffffffffffffff1603612ac0576040517f08c379a0000000000000000000000000000000000000000000000000000000008152600401612ab790614212565b60405180910390fd5b612acb8383836132bc565b6000600160008573ffffffffffffffffffffffffffffffffffffffff1673ffffffffffffffffffffffffffffffffffffffff16815260200190815260200160002054905081811015612b52576040517f08c379a0000000000000000000000000000000000000000000000000000000008152600401612b49906142a4565b60405180910390fd5b818103600160008673ffffffffffffffffffffffffffffffffffffffff1673ffffffffffffffffffffffffffffffffffffffff1681526020019081526020016000208190555081600160008573ffffffffffffffffffffffffffffffffffffffff1673ffffffffffffffffffffffffffffffffffffffff1681526020019081526020016000206000828254612be79190613b3b565b925050819055508273ffffffffffffffffffffffffffffffffffffffff168473ffffffffffffffffffffffffffffffffffffffff167fddf252ad1be2c89b69c2b068fc378daa952ba7f163c4a11628f55a4df523b3ef84604051612c4b91906134cc565b60405180910390a3612c5e8484846132c1565b50505050565b60008060009054906101000a900473ffffffffffffffffffffffffffffffffffffffff169050816000806101000a81548173ffffffffffffffffffffffffffffffffffffffff021916908373ffffffffffffffffffffffffffffffffffffffff1602179055508173ffffffffffffffffffffffffffffffffffffffff168173ffffffffffffffffffffffffffffffffffffffff167f8be0079c531659141344cd1fd0a4f28419497f9722a3daafe3b4186f6b6457e060405160405180910390a35050565b604051806040016040528083600660008573ffffffffffffffffffffffffffffffffffffffff1673ffffffffffffffffffffffffffffffffffffffff16815260200190815260200160002060003373ffffffffffffffffffffffffffffffffffffffff1673ffffffffffffffffffffffffffffffffffffffff16815260200190815260200160002060000160009054906101000a90046fffffffffffffffffffffffffffffffff16612dda9190613c5a565b6fffffffffffffffffffffffffffffffff16815260200142815250600660008373ffffffffffffffffffffffffffffffffffffffff1673ffffffffffffffffffffffffffffffffffffffff16815260200190815260200160002060003373ffffffffffffffffffffffffffffffffffffffff1673ffffffffffffffffffffffffffffffffffffffff16815260200190815260200160002060008201518160000160006101000a8154816fffffffffffffffffffffffffffffffff02191690836fffffffffffffffffffffffffffffffff160217905550602082015181600101559050505050565b600080600760008473ffffffffffffffffffffffffffffffffffffffff1673ffffffffffffffffffffffffffffffffffffffff1681526020019081526020016000208054905003612f155760009050612fe5565b600760008373ffffffffffffffffffffffffffffffffffffffff1673ffffffffffffffffffffffffffffffffffffffff1681526020019081526020016000206001600760008573ffffffffffffffffffffffffffffffffffffffff1673ffffffffffffffffffffffffffffffffffffffff16815260200190815260200160002080549050612fa39190613dc1565b81548110612fb457612fb3613d4a565b5b906000526020600020906002020160010160009054906101000a90046fffffffffffffffffffffffffffffffff1690505b6000604051806040016040528042815260200185846130049190613c5a565b6fffffffffffffffffffffffffffffffff168152509050600760008473ffffffffffffffffffffffffffffffffffffffff1673ffffffffffffffffffffffffffffffffffffffff1681526020019081526020016000208190806001815401808255809150506001900390600052602060002090600202016000909190919091506000820151816000015560208201518160010160006101000a8154816fffffffffffffffffffffffffffffffff02191690836fffffffffffffffffffffffffffffffff160217905550505050505050565b60008082905060008173ffffffffffffffffffffffffffffffffffffffff1663feaf968c6040518163ffffffff1660e01b815260040160a060405180830381865afa158015613128573d6000803e3d6000fd5b505050506040513d601f19601f8201168201806040525081019061314c9190614351565b5050509150508092505050919050565b600073ffffffffffffffffffffffffffffffffffffffff168273ffffffffffffffffffffffffffffffffffffffff16036131cb576040517f08c379a00000000000000000000000000000000000000000000000000000000081526004016131c290614418565b60405180910390fd5b6131d7600083836132bc565b80600360008282546131e99190613b3b565b9250508190555080600160008473ffffffffffffffffffffffffffffffffffffffff1673ffffffffffffffffffffffffffffffffffffffff168152602001908152602001600020600082825461323f9190613b3b565b925050819055508173ffffffffffffffffffffffffffffffffffffffff16600073ffffffffffffffffffffffffffffffffffffffff167fddf252ad1be2c89b69c2b068fc378daa952ba7f163c4a11628f55a4df523b3ef836040516132a491906134cc565b60405180910390a36132b8600083836132c1565b5050565b505050565b505050565b600081519050919050565b600082825260208201905092915050565b60005b838110156133005780820151818401526020810190506132e5565b8381111561330f576000848401525b50505050565b6000601f19601f8301169050919050565b6000613331826132c6565b61333b81856132d1565b935061334b8185602086016132e2565b61335481613315565b840191505092915050565b600060208201905081810360008301526133798184613326565b905092915050565b600080fd5b600073ffffffffffffffffffffffffffffffffffffffff82169050919050565b60006133b182613386565b9050919050565b6133c1816133a6565b81146133cc57600080fd5b50565b6000813590506133de816133b8565b92915050565b6000819050919050565b6133f7816133e4565b811461340257600080fd5b50565b600081359050613414816133ee565b92915050565b6000806040838503121561343157613430613381565b5b600061343f858286016133cf565b925050602061345085828601613405565b9150509250929050565b60008115159050919050565b61346f8161345a565b82525050565b600060208201905061348a6000830184613466565b92915050565b6000602082840312156134a6576134a5613381565b5b60006134b4848285016133cf565b91505092915050565b6134c6816133e4565b82525050565b60006020820190506134e160008301846134bd565b92915050565b60006fffffffffffffffffffffffffffffffff82169050919050565b61350c816134e7565b811461351757600080fd5b50565b60008135905061352981613503565b92915050565b6000806040838503121561354657613545613381565b5b60006135548582860161351a565b9250506020613565858286016133cf565b9150509250929050565b60008060006060848603121561358857613587613381565b5b6000613596868287016133cf565b93505060206135a7868287016133cf565b92505060406135b886828701613405565b9150509250925092565b6000806000606084860312156135db576135da613381565b5b60006135e9868287016133cf565b93505060206135fa8682870161351a565b925050604061360b868287016133cf565b9150509250925092565b600060ff82169050919050565b61362b81613615565b82525050565b60006020820190506136466000830184613622565b92915050565b613655816133a6565b82525050565b6000602082019050613670600083018461364c565b92915050565b6000806040838503121561368d5761368c613381565b5b600061369b858286016133cf565b92505060206136ac858286016133cf565b9150509250929050565b7f4e487b7100000000000000000000000000000000000000000000000000000000600052602260045260246000fd5b600060028204905060018216806136fd57607f821691505b6020821081036137105761370f6136b6565b5b50919050565b7f506f6f6c206e6f74206163746976650000000000000000000000000000000000600082015250565b600061374c600f836132d1565b915061375782613716565b602082019050919050565b6000602082019050818103600083015261377b8161373f565b9050919050565b6000604082019050613797600083018561364c565b6137a460208301846134bd565b9392505050565b7f4e6f742061207374616b65720000000000000000000000000000000000000000600082015250565b60006137e1600c836132d1565b91506137ec826137ab565b602082019050919050565b60006020820190508181036000830152613810816137d4565b9050919050565b7f416d6f756e742063616e2774206265207a65726f000000000000000000000000600082015250565b600061384d6014836132d1565b915061385882613817565b602082019050919050565b6000602082019050818103600083015261387c81613840565b9050919050565b7f446f6e2774206861766520736f206d616e7920746f6b656e7300000000000000600082015250565b60006138b96019836132d1565b91506138c482613883565b602082019050919050565b600060208201905081810360008301526138e8816138ac565b9050919050565b6000819050919050565b600061391461390f61390a846134e7565b6138ef565b6133e4565b9050919050565b613924816138f9565b82525050565b600060408201905061393f600083018561364c565b61394c602083018461391b565b9392505050565b61395c8161345a565b811461396757600080fd5b50565b60008151905061397981613953565b92915050565b60006020828403121561399557613994613381565b5b60006139a38482850161396a565b91505092915050565b7f5472616e736665722066726f6d206572726f7200000000000000000000000000600082015250565b60006139e26013836132d1565b91506139ed826139ac565b602082019050919050565b60006020820190508181036000830152613a11816139d5565b9050919050565b7f4e487b7100000000000000000000000000000000000000000000000000000000600052601160045260246000fd5b6000613a52826134e7565b9150613a5d836134e7565b925082821015613a7057613a6f613a18565b5b828203905092915050565b613a84816134e7565b82525050565b6000608082019050613a9f600083018761364c565b613aac602083018661364c565b613ab96040830185613a7b565b613ac660608301846134bd565b95945050505050565b7f506f6f6c20616374697665000000000000000000000000000000000000000000600082015250565b6000613b05600b836132d1565b9150613b1082613acf565b602082019050919050565b60006020820190508181036000830152613b3481613af8565b9050919050565b6000613b46826133e4565b9150613b51836133e4565b9250827fffffffffffffffffffffffffffffffffffffffffffffffffffffffffffffffff03821115613b8657613b85613a18565b5b828201905092915050565b7f45524332303a2064656372656173656420616c6c6f77616e63652062656c6f7760008201527f207a65726f000000000000000000000000000000000000000000000000000000602082015250565b6000613bed6025836132d1565b9150613bf882613b91565b604082019050919050565b60006020820190508181036000830152613c1c81613be0565b9050919050565b6000606082019050613c38600083018661364c565b613c45602083018561364c565b613c52604083018461391b565b949350505050565b6000613c65826134e7565b9150613c70836134e7565b9250826fffffffffffffffffffffffffffffffff03821115613c9557613c94613a18565b5b828201905092915050565b6000613cab826134e7565b9150613cb6836134e7565b9250816fffffffffffffffffffffffffffffffff0483118215151615613cdf57613cde613a18565b5b828202905092915050565b7f4e487b7100000000000000000000000000000000000000000000000000000000600052601260045260246000fd5b6000613d24826134e7565b9150613d2f836134e7565b925082613d3f57613d3e613cea565b5b828204905092915050565b7f4e487b7100000000000000000000000000000000000000000000000000000000600052603260045260246000fd5b6000613d84826133e4565b91507fffffffffffffffffffffffffffffffffffffffffffffffffffffffffffffffff8203613db657613db5613a18565b5b600182019050919050565b6000613dcc826133e4565b9150613dd7836133e4565b925082821015613dea57613de9613a18565b5b828203905092915050565b6000613e00826133e4565b9150613e0b836133e4565b9250817fffffffffffffffffffffffffffffffffffffffffffffffffffffffffffffffff0483118215151615613e4457613e43613a18565b5b828202905092915050565b6000613e5a826133e4565b9150613e65836133e4565b925082613e7557613e74613cea565b5b828204905092915050565b7f4f776e61626c653a206e6577206f776e657220697320746865207a65726f206160008201527f6464726573730000000000000000000000000000000000000000000000000000602082015250565b6000613edc6026836132d1565b9150613ee782613e80565b604082019050919050565b60006020820190508181036000830152613f0b81613ecf565b9050919050565b7f45524332303a20617070726f76652066726f6d20746865207a65726f2061646460008201527f7265737300000000000000000000000000000000000000000000000000000000602082015250565b6000613f6e6024836132d1565b9150613f7982613f12565b604082019050919050565b60006020820190508181036000830152613f9d81613f61565b9050919050565b7f45524332303a20617070726f766520746f20746865207a65726f20616464726560008201527f7373000000000000000000000000000000000000000000000000000000000000602082015250565b60006140006022836132d1565b915061400b82613fa4565b604082019050919050565b6000602082019050818103600083015261402f81613ff3565b9050919050565b7f4f776e61626c653a2063616c6c6572206973206e6f7420746865206f776e6572600082015250565b600061406c6020836132d1565b915061407782614036565b602082019050919050565b6000602082019050818103600083015261409b8161405f565b9050919050565b7f45524332303a20696e73756666696369656e7420616c6c6f77616e6365000000600082015250565b60006140d8601d836132d1565b91506140e3826140a2565b602082019050919050565b60006020820190508181036000830152614107816140cb565b9050919050565b7f45524332303a207472616e736665722066726f6d20746865207a65726f20616460008201527f6472657373000000000000000000000000000000000000000000000000000000602082015250565b600061416a6025836132d1565b91506141758261410e565b604082019050919050565b600060208201905081810360008301526141998161415d565b9050919050565b7f45524332303a207472616e7366657220746f20746865207a65726f206164647260008201527f6573730000000000000000000000000000000000000000000000000000000000602082015250565b60006141fc6023836132d1565b9150614207826141a0565b604082019050919050565b6000602082019050818103600083015261422b816141ef565b9050919050565b7f45524332303a207472616e7366657220616d6f756e742065786365656473206260008201527f616c616e63650000000000000000000000000000000000000000000000000000602082015250565b600061428e6026836132d1565b915061429982614232565b604082019050919050565b600060208201905081810360008301526142bd81614281565b9050919050565b600069ffffffffffffffffffff82169050919050565b6142e3816142c4565b81146142ee57600080fd5b50565b600081519050614300816142da565b92915050565b6000819050919050565b61431981614306565b811461432457600080fd5b50565b60008151905061433681614310565b92915050565b60008151905061434b816133ee565b92915050565b600080600080600060a0868803121561436d5761436c613381565b5b600061437b888289016142f1565b955050602061438c88828901614327565b945050604061439d8882890161433c565b93505060606143ae8882890161433c565b92505060806143bf888289016142f1565b9150509295509295909350565b7f45524332303a206d696e7420746f20746865207a65726f206164647265737300600082015250565b6000614402601f836132d1565b915061440d826143cc565b602082019050919050565b60006020820190508181036000830152614431816143f5565b905091905056fea26469706673582212206f701fdaf3a71df63c37d04c477291de2054d4666718aef10de90fd0047ab6a064736f6c634300080e0033",
  "immutableReferences": {},
  "source": "// SPDX-License-Identifier: MIT\r\npragma solidity 0.8.14;\r\n\r\nimport \"../node_modules/@openzeppelin/contracts/token/ERC20/IERC20.sol\";\r\nimport \"../node_modules/@openzeppelin/contracts/access/Ownable.sol\";\r\nimport \"../node_modules/@chainlink/contracts/src/v0.8/interfaces/AggregatorV3Interface.sol\";\r\nimport \"./CrowdV.sol\";\r\nimport \"./StackingPool.sol\";\r\n\r\n/**\r\n * @title Staking : a Staking Plateform !\r\n * @author Anthony - Etienne - Jean-Baptiste\r\n */\r\n\r\ncontract Staking is Ownable, CrowdV, StackingPool {\r\n    //Information about the token\r\n    struct Token {\r\n        bool activePool;\r\n        address addressPrice; //Chainlink Pool\r\n        uint256 dateStop;\r\n        uint128 APR;\r\n        uint128 totalStakes;\r\n    }\r\n\r\n    // Token address => active pool\r\n    mapping(address => Token) pools;\r\n\r\n    // Events\r\n    event NewPool(address tokenAddress, uint256 APR);\r\n    event StopPool(address tokenAddress, uint256 date);\r\n    event Stake(\r\n        address sender,\r\n        address tokenAddress,\r\n        uint128 amount,\r\n        uint256 date\r\n    );\r\n    event Unstake(\r\n        address sender,\r\n        address tokenAddress,\r\n        uint128 amount,\r\n        uint256 date\r\n    );\r\n\r\n    /**\r\n     * @notice Make available token address to add pool\r\n     * @dev Available only for owner\r\n     * @param _token is token address\r\n     * @param _apr is APR of the pool\r\n     * @param _addressPrice is Chainlink pool\r\n     */\r\n    function addPool(\r\n        address _token,\r\n        uint128 _apr,\r\n        address _addressPrice\r\n    ) external onlyOwner {\r\n        require(!pools[_token].activePool, \"Pool active\");\r\n\r\n        pools[_token] = Token(true, _addressPrice, 0, _apr, 0);\r\n\r\n        emit NewPool(_token, _apr);\r\n    }\r\n\r\n    /**\r\n     * @notice disable a pool\r\n     * @dev Available only for owner\r\n     * @param _token is token address\r\n     */\r\n    function stopPool(address _token) external onlyOwner {\r\n        require(pools[_token].activePool, \"Pool not active\");\r\n        pools[_token].activePool = false;\r\n        pools[_token].dateStop = block.timestamp;\r\n\r\n        emit StopPool(_token, block.timestamp);\r\n    }\r\n\r\n    /**\r\n     * @notice Stake fund into this contract\r\n     * @param _amount to stake\r\n     * @param _token to stake\r\n     * @dev Emit event after stake\r\n     */\r\n    function stake(uint128 _amount, address _token) external {\r\n        require(_amount > 0, \"Amount can't be zero\");\r\n        require(pools[_token].activePool, \"Pool not active\");\r\n\r\n        uint256 rewards;\r\n        if(stakers[_token][msg.sender].amount==0){rewards=0;}\r\n        else{rewards=calculateReward(_token);}\r\n        \r\n        bool result = IERC20(_token).transferFrom(\r\n            msg.sender,\r\n            address(this),\r\n            _amount\r\n        );\r\n        require(result, \"Transfer from error\");\r\n\r\n        upAmountStaker(_amount, _token);\r\n        upStackingPool(_amount, _token);\r\n        pools[_token].totalStakes += _amount;\r\n\r\n        if (rewards>0){_getRewards(rewards);} // Rcuprer les rewards en mme temps\r\n\r\n        emit Stake(msg.sender, _token, _amount, block.timestamp);\r\n    }\r\n\r\n    /**\r\n     * @notice Withdraw fund into this contract\r\n     * @param _token to unstake\r\n     * @param _amount number of token to unstake\r\n     */\r\n    function withdraw(uint128 _amount, address _token) external {\r\n        require(isStaker(_token), \"Not a staker\");\r\n        require(_amount > 0, \"Amount can't be zero\");\r\n        require(\r\n            _amount <= stakers[_token][msg.sender].amount,\r\n            \"Don't have so many tokens\"\r\n        );\r\n        uint256 rewards = calculateReward(_token);\r\n        bool result = IERC20(_token).transfer(msg.sender, _amount);\r\n        require(result, \"Transfer from error\");\r\n\r\n        downStackingPool( _amount, _token);\r\n        downAmountStaker( _amount, _token);\r\n        pools[_token].totalStakes -= _amount;\r\n\r\n        _getRewards(rewards); // Rcuprer les rewards en mme temps\r\n\r\n        emit Unstake(msg.sender, _token, _amount, block.timestamp);\r\n    }\r\n    \r\n    /**\r\n     * @notice Get price of token with Chainlink\r\n     * @param _pairChainlinkAddress is the pool adress in $\r\n     */\r\n    function _getLatestPrice(address _pairChainlinkAddress)\r\n        private\r\n        view\r\n        returns (uint256)\r\n    {\r\n        AggregatorV3Interface priceFeed = AggregatorV3Interface(\r\n            _pairChainlinkAddress\r\n        );\r\n        (, int256 price, , , ) = priceFeed.latestRoundData();\r\n\r\n        return uint256(price);\r\n    }\r\n\r\n    /**\r\n     * @notice Calculate rewards\r\n     * @dev tokenPrice use Chainlink Oracle\r\n     * @param _token is the token of pool to calculate rewards\r\n     * @return rewards in dollars\r\n     */\r\n    function calculateReward(address _token) public view returns (uint256) {\r\n        require(isStaker(_token), \"Not a staker\");\r\n        uint256 priceCRVD = 1; //prix du token de reward fix pour l'exercice\r\n        uint256 tokenPrice = _getLatestPrice(pools[_token].addressPrice);\r\n        uint256 aprPerSeconds = ((pools[_token].APR) * 10**8) /\r\n            (365 * 24 * 3600);\r\n        uint256 rewardspartoOfPool;\r\n        uint256 x = stakingTimes[_token].length;\r\n        uint256 blockIndex;\r\n        for (uint256 i = 0; i < x; i++) {\r\n            if (\r\n                stakingTimes[_token][i].blockDate ==\r\n                stakers[_token][msg.sender].date\r\n            ) {\r\n                blockIndex = i;\r\n            }\r\n        }\r\n\r\n        if (pools[_token].activePool) {\r\n            if (x == 1) {\r\n                rewardspartoOfPool += (block.timestamp -\r\n                    stakers[_token][msg.sender].date);\r\n            } else {\r\n                for (uint256 i = blockIndex; i < x - 1; i++) {\r\n                    rewardspartoOfPool +=\r\n                        ((stakingTimes[_token][i + 1].blockDate -\r\n                            stakingTimes[_token][i].blockDate) *\r\n                            stakers[_token][msg.sender].amount) /\r\n                        stakingTimes[_token][i].stakingTotalPool;\r\n                }\r\n                rewardspartoOfPool +=\r\n                    ((block.timestamp - stakingTimes[_token][x - 1].blockDate) *\r\n                        stakers[_token][msg.sender].amount) /\r\n                    pools[_token].totalStakes;\r\n            }\r\n        } else {\r\n            if (x == 1) {\r\n                rewardspartoOfPool += (pools[_token].dateStop -\r\n                    stakers[_token][msg.sender].date);\r\n            } else {\r\n                for (uint256 i = blockIndex; i < x - 1; i++) {\r\n                    rewardspartoOfPool +=\r\n                        ((stakingTimes[_token][i + 1].blockDate -\r\n                            stakingTimes[_token][i].blockDate) *\r\n                            stakers[_token][msg.sender].amount) /\r\n                        stakingTimes[_token][i].stakingTotalPool;\r\n                }\r\n                rewardspartoOfPool +=\r\n                    ((pools[_token].dateStop -\r\n                        stakingTimes[_token][x - 1].blockDate) *\r\n                        stakers[_token][msg.sender].amount) /\r\n                    pools[_token].totalStakes;\r\n            }\r\n        }\r\n\r\n        return rewardspartoOfPool * tokenPrice * aprPerSeconds / priceCRVD;\r\n    }\r\n\r\n    /**\r\n     * @notice Claim your rewards\r\n     * @dev Available only for stakers who have rewards to claim\r\n     * @param _token is token of the pool to claim rewards\r\n     */\r\n    function claimRewards(address _token) external {\r\n        require(isStaker(_token), \"Not a staker\");\r\n        uint256 rewards = calculateReward(_token);\r\n        upStackingPool(0, _token);\r\n        stakers[_token][msg.sender].date = block.timestamp; //Remettre  0 le timestamp\r\n        _mint(msg.sender, rewards);\r\n    }\r\n\r\n    /**\r\n     * @notice Autoclaim rewards when add staking or withdraw\r\n     * @dev Available only for function stake and withdraw\r\n     * @param _amount is amount in $ of the rewards to claim\r\n     */\r\n    function _getRewards(uint256 _amount) private {\r\n        _mint(msg.sender, _amount);\r\n    }\r\n\r\n    /**\r\n     * @notice Check amount of a stacked pool from msg.sender\r\n     * @param _token is address token of the pool to check\r\n     */\r\n    function getStaking(address _token) external view returns (uint256) {\r\n        return stakers[_token][msg.sender].amount;\r\n    }\r\n\r\n    /**\r\n     * @notice Check if msg.sender is a staker of a pool\r\n     * @dev Can be used to show the staked pools on the Dapp\r\n     * @param _token is address token of a pool\r\n     */\r\n    function isStaker(address _token) public view returns (bool) {\r\n        if (stakers[_token][msg.sender].amount > 0) {\r\n            return true;\r\n        }\r\n        return false;\r\n    }\r\n\r\n    /**\r\n     * @notice Check total amount of a stacked pool\r\n     * @param _token is address token\r\n     */\r\n    function getTotalStaking(address _token) external view returns (uint256) {\r\n        return pools[_token].totalStakes;\r\n    }\r\n}\r\n",
  "sourcePath": "/home/etienne/workspace/tp-defi/truffle/contracts/Staking.sol",
  "compiler": {
    "name": "solc",
    "version": "0.8.14+commit.80d49f37.Emscripten.clang"
  },
  "schemaVersion": "3.4.7",
  "updatedAt": "2022-08-06T13:38:46.643Z",
  "networkType": "ethereum",
  "devdoc": {
    "author": "Anthony - Etienne - Jean-Baptiste",
    "kind": "dev",
    "methods": {
      "addPool(address,uint128,address)": {
        "details": "Available only for owner",
        "params": {
          "_addressPrice": "is Chainlink pool",
          "_apr": "is APR of the pool",
          "_token": "is token address"
        }
      },
      "allowance(address,address)": {
        "details": "See {IERC20-allowance}."
      },
      "approve(address,uint256)": {
        "details": "See {IERC20-approve}. NOTE: If `amount` is the maximum `uint256`, the allowance is not updated on `transferFrom`. This is semantically equivalent to an infinite approval. Requirements: - `spender` cannot be the zero address."
      },
      "balanceOf(address)": {
        "details": "See {IERC20-balanceOf}."
      },
      "calculateReward(address)": {
        "details": "tokenPrice use Chainlink Oracle",
        "params": {
          "_token": "is the token of pool to calculate rewards"
        },
        "returns": {
          "_0": "rewards in dollars"
        }
      },
      "claimRewards(address)": {
        "details": "Available only for stakers who have rewards to claim",
        "params": {
          "_token": "is token of the pool to claim rewards"
        }
      },
      "decimals()": {
        "details": "Returns the number of decimals used to get its user representation. For example, if `decimals` equals `2`, a balance of `505` tokens should be displayed to a user as `5.05` (`505 / 10 ** 2`). Tokens usually opt for a value of 18, imitating the relationship between Ether and Wei. This is the value {ERC20} uses, unless this function is overridden; NOTE: This information is only used for _display_ purposes: it in no way affects any of the arithmetic of the contract, including {IERC20-balanceOf} and {IERC20-transfer}."
      },
      "decreaseAllowance(address,uint256)": {
        "details": "Atomically decreases the allowance granted to `spender` by the caller. This is an alternative to {approve} that can be used as a mitigation for problems described in {IERC20-approve}. Emits an {Approval} event indicating the updated allowance. Requirements: - `spender` cannot be the zero address. - `spender` must have allowance for the caller of at least `subtractedValue`."
      },
      "getStaking(address)": {
        "params": {
          "_token": "is address token of the pool to check"
        }
      },
      "getTotalStaking(address)": {
        "params": {
          "_token": "is address token"
        }
      },
      "increaseAllowance(address,uint256)": {
        "details": "Atomically increases the allowance granted to `spender` by the caller. This is an alternative to {approve} that can be used as a mitigation for problems described in {IERC20-approve}. Emits an {Approval} event indicating the updated allowance. Requirements: - `spender` cannot be the zero address."
      },
      "isStaker(address)": {
        "details": "Can be used to show the staked pools on the Dapp",
        "params": {
          "_token": "is address token of a pool"
        }
      },
      "name()": {
        "details": "Returns the name of the token."
      },
      "owner()": {
        "details": "Returns the address of the current owner."
      },
      "renounceOwnership()": {
        "details": "Leaves the contract without owner. It will not be possible to call `onlyOwner` functions anymore. Can only be called by the current owner. NOTE: Renouncing ownership will leave the contract without an owner, thereby removing any functionality that is only available to the owner."
      },
      "stake(uint128,address)": {
        "details": "Emit event after stake",
        "params": {
          "_amount": "to stake",
          "_token": "to stake"
        }
      },
      "stopPool(address)": {
        "details": "Available only for owner",
        "params": {
          "_token": "is token address"
        }
      },
      "symbol()": {
        "details": "Returns the symbol of the token, usually a shorter version of the name."
      },
      "totalSupply()": {
        "details": "See {IERC20-totalSupply}."
      },
      "transfer(address,uint256)": {
        "details": "See {IERC20-transfer}. Requirements: - `to` cannot be the zero address. - the caller must have a balance of at least `amount`."
      },
      "transferFrom(address,address,uint256)": {
        "details": "See {IERC20-transferFrom}. Emits an {Approval} event indicating the updated allowance. This is not required by the EIP. See the note at the beginning of {ERC20}. NOTE: Does not update the allowance if the current allowance is the maximum `uint256`. Requirements: - `from` and `to` cannot be the zero address. - `from` must have a balance of at least `amount`. - the caller must have allowance for ``from``'s tokens of at least `amount`."
      },
      "transferOwnership(address)": {
        "details": "Transfers ownership of the contract to a new account (`newOwner`). Can only be called by the current owner."
      },
      "withdraw(uint128,address)": {
        "params": {
          "_amount": "number of token to unstake",
          "_token": "to unstake"
        }
      }
    },
    "title": "Staking : a Staking Plateform !",
    "version": 1
  },
  "userdoc": {
    "kind": "user",
    "methods": {
      "addPool(address,uint128,address)": {
        "notice": "Make available token address to add pool"
      },
      "calculateReward(address)": {
        "notice": "Calculate rewards"
      },
      "claimRewards(address)": {
        "notice": "Claim your rewards"
      },
      "getStaking(address)": {
        "notice": "Check amount of a stacked pool from msg.sender"
      },
      "getTotalStaking(address)": {
        "notice": "Check total amount of a stacked pool"
      },
      "isStaker(address)": {
        "notice": "Check if msg.sender is a staker of a pool"
      },
      "stake(uint128,address)": {
        "notice": "Stake fund into this contract"
      },
      "stopPool(address)": {
        "notice": "disable a pool"
      },
      "withdraw(uint128,address)": {
        "notice": "Withdraw fund into this contract"
      }
    },
    "version": 1
  }
}