{
  "contractName": "Staking",
  "abi": [
    {
      "anonymous": false,
      "inputs": [
        {
          "indexed": true,
          "internalType": "address",
          "name": "owner",
          "type": "address"
        },
        {
          "indexed": true,
          "internalType": "address",
          "name": "spender",
          "type": "address"
        },
        {
          "indexed": false,
          "internalType": "uint256",
          "name": "value",
          "type": "uint256"
        }
      ],
      "name": "Approval",
      "type": "event"
    },
    {
      "anonymous": false,
      "inputs": [
        {
          "indexed": false,
          "internalType": "address",
          "name": "tokenAddress",
          "type": "address"
        },
        {
          "indexed": false,
          "internalType": "uint256",
          "name": "APR",
          "type": "uint256"
        }
      ],
      "name": "NewPool",
      "type": "event"
    },
    {
      "anonymous": false,
      "inputs": [
        {
          "indexed": true,
          "internalType": "address",
          "name": "previousOwner",
          "type": "address"
        },
        {
          "indexed": true,
          "internalType": "address",
          "name": "newOwner",
          "type": "address"
        }
      ],
      "name": "OwnershipTransferred",
      "type": "event"
    },
    {
      "anonymous": false,
      "inputs": [
        {
          "indexed": false,
          "internalType": "address",
          "name": "sender",
          "type": "address"
        },
        {
          "indexed": false,
          "internalType": "address",
          "name": "tokenAddress",
          "type": "address"
        },
        {
          "indexed": false,
          "internalType": "uint128",
          "name": "amount",
          "type": "uint128"
        },
        {
          "indexed": false,
          "internalType": "uint256",
          "name": "date",
          "type": "uint256"
        }
      ],
      "name": "Stake",
      "type": "event"
    },
    {
      "anonymous": false,
      "inputs": [
        {
          "indexed": false,
          "internalType": "address",
          "name": "tokenAddress",
          "type": "address"
        },
        {
          "indexed": false,
          "internalType": "uint256",
          "name": "date",
          "type": "uint256"
        }
      ],
      "name": "StopPool",
      "type": "event"
    },
    {
      "anonymous": false,
      "inputs": [
        {
          "indexed": true,
          "internalType": "address",
          "name": "from",
          "type": "address"
        },
        {
          "indexed": true,
          "internalType": "address",
          "name": "to",
          "type": "address"
        },
        {
          "indexed": false,
          "internalType": "uint256",
          "name": "value",
          "type": "uint256"
        }
      ],
      "name": "Transfer",
      "type": "event"
    },
    {
      "anonymous": false,
      "inputs": [
        {
          "indexed": false,
          "internalType": "address",
          "name": "sender",
          "type": "address"
        },
        {
          "indexed": false,
          "internalType": "address",
          "name": "tokenAddress",
          "type": "address"
        },
        {
          "indexed": false,
          "internalType": "uint128",
          "name": "amount",
          "type": "uint128"
        },
        {
          "indexed": false,
          "internalType": "uint256",
          "name": "date",
          "type": "uint256"
        }
      ],
      "name": "Unstake",
      "type": "event"
    },
    {
      "inputs": [
        {
          "internalType": "address",
          "name": "owner",
          "type": "address"
        },
        {
          "internalType": "address",
          "name": "spender",
          "type": "address"
        }
      ],
      "name": "allowance",
      "outputs": [
        {
          "internalType": "uint256",
          "name": "",
          "type": "uint256"
        }
      ],
      "stateMutability": "view",
      "type": "function",
      "constant": true
    },
    {
      "inputs": [
        {
          "internalType": "address",
          "name": "spender",
          "type": "address"
        },
        {
          "internalType": "uint256",
          "name": "amount",
          "type": "uint256"
        }
      ],
      "name": "approve",
      "outputs": [
        {
          "internalType": "bool",
          "name": "",
          "type": "bool"
        }
      ],
      "stateMutability": "nonpayable",
      "type": "function"
    },
    {
      "inputs": [
        {
          "internalType": "address",
          "name": "account",
          "type": "address"
        }
      ],
      "name": "balanceOf",
      "outputs": [
        {
          "internalType": "uint256",
          "name": "",
          "type": "uint256"
        }
      ],
      "stateMutability": "view",
      "type": "function",
      "constant": true
    },
    {
      "inputs": [],
      "name": "decimals",
      "outputs": [
        {
          "internalType": "uint8",
          "name": "",
          "type": "uint8"
        }
      ],
      "stateMutability": "view",
      "type": "function",
      "constant": true
    },
    {
      "inputs": [
        {
          "internalType": "address",
          "name": "spender",
          "type": "address"
        },
        {
          "internalType": "uint256",
          "name": "subtractedValue",
          "type": "uint256"
        }
      ],
      "name": "decreaseAllowance",
      "outputs": [
        {
          "internalType": "bool",
          "name": "",
          "type": "bool"
        }
      ],
      "stateMutability": "nonpayable",
      "type": "function"
    },
    {
      "inputs": [
        {
          "internalType": "address",
          "name": "spender",
          "type": "address"
        },
        {
          "internalType": "uint256",
          "name": "addedValue",
          "type": "uint256"
        }
      ],
      "name": "increaseAllowance",
      "outputs": [
        {
          "internalType": "bool",
          "name": "",
          "type": "bool"
        }
      ],
      "stateMutability": "nonpayable",
      "type": "function"
    },
    {
      "inputs": [],
      "name": "name",
      "outputs": [
        {
          "internalType": "string",
          "name": "",
          "type": "string"
        }
      ],
      "stateMutability": "view",
      "type": "function",
      "constant": true
    },
    {
      "inputs": [],
      "name": "owner",
      "outputs": [
        {
          "internalType": "address",
          "name": "",
          "type": "address"
        }
      ],
      "stateMutability": "view",
      "type": "function",
      "constant": true
    },
    {
      "inputs": [],
      "name": "renounceOwnership",
      "outputs": [],
      "stateMutability": "nonpayable",
      "type": "function"
    },
    {
      "inputs": [],
      "name": "symbol",
      "outputs": [
        {
          "internalType": "string",
          "name": "",
          "type": "string"
        }
      ],
      "stateMutability": "view",
      "type": "function",
      "constant": true
    },
    {
      "inputs": [],
      "name": "totalSupply",
      "outputs": [
        {
          "internalType": "uint256",
          "name": "",
          "type": "uint256"
        }
      ],
      "stateMutability": "view",
      "type": "function",
      "constant": true
    },
    {
      "inputs": [
        {
          "internalType": "address",
          "name": "to",
          "type": "address"
        },
        {
          "internalType": "uint256",
          "name": "amount",
          "type": "uint256"
        }
      ],
      "name": "transfer",
      "outputs": [
        {
          "internalType": "bool",
          "name": "",
          "type": "bool"
        }
      ],
      "stateMutability": "nonpayable",
      "type": "function"
    },
    {
      "inputs": [
        {
          "internalType": "address",
          "name": "from",
          "type": "address"
        },
        {
          "internalType": "address",
          "name": "to",
          "type": "address"
        },
        {
          "internalType": "uint256",
          "name": "amount",
          "type": "uint256"
        }
      ],
      "name": "transferFrom",
      "outputs": [
        {
          "internalType": "bool",
          "name": "",
          "type": "bool"
        }
      ],
      "stateMutability": "nonpayable",
      "type": "function"
    },
    {
      "inputs": [
        {
          "internalType": "address",
          "name": "newOwner",
          "type": "address"
        }
      ],
      "name": "transferOwnership",
      "outputs": [],
      "stateMutability": "nonpayable",
      "type": "function"
    },
    {
      "inputs": [
        {
          "internalType": "address",
          "name": "_token",
          "type": "address"
        },
        {
          "internalType": "uint128",
          "name": "_apr",
          "type": "uint128"
        },
        {
          "internalType": "address",
          "name": "_addressPrice",
          "type": "address"
        }
      ],
      "name": "addPool",
      "outputs": [],
      "stateMutability": "nonpayable",
      "type": "function"
    },
    {
      "inputs": [
        {
          "internalType": "address",
          "name": "_token",
          "type": "address"
        }
      ],
      "name": "stopPool",
      "outputs": [],
      "stateMutability": "nonpayable",
      "type": "function"
    },
    {
      "inputs": [
        {
          "internalType": "uint128",
          "name": "_amount",
          "type": "uint128"
        },
        {
          "internalType": "address",
          "name": "_token",
          "type": "address"
        }
      ],
      "name": "stake",
      "outputs": [],
      "stateMutability": "nonpayable",
      "type": "function"
    },
    {
      "inputs": [
        {
          "internalType": "uint128",
          "name": "_amount",
          "type": "uint128"
        },
        {
          "internalType": "address",
          "name": "_token",
          "type": "address"
        }
      ],
      "name": "withdraw",
      "outputs": [],
      "stateMutability": "nonpayable",
      "type": "function"
    },
    {
      "inputs": [
        {
          "internalType": "address",
          "name": "_token",
          "type": "address"
        }
      ],
      "name": "calculateReward",
      "outputs": [
        {
          "internalType": "uint256",
          "name": "",
          "type": "uint256"
        }
      ],
      "stateMutability": "view",
      "type": "function",
      "constant": true
    },
    {
      "inputs": [
        {
          "internalType": "address",
          "name": "_token",
          "type": "address"
        }
      ],
      "name": "claimRewards",
      "outputs": [],
      "stateMutability": "nonpayable",
      "type": "function"
    },
    {
      "inputs": [
        {
          "internalType": "address",
          "name": "_token",
          "type": "address"
        }
      ],
      "name": "getStaking",
      "outputs": [
        {
          "internalType": "uint256",
          "name": "",
          "type": "uint256"
        }
      ],
      "stateMutability": "view",
      "type": "function",
      "constant": true
    },
    {
      "inputs": [
        {
          "internalType": "address",
          "name": "_token",
          "type": "address"
        }
      ],
      "name": "isStaker",
      "outputs": [
        {
          "internalType": "bool",
          "name": "",
          "type": "bool"
        }
      ],
      "stateMutability": "view",
      "type": "function",
      "constant": true
    },
    {
      "inputs": [
        {
          "internalType": "address",
          "name": "_token",
          "type": "address"
        }
      ],
      "name": "getTotalStaking",
      "outputs": [
        {
          "internalType": "uint256",
          "name": "",
          "type": "uint256"
        }
      ],
      "stateMutability": "view",
      "type": "function",
      "constant": true
    }
  ],
  "bytecode": "0x60806040523480156200001157600080fd5b506040518060400160405280600681526020016521b937bbb22b60d11b8152506040518060400160405280600481526020016321a9222b60e11b81525062000068620000626200009c60201b60201c565b620000a0565b81516200007d906004906020850190620000f0565b50805162000093906005906020840190620000f0565b505050620001d2565b3390565b600080546001600160a01b038381166001600160a01b0319831681178455604051919092169283917f8be0079c531659141344cd1fd0a4f28419497f9722a3daafe3b4186f6b6457e09190a35050565b828054620000fe9062000196565b90600052602060002090601f0160209004810192826200012257600085556200016d565b82601f106200013d57805160ff19168380011785556200016d565b828001600101855582156200016d579182015b828111156200016d57825182559160200191906001019062000150565b506200017b9291506200017f565b5090565b5b808211156200017b576000815560010162000180565b600181811c90821680620001ab57607f821691505b602082108103620001cc57634e487b7160e01b600052602260045260246000fd5b50919050565b611f8d80620001e26000396000f3fe608060405234801561001057600080fd5b506004361061014d5760003560e01c806370a08231116100c3578063a9059cbb1161007c578063a9059cbb1461030c578063b166dfdd1461031f578063d82e396214610332578063dd62ed3e14610345578063ef5cfb8c14610358578063f2fde38b1461036b57600080fd5b806370a0823114610269578063715018a6146102925780637ae15a731461029a5780638da5cb5b146102d657806395d89b41146102f1578063a457c2d7146102f957600080fd5b80631d9b0783116101155780631d9b0783146101fb57806323b872dd1461020e5780632bf8f75614610221578063313ce5671461023457806339509351146102435780636f1e85331461025657600080fd5b806306fdde0314610152578063095ea7b31461017057806311c8863314610193578063156e28b8146101de57806318160ddd146101f3575b600080fd5b61015a61037e565b6040516101679190611b32565b60405180910390f35b61018361017e366004611ba3565b610410565b6040519015158152602001610167565b6101d06101a1366004611bcd565b6001600160a01b031660009081526006602090815260408083203384529091529020546001600160801b031690565b604051908152602001610167565b6101f16101ec366004611bcd565b610428565b005b6003546101d0565b6101f1610209366004611c06565b6104f3565b61018361021c366004611c39565b610779565b6101f161022f366004611c75565b61079d565b60405160128152602001610167565b610183610251366004611ba3565b6108e2565b610183610264366004611bcd565b610904565b6101d0610277366004611bcd565b6001600160a01b031660009081526001602052604090205490565b6101f1610946565b6101d06102a8366004611bcd565b6001600160a01b0316600090815260086020526040902060020154600160801b90046001600160801b031690565b6000546040516001600160a01b039091168152602001610167565b61015a61095a565b610183610307366004611ba3565b610969565b61018361031a366004611ba3565b6109e4565b6101f161032d366004611c06565b6109f2565b6101d0610340366004611bcd565b610c67565b6101d0610353366004611cb8565b61124d565b6101f1610366366004611bcd565b611278565b6101f1610379366004611bcd565b6112ee565b60606004805461038d90611cd4565b80601f01602080910402602001604051908101604052809291908181526020018280546103b990611cd4565b80156104065780601f106103db57610100808354040283529160200191610406565b820191906000526020600020905b8154815290600101906020018083116103e957829003601f168201915b5050505050905090565b60003361041e818585611367565b5060019392505050565b61043061148b565b6001600160a01b03811660009081526008602052604090205460ff1661048f5760405162461bcd60e51b815260206004820152600f60248201526e506f6f6c206e6f742061637469766560881b60448201526064015b60405180910390fd5b6001600160a01b038116600081815260086020908152604091829020805460ff191681554260019091018190558251938452908301527f95900bd9ba2e434a9f276313d71b4c06e0ca09327777b54984808188444a14d4910160405180910390a150565b6104fc81610904565b6105185760405162461bcd60e51b815260040161048690611d0e565b6000826001600160801b0316116105685760405162461bcd60e51b8152602060048201526014602482015273416d6f756e742063616e2774206265207a65726f60601b6044820152606401610486565b6001600160a01b03811660009081526006602090815260408083203384529091529020546001600160801b0390811690831611156105e85760405162461bcd60e51b815260206004820152601960248201527f446f6e2774206861766520736f206d616e7920746f6b656e73000000000000006044820152606401610486565b60006105f382610c67565b60405163a9059cbb60e01b81523360048201526001600160801b03851660248201529091506000906001600160a01b0384169063a9059cbb906044016020604051808303816000875af115801561064e573d6000803e3d6000fd5b505050506040513d601f19601f820116820180604052508101906106729190611d34565b9050806106b75760405162461bcd60e51b81526020600482015260136024820152722a3930b739b332b910333937b69032b93937b960691b6044820152606401610486565b6106c184846114e5565b6106cb84846115c4565b6001600160a01b03831660009081526008602052604090206002018054859190601090610709908490600160801b90046001600160801b0316611d6c565b92506101000a8154816001600160801b0302191690836001600160801b031602179055506107368261165c565b7fbd791e6972e4060b94df68a5b4f17c30ebc1dc2a05086ce163bf93ccf08f41f33384864260405161076b9493929190611d94565b60405180910390a150505050565b600033610787858285611666565b6107928585856116e0565b506001949350505050565b6107a561148b565b6001600160a01b03831660009081526008602052604090205460ff16156107fc5760405162461bcd60e51b815260206004820152600b60248201526a506f6f6c2061637469766560a81b6044820152606401610486565b6040805160a08101825260018082526001600160a01b03848116602080850191825260008587018181526001600160801b038a81166060890181815260808a018581528e891680875260088852958c90209a518b5498516001600160a81b0319909916901515610100600160a81b03191617610100989099169790970297909717895591519688019690965593519251928516600160801b9390951692909202939093176002909401939093558351928352908201527fbe4222bc407cb12031595fc55b46531e46308d31e4572c9c4360d8ae790e1a31910160405180910390a1505050565b60003361041e8185856108f5838361124d565b6108ff9190611dc6565b611367565b6001600160a01b03811660009081526006602090815260408083203384529091528120546001600160801b03161561093e57506001919050565b506000919050565b61094e61148b565b61095860006118ae565b565b60606005805461038d90611cd4565b60003381610977828661124d565b9050838110156109d75760405162461bcd60e51b815260206004820152602560248201527f45524332303a2064656372656173656420616c6c6f77616e63652062656c6f77604482015264207a65726f60d81b6064820152608401610486565b6107928286868403611367565b60003361041e8185856116e0565b6000826001600160801b031611610a425760405162461bcd60e51b8152602060048201526014602482015273416d6f756e742063616e2774206265207a65726f60601b6044820152606401610486565b6001600160a01b03811660009081526008602052604090205460ff16610a9c5760405162461bcd60e51b815260206004820152600f60248201526e506f6f6c206e6f742061637469766560881b6044820152606401610486565b6001600160a01b03811660009081526006602090815260408083203384529091528120546001600160801b03168103610ad757506000610ae3565b610ae082610c67565b90505b6040516323b872dd60e01b81523360048201523060248201526001600160801b03841660448201526000906001600160a01b038416906323b872dd906064016020604051808303816000875af1158015610b41573d6000803e3d6000fd5b505050506040513d601f19601f82011682018060405250810190610b659190611d34565b905080610baa5760405162461bcd60e51b81526020600482015260136024820152722a3930b739b332b910333937b69032b93937b960691b6044820152606401610486565b610bb484846118fe565b610bbe8484611940565b6001600160a01b03831660009081526008602052604090206002018054859190601090610bfc908490600160801b90046001600160801b0316611dde565b92506101000a8154816001600160801b0302191690836001600160801b031602179055506000821115610c3257610c328261165c565b7f1668de67314c72bac0de03c24eeecb3c305dc4cdf055be48782f2c7a09bc39ca3384864260405161076b9493929190611d94565b6000610c7282610904565b610c8e5760405162461bcd60e51b815260040161048690611d0e565b6001600160a01b03808316600090815260086020526040812054600192610cba916101009004166119dc565b6001600160a01b038516600090815260086020526040812060020154919250906301e1338090610cf7906001600160801b03166305f5e100611e09565b610d019190611e4e565b6001600160a01b0386166000908152600760205260408120546001600160801b039290921692509081805b82811015610da4576001600160a01b038916600081815260066020908152604080832033845282528083206001015493835260079091529020805483908110610d7757610d77611e74565b90600052602060002090600202016000015403610d92578091505b80610d9c81611e8a565b915050610d2c565b506001600160a01b03881660009081526008602052604090205460ff1615610fe15781600103610e10576001600160a01b0388166000908152600660209081526040808320338452909152902060010154610dff9042611ea3565b610e099084611dc6565b9250611221565b805b610e1d600184611ea3565b811015610f44576001600160a01b0389166000908152600760205260409020805482908110610e4e57610e4e611e74565b60009182526020808320600292909202909101600101546001600160a01b038c1680845260068352604080852033865284528085205491855260079093529190922080546001600160801b03938416939092169184908110610eb257610eb2611e74565b600091825260208083206002909202909101546001600160a01b038e16835260079091526040909120610ee6856001611dc6565b81548110610ef657610ef6611e74565b906000526020600020906002020160000154610f129190611ea3565b610f1c9190611eba565b610f269190611ed9565b610f309085611dc6565b935080610f3c81611e8a565b915050610e12565b506001600160a01b038816600081815260086020908152604080832060020154600683528184203385528352818420549484526007909252909120600160801b9091046001600160801b03908116921690610fa0600186611ea3565b81548110610fb057610fb0611e74565b90600052602060002090600202016000015442610fcd9190611ea3565b610fd79190611eba565b610dff9190611ed9565b81600103611029576001600160a01b0388166000818152600660209081526040808320338452825280832060019081015494845260089092529091200154610dff9190611ea3565b805b611036600184611ea3565b81101561115d576001600160a01b038916600090815260076020526040902080548290811061106757611067611e74565b60009182526020808320600292909202909101600101546001600160a01b038c1680845260068352604080852033865284528085205491855260079093529190922080546001600160801b039384169390921691849081106110cb576110cb611e74565b600091825260208083206002909202909101546001600160a01b038e168352600790915260409091206110ff856001611dc6565b8154811061110f5761110f611e74565b90600052602060002090600202016000015461112b9190611ea3565b6111359190611eba565b61113f9190611ed9565b6111499085611dc6565b93508061115581611e8a565b91505061102b565b506001600160a01b038816600081815260086020908152604080832060020154600683528184203385528352818420549484526007909252909120600160801b9091046001600160801b039081169216906111b9600186611ea3565b815481106111c9576111c9611e74565b600091825260208083206002909202909101546001600160a01b038d16835260089091526040909120600101546112009190611ea3565b61120a9190611eba565b6112149190611ed9565b61121e9084611dc6565b92505b858461122d8786611eba565b6112379190611eba565b6112419190611ed9565b98975050505050505050565b6001600160a01b03918216600090815260026020908152604080832093909416825291909152205490565b61128181610904565b61129d5760405162461bcd60e51b815260040161048690611d0e565b60006112a882610c67565b90506112b5600083611940565b6001600160a01b0382166000908152600660209081526040808320338085529252909120426001909101556112ea9082611a53565b5050565b6112f661148b565b6001600160a01b03811661135b5760405162461bcd60e51b815260206004820152602660248201527f4f776e61626c653a206e6577206f776e657220697320746865207a65726f206160448201526564647265737360d01b6064820152608401610486565b611364816118ae565b50565b6001600160a01b0383166113c95760405162461bcd60e51b8152602060048201526024808201527f45524332303a20617070726f76652066726f6d20746865207a65726f206164646044820152637265737360e01b6064820152608401610486565b6001600160a01b03821661142a5760405162461bcd60e51b815260206004820152602260248201527f45524332303a20617070726f766520746f20746865207a65726f206164647265604482015261737360f01b6064820152608401610486565b6001600160a01b0383811660008181526002602090815260408083209487168084529482529182902085905590518481527f8c5be1e5ebec7d5bd14f71427d1e84f3dd0314c0f7b2291e5b200ac8c7c3b925910160405180910390a3505050565b6000546001600160a01b031633146109585760405162461bcd60e51b815260206004820181905260248201527f4f776e61626c653a2063616c6c6572206973206e6f7420746865206f776e65726044820152606401610486565b6001600160a01b0381166000908152600760205260408120805461150b90600190611ea3565b8154811061151b5761151b611e74565b906000526020600020906002020160010160009054906101000a90046001600160801b031690506000604051806040016040528042815260200185846115619190611d6c565b6001600160801b039081169091526001600160a01b039490941660009081526007602090815260408220805460018082018355918452928290208451600290940201928355920151910180546001600160801b0319169190941617909255505050565b6040805180820182526001600160a01b0383166000908152600660209081528382203383529052919091205481906116069085906001600160801b0316611d6c565b6001600160801b039081168252426020928301526001600160a01b0393909316600090815260068252604080822033835283529020825181546001600160801b0319169416939093178355015160019091015550565b6113643382611a53565b6000611672848461124d565b905060001981146116da57818110156116cd5760405162461bcd60e51b815260206004820152601d60248201527f45524332303a20696e73756666696369656e7420616c6c6f77616e63650000006044820152606401610486565b6116da8484848403611367565b50505050565b6001600160a01b0383166117445760405162461bcd60e51b815260206004820152602560248201527f45524332303a207472616e736665722066726f6d20746865207a65726f206164604482015264647265737360d81b6064820152608401610486565b6001600160a01b0382166117a65760405162461bcd60e51b815260206004820152602360248201527f45524332303a207472616e7366657220746f20746865207a65726f206164647260448201526265737360e81b6064820152608401610486565b6001600160a01b0383166000908152600160205260409020548181101561181e5760405162461bcd60e51b815260206004820152602660248201527f45524332303a207472616e7366657220616d6f756e7420657863656564732062604482015265616c616e636560d01b6064820152608401610486565b6001600160a01b03808516600090815260016020526040808220858503905591851681529081208054849290611855908490611dc6565b92505081905550826001600160a01b0316846001600160a01b03167fddf252ad1be2c89b69c2b068fc378daa952ba7f163c4a11628f55a4df523b3ef846040516118a191815260200190565b60405180910390a36116da565b600080546001600160a01b038381166001600160a01b0319831681178455604051919092169283917f8be0079c531659141344cd1fd0a4f28419497f9722a3daafe3b4186f6b6457e09190a35050565b6040805180820182526001600160a01b0383166000908152600660209081528382203383529052919091205481906116069085906001600160801b0316611dde565b6001600160a01b0381166000908152600760205260408120548103611967575060006119bd565b6001600160a01b0382166000908152600760205260409020805461198d90600190611ea3565b8154811061199d5761199d611e74565b60009182526020909120600160029092020101546001600160801b031690505b6000604051806040016040528042815260200185846115619190611dde565b6000808290506000816001600160a01b031663feaf968c6040518163ffffffff1660e01b815260040160a060405180830381865afa158015611a22573d6000803e3d6000fd5b505050506040513d601f19601f82011682018060405250810190611a469190611f07565b5091979650505050505050565b6001600160a01b038216611aa95760405162461bcd60e51b815260206004820152601f60248201527f45524332303a206d696e7420746f20746865207a65726f2061646472657373006044820152606401610486565b8060036000828254611abb9190611dc6565b90915550506001600160a01b03821660009081526001602052604081208054839290611ae8908490611dc6565b90915550506040518181526001600160a01b038316906000907fddf252ad1be2c89b69c2b068fc378daa952ba7f163c4a11628f55a4df523b3ef9060200160405180910390a35050565b600060208083528351808285015260005b81811015611b5f57858101830151858201604001528201611b43565b81811115611b71576000604083870101525b50601f01601f1916929092016040019392505050565b80356001600160a01b0381168114611b9e57600080fd5b919050565b60008060408385031215611bb657600080fd5b611bbf83611b87565b946020939093013593505050565b600060208284031215611bdf57600080fd5b611be882611b87565b9392505050565b80356001600160801b0381168114611b9e57600080fd5b60008060408385031215611c1957600080fd5b611c2283611bef565b9150611c3060208401611b87565b90509250929050565b600080600060608486031215611c4e57600080fd5b611c5784611b87565b9250611c6560208501611b87565b9150604084013590509250925092565b600080600060608486031215611c8a57600080fd5b611c9384611b87565b9250611ca160208501611bef565b9150611caf60408501611b87565b90509250925092565b60008060408385031215611ccb57600080fd5b611c2283611b87565b600181811c90821680611ce857607f821691505b602082108103611d0857634e487b7160e01b600052602260045260246000fd5b50919050565b6020808252600c908201526b2737ba10309039ba30b5b2b960a11b604082015260600190565b600060208284031215611d4657600080fd5b81518015158114611be857600080fd5b634e487b7160e01b600052601160045260246000fd5b60006001600160801b0383811690831681811015611d8c57611d8c611d56565b039392505050565b6001600160a01b0394851681529290931660208301526001600160801b03166040820152606081019190915260800190565b60008219821115611dd957611dd9611d56565b500190565b60006001600160801b03808316818516808303821115611e0057611e00611d56565b01949350505050565b60006001600160801b0380831681851681830481118215151615611e2f57611e2f611d56565b02949350505050565b634e487b7160e01b600052601260045260246000fd5b60006001600160801b0380841680611e6857611e68611e38565b92169190910492915050565b634e487b7160e01b600052603260045260246000fd5b600060018201611e9c57611e9c611d56565b5060010190565b600082821015611eb557611eb5611d56565b500390565b6000816000190483118215151615611ed457611ed4611d56565b500290565b600082611ee857611ee8611e38565b500490565b805169ffffffffffffffffffff81168114611b9e57600080fd5b600080600080600060a08688031215611f1f57600080fd5b611f2886611eed565b9450602086015193506040860151925060608601519150611f4b60808701611eed565b9050929550929590935056fea264697066735822122010f2d7ad2553c04d83789f4584cb8d8b5ca887fcefb128d5d1ecdd1fab01506764736f6c634300080e0033",
  "immutableReferences": {},
  "source": "// SPDX-License-Identifier: MIT\npragma solidity 0.8.14;\n\nimport \"../node_modules/@openzeppelin/contracts/token/ERC20/IERC20.sol\";\nimport \"../node_modules/@openzeppelin/contracts/access/Ownable.sol\";\nimport \"../node_modules/@chainlink/contracts/src/v0.8/interfaces/AggregatorV3Interface.sol\";\nimport \"./CrowdV.sol\";\nimport \"./StackingPool.sol\";\n\n/**\n * @title Staking : a Staking Plateform !\n * @author Anthony - Etienne - Jean-Baptiste\n */\n\ncontract Staking is Ownable, CrowdV, StackingPool {\n    //Information about the token\n    struct Token {\n        bool activePool;\n        address addressPrice; //Chainlink Pool\n        uint256 dateStop;\n        uint128 APR;\n        uint128 totalStakes;\n    }\n\n    // Token address => active pool\n    mapping(address => Token) pools;\n\n    // Events\n    event NewPool(address tokenAddress, uint256 APR);\n    event StopPool(address tokenAddress, uint256 date);\n    event Stake(\n        address sender,\n        address tokenAddress,\n        uint128 amount,\n        uint256 date\n    );\n    event Unstake(\n        address sender,\n        address tokenAddress,\n        uint128 amount,\n        uint256 date\n    );\n\n    /**\n     * @notice Make available token address to add pool\n     * @dev Available only for owner\n     * @param _token is token address\n     * @param _apr is APR of the pool\n     * @param _addressPrice is Chainlink pool\n     */\n    function addPool(\n        address _token,\n        uint128 _apr,\n        address _addressPrice\n    ) external onlyOwner {\n        require(!pools[_token].activePool, \"Pool active\");\n\n        pools[_token] = Token(true, _addressPrice, 0, _apr, 0);\n\n        emit NewPool(_token, _apr);\n    }\n\n    /**\n     * @notice disable a pool\n     * @dev Available only for owner\n     * @param _token is token address\n     */\n    function stopPool(address _token) external onlyOwner {\n        require(pools[_token].activePool, \"Pool not active\");\n        pools[_token].activePool = false;\n        pools[_token].dateStop = block.timestamp;\n\n        emit StopPool(_token, block.timestamp);\n    }\n\n    /**\n     * @notice Stake fund into this contract\n     * @param _amount to stake\n     * @param _token to stake\n     * @dev Emit event after stake\n     */\n    function stake(uint128 _amount, address _token) external {\n        require(_amount > 0, \"Amount can't be zero\");\n        require(pools[_token].activePool, \"Pool not active\");\n\n        uint256 rewards;\n        if(stakers[_token][msg.sender].amount==0){rewards=0;}\n        else{rewards=calculateReward(_token);}\n        \n        bool result = IERC20(_token).transferFrom(\n            msg.sender,\n            address(this),\n            _amount\n        );\n        require(result, \"Transfer from error\");\n\n        upAmountStaker(_amount, _token);\n        upStackingPool(_amount, _token);\n        pools[_token].totalStakes += _amount;\n\n        if (rewards>0){_getRewards(rewards);} // Rcuprer les rewards en mme temps\n\n        emit Stake(msg.sender, _token, _amount, block.timestamp);\n    }\n\n    /**\n     * @notice Withdraw fund into this contract\n     * @param _token to unstake\n     * @param _amount number of token to unstake\n     */\n    function withdraw(uint128 _amount, address _token) external {\n        require(isStaker(_token), \"Not a staker\");\n        require(_amount > 0, \"Amount can't be zero\");\n        require(\n            _amount <= stakers[_token][msg.sender].amount,\n            \"Don't have so many tokens\"\n        );\n        uint256 rewards = calculateReward(_token);\n        bool result = IERC20(_token).transfer(msg.sender, _amount);\n        require(result, \"Transfer from error\");\n\n        downStackingPool( _amount, _token);\n        downAmountStaker( _amount, _token);\n        pools[_token].totalStakes -= _amount;\n\n        _getRewards(rewards); // Rcuprer les rewards en mme temps\n\n        emit Unstake(msg.sender, _token, _amount, block.timestamp);\n    }\n    \n    /**\n     * @notice Get price of token with Chainlink\n     * @param _pairChainlinkAddress is the pool adress in $\n     */\n    function _getLatestPrice(address _pairChainlinkAddress)\n        private\n        view\n        returns (uint256)\n    {\n        AggregatorV3Interface priceFeed = AggregatorV3Interface(\n            _pairChainlinkAddress\n        );\n        (, int256 price, , , ) = priceFeed.latestRoundData();\n\n        return uint256(price);\n    }\n\n    /**\n     * @notice Calculate rewards\n     * @dev tokenPrice use Chainlink Oracle\n     * @param _token is the token of pool to calculate rewards\n     * @return rewards in dollars\n     */\n    function calculateReward(address _token) public view returns (uint256) {\n        require(isStaker(_token), \"Not a staker\");\n        uint256 priceCRVD = 1; //prix du token de reward fix pour l'exercice\n        uint256 tokenPrice = _getLatestPrice(pools[_token].addressPrice);\n        uint256 aprPerSeconds = ((pools[_token].APR) * 10**8) /\n            (365 * 24 * 3600);\n        uint256 rewardspartoOfPool;\n        uint256 x = stakingTimes[_token].length;\n        uint256 blockIndex;\n        for (uint256 i = 0; i < x; i++) {\n            if (\n                stakingTimes[_token][i].blockDate ==\n                stakers[_token][msg.sender].date\n            ) {\n                blockIndex = i;\n            }\n        }\n\n        if (pools[_token].activePool) {\n            if (x == 1) {\n                rewardspartoOfPool += (block.timestamp -\n                    stakers[_token][msg.sender].date);\n            } else {\n                for (uint256 i = blockIndex; i < x - 1; i++) {\n                    rewardspartoOfPool +=\n                        ((stakingTimes[_token][i + 1].blockDate -\n                            stakingTimes[_token][i].blockDate) *\n                            stakers[_token][msg.sender].amount) /\n                        stakingTimes[_token][i].stakingTotalPool;\n                }\n                rewardspartoOfPool +=\n                    ((block.timestamp - stakingTimes[_token][x - 1].blockDate) *\n                        stakers[_token][msg.sender].amount) /\n                    pools[_token].totalStakes;\n            }\n        } else {\n            if (x == 1) {\n                rewardspartoOfPool += (pools[_token].dateStop -\n                    stakers[_token][msg.sender].date);\n            } else {\n                for (uint256 i = blockIndex; i < x - 1; i++) {\n                    rewardspartoOfPool +=\n                        ((stakingTimes[_token][i + 1].blockDate -\n                            stakingTimes[_token][i].blockDate) *\n                            stakers[_token][msg.sender].amount) /\n                        stakingTimes[_token][i].stakingTotalPool;\n                }\n                rewardspartoOfPool +=\n                    ((pools[_token].dateStop -\n                        stakingTimes[_token][x - 1].blockDate) *\n                        stakers[_token][msg.sender].amount) /\n                    pools[_token].totalStakes;\n            }\n        }\n\n        return rewardspartoOfPool * tokenPrice * aprPerSeconds / priceCRVD;\n    }\n\n    /**\n     * @notice Claim your rewards\n     * @dev Available only for stakers who have rewards to claim\n     * @param _token is token of the pool to claim rewards\n     */\n    function claimRewards(address _token) external {\n        require(isStaker(_token), \"Not a staker\");\n        uint256 rewards = calculateReward(_token);\n        upStackingPool(0, _token);\n        stakers[_token][msg.sender].date = block.timestamp; //Remettre  0 le timestamp\n        _mint(msg.sender, rewards);\n    }\n\n    /**\n     * @notice Autoclaim rewards when add staking or withdraw\n     * @dev Available only for function stake and withdraw\n     * @param _amount is amount in $ of the rewards to claim\n     */\n    function _getRewards(uint256 _amount) private {\n        _mint(msg.sender, _amount);\n    }\n\n    /**\n     * @notice Check amount of a stacked pool from msg.sender\n     * @param _token is address token of the pool to check\n     */\n    function getStaking(address _token) external view returns (uint256) {\n        return stakers[_token][msg.sender].amount;\n    }\n\n    /**\n     * @notice Check if msg.sender is a staker of a pool\n     * @dev Can be used to show the staked pools on the Dapp\n     * @param _token is address token of a pool\n     */\n    function isStaker(address _token) public view returns (bool) {\n        if (stakers[_token][msg.sender].amount > 0) {\n            return true;\n        }\n        return false;\n    }\n\n    /**\n     * @notice Check total amount of a stacked pool\n     * @param _token is address token\n     */\n    function getTotalStaking(address _token) external view returns (uint256) {\n        return pools[_token].totalStakes;\n    }\n}\n",
  "sourcePath": "/home/jb/Projets/TP Defi/truffle/contracts/Staking.sol",
  "compiler": {
    "name": "solc",
    "version": "0.8.14+commit.80d49f37.Emscripten.clang"
  },
  "schemaVersion": "3.4.8",
  "updatedAt": "2022-08-07T19:48:43.594Z",
  "networkType": "ethereum",
  "devdoc": {
    "author": "Anthony - Etienne - Jean-Baptiste",
    "kind": "dev",
    "methods": {
      "addPool(address,uint128,address)": {
        "details": "Available only for owner",
        "params": {
          "_addressPrice": "is Chainlink pool",
          "_apr": "is APR of the pool",
          "_token": "is token address"
        }
      },
      "allowance(address,address)": {
        "details": "See {IERC20-allowance}."
      },
      "approve(address,uint256)": {
        "details": "See {IERC20-approve}. NOTE: If `amount` is the maximum `uint256`, the allowance is not updated on `transferFrom`. This is semantically equivalent to an infinite approval. Requirements: - `spender` cannot be the zero address."
      },
      "balanceOf(address)": {
        "details": "See {IERC20-balanceOf}."
      },
      "calculateReward(address)": {
        "details": "tokenPrice use Chainlink Oracle",
        "params": {
          "_token": "is the token of pool to calculate rewards"
        },
        "returns": {
          "_0": "rewards in dollars"
        }
      },
      "claimRewards(address)": {
        "details": "Available only for stakers who have rewards to claim",
        "params": {
          "_token": "is token of the pool to claim rewards"
        }
      },
      "decimals()": {
        "details": "Returns the number of decimals used to get its user representation. For example, if `decimals` equals `2`, a balance of `505` tokens should be displayed to a user as `5.05` (`505 / 10 ** 2`). Tokens usually opt for a value of 18, imitating the relationship between Ether and Wei. This is the value {ERC20} uses, unless this function is overridden; NOTE: This information is only used for _display_ purposes: it in no way affects any of the arithmetic of the contract, including {IERC20-balanceOf} and {IERC20-transfer}."
      },
      "decreaseAllowance(address,uint256)": {
        "details": "Atomically decreases the allowance granted to `spender` by the caller. This is an alternative to {approve} that can be used as a mitigation for problems described in {IERC20-approve}. Emits an {Approval} event indicating the updated allowance. Requirements: - `spender` cannot be the zero address. - `spender` must have allowance for the caller of at least `subtractedValue`."
      },
      "getStaking(address)": {
        "params": {
          "_token": "is address token of the pool to check"
        }
      },
      "getTotalStaking(address)": {
        "params": {
          "_token": "is address token"
        }
      },
      "increaseAllowance(address,uint256)": {
        "details": "Atomically increases the allowance granted to `spender` by the caller. This is an alternative to {approve} that can be used as a mitigation for problems described in {IERC20-approve}. Emits an {Approval} event indicating the updated allowance. Requirements: - `spender` cannot be the zero address."
      },
      "isStaker(address)": {
        "details": "Can be used to show the staked pools on the Dapp",
        "params": {
          "_token": "is address token of a pool"
        }
      },
      "name()": {
        "details": "Returns the name of the token."
      },
      "owner()": {
        "details": "Returns the address of the current owner."
      },
      "renounceOwnership()": {
        "details": "Leaves the contract without owner. It will not be possible to call `onlyOwner` functions anymore. Can only be called by the current owner. NOTE: Renouncing ownership will leave the contract without an owner, thereby removing any functionality that is only available to the owner."
      },
      "stake(uint128,address)": {
        "details": "Emit event after stake",
        "params": {
          "_amount": "to stake",
          "_token": "to stake"
        }
      },
      "stopPool(address)": {
        "details": "Available only for owner",
        "params": {
          "_token": "is token address"
        }
      },
      "symbol()": {
        "details": "Returns the symbol of the token, usually a shorter version of the name."
      },
      "totalSupply()": {
        "details": "See {IERC20-totalSupply}."
      },
      "transfer(address,uint256)": {
        "details": "See {IERC20-transfer}. Requirements: - `to` cannot be the zero address. - the caller must have a balance of at least `amount`."
      },
      "transferFrom(address,address,uint256)": {
        "details": "See {IERC20-transferFrom}. Emits an {Approval} event indicating the updated allowance. This is not required by the EIP. See the note at the beginning of {ERC20}. NOTE: Does not update the allowance if the current allowance is the maximum `uint256`. Requirements: - `from` and `to` cannot be the zero address. - `from` must have a balance of at least `amount`. - the caller must have allowance for ``from``'s tokens of at least `amount`."
      },
      "transferOwnership(address)": {
        "details": "Transfers ownership of the contract to a new account (`newOwner`). Can only be called by the current owner."
      },
      "withdraw(uint128,address)": {
        "params": {
          "_amount": "number of token to unstake",
          "_token": "to unstake"
        }
      }
    },
    "title": "Staking : a Staking Plateform !",
    "version": 1
  },
  "userdoc": {
    "kind": "user",
    "methods": {
      "addPool(address,uint128,address)": {
        "notice": "Make available token address to add pool"
      },
      "calculateReward(address)": {
        "notice": "Calculate rewards"
      },
      "claimRewards(address)": {
        "notice": "Claim your rewards"
      },
      "getStaking(address)": {
        "notice": "Check amount of a stacked pool from msg.sender"
      },
      "getTotalStaking(address)": {
        "notice": "Check total amount of a stacked pool"
      },
      "isStaker(address)": {
        "notice": "Check if msg.sender is a staker of a pool"
      },
      "stake(uint128,address)": {
        "notice": "Stake fund into this contract"
      },
      "stopPool(address)": {
        "notice": "disable a pool"
      },
      "withdraw(uint128,address)": {
        "notice": "Withdraw fund into this contract"
      }
    },
    "version": 1
  }
}